{
  "contractName": "CollateralVault",
  "abi": [
    {
      "inputs": [
        {
          "internalType": "address",
          "name": "_admin",
          "type": "address"
        },
        {
          "internalType": "address",
          "name": "_collateralAddress",
          "type": "address"
        },
        {
          "internalType": "uint256",
          "name": "_threshold",
          "type": "uint256"
        }
      ],
      "stateMutability": "nonpayable",
      "type": "constructor"
    },
    {
      "anonymous": false,
      "inputs": [
        {
          "indexed": false,
          "internalType": "address",
          "name": "depositor",
          "type": "address"
        },
        {
          "indexed": false,
          "internalType": "uint256",
          "name": "amount",
          "type": "uint256"
        }
      ],
      "name": "CollateralDeposited",
      "type": "event"
    },
    {
      "anonymous": false,
      "inputs": [
        {
          "indexed": false,
          "internalType": "address",
          "name": "recipient",
          "type": "address"
        },
        {
          "indexed": false,
          "internalType": "uint256",
          "name": "amount",
          "type": "uint256"
        }
      ],
      "name": "CollateralWithdrawn",
      "type": "event"
    },
    {
      "anonymous": false,
      "inputs": [],
      "name": "WithdrawalPermissionGranted",
      "type": "event"
    },
    {
      "anonymous": false,
      "inputs": [],
      "name": "WithdrawalPermissionRevoked",
      "type": "event"
    },
    {
      "inputs": [],
      "name": "admin",
      "outputs": [
        {
          "internalType": "address",
          "name": "",
          "type": "address"
        }
      ],
      "stateMutability": "view",
      "type": "function"
    },
    {
      "inputs": [
        {
          "internalType": "address",
          "name": "",
          "type": "address"
        }
      ],
      "name": "balances",
      "outputs": [
        {
          "internalType": "uint256",
          "name": "",
          "type": "uint256"
        }
      ],
      "stateMutability": "view",
      "type": "function"
    },
    {
      "inputs": [],
      "name": "canWithdraw",
      "outputs": [
        {
          "internalType": "bool",
          "name": "",
          "type": "bool"
        }
      ],
      "stateMutability": "view",
      "type": "function"
    },
    {
      "inputs": [],
      "name": "collateralAddress",
      "outputs": [
        {
          "internalType": "address",
          "name": "",
          "type": "address"
        }
      ],
      "stateMutability": "view",
      "type": "function"
    },
    {
      "inputs": [],
      "name": "threshold",
      "outputs": [
        {
          "internalType": "uint256",
          "name": "",
          "type": "uint256"
        }
      ],
      "stateMutability": "view",
      "type": "function"
    },
    {
      "inputs": [],
      "name": "totalCollateral",
      "outputs": [
        {
          "internalType": "uint256",
          "name": "",
          "type": "uint256"
        }
      ],
      "stateMutability": "view",
      "type": "function"
    },
    {
      "inputs": [
        {
          "internalType": "address",
          "name": "",
          "type": "address"
        }
      ],
      "name": "voted",
      "outputs": [
        {
          "internalType": "bool",
          "name": "",
          "type": "bool"
        }
      ],
      "stateMutability": "view",
      "type": "function"
    },
    {
      "inputs": [
        {
          "internalType": "uint256",
          "name": "amount",
          "type": "uint256"
        }
      ],
      "name": "deposit",
      "outputs": [],
      "stateMutability": "nonpayable",
      "type": "function"
    },
    {
      "inputs": [],
      "name": "grantWithdrawalPermission",
      "outputs": [],
      "stateMutability": "nonpayable",
      "type": "function"
    },
    {
      "inputs": [],
      "name": "revokeWithdrawalPermission",
      "outputs": [],
      "stateMutability": "nonpayable",
      "type": "function"
    },
    {
      "inputs": [
        {
          "internalType": "uint256",
          "name": "amount",
          "type": "uint256"
        }
      ],
      "name": "withdraw",
      "outputs": [],
      "stateMutability": "nonpayable",
      "type": "function"
    }
  ],
  "bytecode": "0x608060405234801561001057600080fd5b506040516108f73803806108f783398101604081905261002f91610083565b600080546001600160a01b039485166001600160a01b03199182161790915560018054939094169216919091179091556005556100bf565b80516001600160a01b038116811461007e57600080fd5b919050565b60008060006060848603121561009857600080fd5b6100a184610067565b92506100af60208501610067565b9150604084015190509250925092565b610829806100ce6000396000f3fe608060405234801561001057600080fd5b50600436106100a95760003560e01c806395e63fb01161007157806395e63fb014610133578063aec2ccae1461013b578063b51459fe1461016e578063b6b55f251461017b578063efb87de61461018e578063f851a4401461019657600080fd5b806327e235e3146100ae5780632e1a7d4d146100e157806342cde4e8146100f657806348d399e7146100ff5780634ac8eb5f1461012a575b600080fd5b6100ce6100bc366004610746565b60036020526000908152604090205481565b6040519081526020015b60405180910390f35b6100f46100ef366004610776565b6101a9565b005b6100ce60055481565b600154610112906001600160a01b031681565b6040516001600160a01b0390911681526020016100d8565b6100ce60025481565b6100f46103a5565b61015e610149366004610746565b60046020526000908152604090205460ff1681565b60405190151581526020016100d8565b60065461015e9060ff1681565b6100f4610189366004610776565b6104ac565b6100f461063c565b600054610112906001600160a01b031681565b60065460ff1661020a5760405162461bcd60e51b815260206004820152602160248201527f5769746864726177616c207065726d697373696f6e206e6f74206772616e74656044820152601960fa1b60648201526084015b60405180910390fd5b60008111801561021c57506002548111155b6102685760405162461bcd60e51b815260206004820152601960248201527f496e76616c6964207769746864726177616c20616d6f756e74000000000000006044820152606401610201565b60015460405163a9059cbb60e01b8152336004820152602481018390526001600160a01b0390911690819063a9059cbb906044016020604051808303816000875af11580156102bb573d6000803e3d6000fd5b505050506040513d601f19601f820116820180604052508101906102df919061078f565b61032b5760405162461bcd60e51b815260206004820152601a60248201527f436f6c6c61746572616c207472616e73666572206661696c65640000000000006044820152606401610201565b336000908152600360205260408120805484929061034a9084906107c7565b92505081905550816002600082825461036391906107c7565b909155505060408051338152602081018490527fc30fcfbcaac9e0deffa719714eaa82396ff506a0d0d0eebe170830177288715d910160405180910390a15050565b6000546001600160a01b031633146104175760405162461bcd60e51b815260206004820152602f60248201527f4f6e6c79207468652061646d696e2063616e207265766f6b652077697468647260448201526e30bbb0b6103832b936b4b9b9b4b7b760891b6064820152608401610201565b60065460ff166104775760405162461bcd60e51b815260206004820152602560248201527f5769746864726177616c207065726d697373696f6e20616c72656164792072656044820152641d9bdad95960da1b6064820152608401610201565b6006805460ff191690556040517fcf6dfb46aed07935b1edc0b1db5fe99e59a333bea591de61423f8b0ebd33424390600090a1565b600081116104fc5760405162461bcd60e51b815260206004820181905260248201527f416d6f756e74206d7573742062652067726561746572207468616e207a65726f6044820152606401610201565b6001546040516323b872dd60e01b8152336004820152306024820152604481018390526001600160a01b03909116906323b872dd906064016020604051808303816000875af1158015610553573d6000803e3d6000fd5b505050506040513d601f19601f82011682018060405250810190610577919061078f565b6105c35760405162461bcd60e51b815260206004820152601a60248201527f436f6c6c61746572616c207472616e73666572206661696c65640000000000006044820152606401610201565b33600090815260036020526040812080548392906105e29084906107e0565b9250508190555080600260008282546105fb91906107e0565b909155505060408051338152602081018390527fd7243f6f8212d5188fd054141cf6ea89cfc0d91facb8c3afe2f88a1358480142910160405180910390a150565b6000546001600160a01b031633146106ad5760405162461bcd60e51b815260206004820152602e60248201527f4f6e6c79207468652061646d696e2063616e206772616e74207769746864726160448201526d3bb0b6103832b936b4b9b9b4b7b760911b6064820152608401610201565b60065460ff161561070e5760405162461bcd60e51b815260206004820152602560248201527f5769746864726177616c207065726d697373696f6e20616c7265616479206772604482015264185b9d195960da1b6064820152608401610201565b6006805460ff191660011790556040517f41ed9192cc2ea507070e5972665f5342cf25ca26f1aff66ae602697be7744eaa90600090a1565b60006020828403121561075857600080fd5b81356001600160a01b038116811461076f57600080fd5b9392505050565b60006020828403121561078857600080fd5b5035919050565b6000602082840312156107a157600080fd5b8151801515811461076f57600080fd5b634e487b7160e01b600052601160045260246000fd5b818103818111156107da576107da6107b1565b92915050565b808201808211156107da576107da6107b156fea2646970667358221220889aaea45fcc870b434e60c9eff75ff6d65e587d33586ef38c162051a74318c264736f6c63430008130033",
  "immutableReferences": {},
  "source": "// SPDX-License-Identifier= MIT\n\npragma solidity 0.8.19;\nimport \"../node_modules/@openzeppelin/contracts/token/ERC20/IERC20.sol\";\n\ncontract CollateralVault {\n    address public admin;\n    address public collateralAddress;\n    uint256 public totalCollateral;\n    mapping(address => uint256) public balances;\n    mapping(address => bool) public voted;\n    uint256 public threshold;\n    bool public canWithdraw;\n\n    event CollateralDeposited(address depositor, uint256 amount);\n    event WithdrawalPermissionGranted();\n    event WithdrawalPermissionRevoked();\n    event CollateralWithdrawn(address recipient, uint256 amount);\n\n    constructor(address _admin, address _collateralAddress, uint256 _threshold) {\n        admin = _admin;\n        collateralAddress = _collateralAddress;\n        threshold = _threshold;\n    }\n\n    function deposit(uint256 amount) public {\n        require(amount > 0, \"Amount must be greater than zero\");\n        require(IERC20(collateralAddress).transferFrom(msg.sender, address(this), amount), \"Collateral transfer failed\");\n\n        balances[msg.sender] += amount;\n        totalCollateral += amount;\n\n        emit CollateralDeposited(msg.sender, amount);\n    }\n\n    function grantWithdrawalPermission() public {\n        require(msg.sender == admin, \"Only the admin can grant withdrawal permission\");\n        require(!canWithdraw, \"Withdrawal permission already granted\");\n\n        canWithdraw = true;\n        emit WithdrawalPermissionGranted();\n    }\n\n    function revokeWithdrawalPermission() public {\n        require(msg.sender == admin, \"Only the admin can revoke withdrawal permission\");\n        require(canWithdraw, \"Withdrawal permission already revoked\");\n\n        canWithdraw = false;\n        emit WithdrawalPermissionRevoked();\n    }\n\n\n    function withdraw(uint256 amount) public {\n        require(canWithdraw, \"Withdrawal permission not granted\");\n        require(amount > 0 && amount <= totalCollateral, \"Invalid withdrawal amount\");\n\n        IERC20 collateralToken = IERC20(collateralAddress);\n        require(collateralToken.transfer(msg.sender, amount), \"Collateral transfer failed\");\n\n        balances[msg.sender] -= amount;\n        totalCollateral -= amount;\n\n        emit CollateralWithdrawn(msg.sender, amount);\n    }\n}\n",
  "sourcePath": "/Users/ilham_elbouloumi/Documents/WorkSpace_Blockchain_VSC/CommonSeedDAO/truffle/contracts/CollectCollateral.sol",
  "compiler": {
    "name": "solc",
    "version": "0.8.19+commit.7dd6d404.Emscripten.clang"
  },
  "schemaVersion": "3.4.12",
  "updatedAt": "2023-04-06T18:07:27.463Z",
  "devdoc": {
    "kind": "dev",
    "methods": {},
    "version": 1
  },
  "userdoc": {
    "kind": "user",
    "methods": {},
    "version": 1
  }
}