{
  "contractName": "FundraisingProject",
  "abi": [
    {
      "inputs": [
        {
          "internalType": "address",
          "name": "_usdtAddress",
          "type": "address"
        },
        {
          "internalType": "address",
          "name": "_projectInfoContractAddress",
          "type": "address"
        }
      ],
      "stateMutability": "nonpayable",
      "type": "constructor"
    },
    {
      "anonymous": false,
      "inputs": [
        {
          "indexed": false,
          "internalType": "uint256",
          "name": "projectId",
          "type": "uint256"
        },
        {
          "indexed": false,
          "internalType": "address",
          "name": "investor",
          "type": "address"
        },
        {
          "indexed": false,
          "internalType": "uint256",
          "name": "amount",
          "type": "uint256"
        }
      ],
      "name": "Contribute",
      "type": "event"
    },
    {
      "anonymous": false,
      "inputs": [
        {
          "indexed": false,
          "internalType": "uint256",
          "name": "projectId",
          "type": "uint256"
        }
      ],
      "name": "FundraisingFailed",
      "type": "event"
    },
    {
      "anonymous": false,
      "inputs": [
        {
          "indexed": false,
          "internalType": "uint256",
          "name": "projectId",
          "type": "uint256"
        }
      ],
      "name": "FundraisingPhaseClosed",
      "type": "event"
    },
    {
      "anonymous": false,
      "inputs": [
        {
          "indexed": false,
          "internalType": "uint256",
          "name": "_projectId",
          "type": "uint256"
        }
      ],
      "name": "FundraisingPhaseOpen",
      "type": "event"
    },
    {
      "anonymous": false,
      "inputs": [
        {
          "indexed": false,
          "internalType": "uint256",
          "name": "projectId",
          "type": "uint256"
        }
      ],
      "name": "FundraisingSuccessful",
      "type": "event"
    },
    {
      "anonymous": false,
      "inputs": [
        {
          "indexed": true,
          "internalType": "address",
          "name": "previousOwner",
          "type": "address"
        },
        {
          "indexed": true,
          "internalType": "address",
          "name": "newOwner",
          "type": "address"
        }
      ],
      "name": "OwnershipTransferred",
      "type": "event"
    },
    {
      "anonymous": false,
      "inputs": [
        {
          "indexed": false,
          "internalType": "uint256",
          "name": "projectId",
          "type": "uint256"
        },
        {
          "indexed": false,
          "internalType": "address",
          "name": "_address",
          "type": "address"
        },
        {
          "indexed": false,
          "internalType": "uint256",
          "name": "amount",
          "type": "uint256"
        }
      ],
      "name": "Withdraw",
      "type": "event"
    },
    {
      "anonymous": false,
      "inputs": [
        {
          "indexed": false,
          "internalType": "uint256",
          "name": "projectId",
          "type": "uint256"
        }
      ],
      "name": "WithdrawalPhaseClosed",
      "type": "event"
    },
    {
      "anonymous": false,
      "inputs": [
        {
          "indexed": false,
          "internalType": "uint256",
          "name": "projectId",
          "type": "uint256"
        }
      ],
      "name": "WithdrawalPhaseOpen",
      "type": "event"
    },
    {
      "inputs": [],
      "name": "owner",
      "outputs": [
        {
          "internalType": "address",
          "name": "",
          "type": "address"
        }
      ],
      "stateMutability": "view",
      "type": "function",
      "constant": true
    },
    {
      "inputs": [],
      "name": "renounceOwnership",
      "outputs": [],
      "stateMutability": "nonpayable",
      "type": "function"
    },
    {
      "inputs": [
        {
          "internalType": "address",
          "name": "newOwner",
          "type": "address"
        }
      ],
      "name": "transferOwnership",
      "outputs": [],
      "stateMutability": "nonpayable",
      "type": "function"
    },
    {
      "inputs": [
        {
          "internalType": "uint256",
          "name": "_projectId",
          "type": "uint256"
        }
      ],
      "name": "openFundraisingPhase",
      "outputs": [],
      "stateMutability": "nonpayable",
      "type": "function"
    },
    {
      "inputs": [
        {
          "internalType": "uint256",
          "name": "_projectId",
          "type": "uint256"
        }
      ],
      "name": "closeFundraisingPhase",
      "outputs": [],
      "stateMutability": "nonpayable",
      "type": "function"
    },
    {
      "inputs": [
        {
          "internalType": "uint256",
          "name": "_projectId",
          "type": "uint256"
        }
      ],
      "name": "openWithdrawalPhase",
      "outputs": [],
      "stateMutability": "nonpayable",
      "type": "function"
    },
    {
      "inputs": [
        {
          "internalType": "uint256",
          "name": "_projectId",
          "type": "uint256"
        }
      ],
      "name": "closeWithdrawalPhase",
      "outputs": [],
      "stateMutability": "nonpayable",
      "type": "function"
    },
    {
      "inputs": [
        {
          "internalType": "uint256",
          "name": "_projectId",
          "type": "uint256"
        },
        {
          "internalType": "uint256",
          "name": "_amount",
          "type": "uint256"
        }
      ],
      "name": "contribute",
      "outputs": [],
      "stateMutability": "nonpayable",
      "type": "function"
    },
    {
      "inputs": [
        {
          "internalType": "uint256",
          "name": "_projectId",
          "type": "uint256"
        }
      ],
      "name": "checkFundraisingGoals",
      "outputs": [],
      "stateMutability": "nonpayable",
      "type": "function"
    },
    {
      "inputs": [
        {
          "internalType": "uint256",
          "name": "_projectId",
          "type": "uint256"
        }
      ],
      "name": "withdrawInvestor",
      "outputs": [],
      "stateMutability": "nonpayable",
      "type": "function"
    },
    {
      "inputs": [
        {
          "internalType": "uint256",
          "name": "_projectId",
          "type": "uint256"
        },
        {
          "internalType": "uint256",
          "name": "_amoutToUnlock",
          "type": "uint256"
        }
      ],
      "name": "unlockFunds",
      "outputs": [
        {
          "internalType": "bool",
          "name": "",
          "type": "bool"
        }
      ],
      "stateMutability": "nonpayable",
      "type": "function"
    }
  ],
  "bytecode": "0x60806040523480156200001157600080fd5b5060405162001d3138038062001d318339810160408190526200003491620000de565b6200003f3362000071565b600180546001600160a01b039384166001600160a01b0319918216179091556002805492909316911617905562000116565b600080546001600160a01b038381166001600160a01b0319831681178455604051919092169283917f8be0079c531659141344cd1fd0a4f28419497f9722a3daafe3b4186f6b6457e09190a35050565b80516001600160a01b0381168114620000d957600080fd5b919050565b60008060408385031215620000f257600080fd5b620000fd83620000c1565b91506200010d60208401620000c1565b90509250929050565b611c0b80620001266000396000f3fe608060405234801561001057600080fd5b50600436106100a95760003560e01c80638c590917116100715780638c590917146101045780638da5cb5b14610117578063bc92ffe214610137578063e094c0711461014a578063f2fde38b1461015d578063fc34312e1461017057600080fd5b806326832296146100ae578063499ac07a146100c3578063715018a6146100d657806371d21f4d146100de578063746a0193146100f1575b600080fd5b6100c16100bc3660046119db565b610193565b005b6100c16100d13660046119db565b6103e3565b6100c16107b5565b6100c16100ec3660046119db565b6107c9565b6100c16100ff3660046119db565b6109be565b6100c16101123660046119f4565b610e33565b6000546040516001600160a01b0390911681526020015b60405180910390f35b6100c16101453660046119db565b611371565b6100c16101583660046119db565b611566565b6100c161016b366004611a2b565b61172c565b61018361017e3660046119f4565b6117a5565b604051901515815260200161012e565b61019b611931565b600254604080516316ff5b8760e01b8152905183926001600160a01b0316916316ff5b879160048083019260209291908290030181865afa1580156101e4573d6000803e3d6000fd5b505050506040513d601f19601f820116820180604052508101906102089190611a4f565b8111156102305760405162461bcd60e51b815260040161022790611a68565b60405180910390fd5b6002546040516392d4c4a560e01b81526004818101859052916001600160a01b0316906392d4c4a590602401602060405180830381865afa158015610279573d6000803e3d6000fd5b505050506040513d601f19601f8201168201806040525081019061029d9190611ac2565b60058111156102ae576102ae611a9f565b1461030f5760405162461bcd60e51b815260206004820152602b60248201527f4552524f52203a2050726f6a656374204e6f742056616c69646174656420666f60448201526a722046756e72616973652160a81b6064820152608401610227565b60025460405163ab2b6bab60e01b8152600481018490526000916001600160a01b03169063ab2b6bab90602401602060405180830381865afa158015610359573d6000803e3d6000fd5b505050506040513d601f19601f8201168201806040525081019061037d9190611ac2565b600581111561038e5761038e611a9f565b146103ab5760405162461bcd60e51b815260040161022790611adf565b6040518281527ffdbb85596774be9e82fffdcae856f9bb6a7a7428c867f7ecf4fbcc0d80390710906020015b60405180910390a15050565b6103eb611931565b600254604080516316ff5b8760e01b8152905183926001600160a01b0316916316ff5b879160048083019260209291908290030181865afa158015610434573d6000803e3d6000fd5b505050506040513d601f19601f820116820180604052508101906104589190611a4f565b8111156104775760405162461bcd60e51b815260040161022790611a68565b60025460405163ab2b6bab60e01b8152600481018490526001916001600160a01b03169063ab2b6bab90602401602060405180830381865afa1580156104c1573d6000803e3d6000fd5b505050506040513d601f19601f820116820180604052508101906104e59190611ac2565b60058111156104f6576104f6611a9f565b1461054e5760405162461bcd60e51b815260206004820152602260248201527f46756e6472616973696e67207068617365206e6f7420636c6f73656420796574604482015261202160f01b6064820152608401610227565b60025460405163ab49ed5760e01b8152600481018490526001600160a01b039091169063ab49ed5790602401602060405180830381865afa158015610597573d6000803e3d6000fd5b505050506040513d601f19601f820116820180604052508101906105bb9190611a4f565b600254604051633fc7625960e11b8152600481018590526001600160a01b0390911690637f8ec4b290602401602060405180830381865afa158015610604573d6000803e3d6000fd5b505050506040513d601f19601f820116820180604052508101906106289190611a4f565b1061071f5760028054604051638487877f60e01b81526001600160a01b0390911691638487877f9161065e918691600401611b16565b600060405180830381600087803b15801561067857600080fd5b505af115801561068c573d6000803e3d6000fd5b50506002546040516333f17e1b60e11b8152600481018690526001600160a01b0390911692506367e2fc369150602401600060405180830381600087803b1580156106d657600080fd5b505af11580156106ea573d6000803e3d6000fd5b505050507f6471c31d57a6754b8d945518377f7af5aefb71df9ff52cc94308b41dd627f342826040516103d791815260200190565b600254604051638487877f60e01b81526001600160a01b0390911690638487877f90610752908590600390600401611b16565b600060405180830381600087803b15801561076c57600080fd5b505af1158015610780573d6000803e3d6000fd5b505050507ff9b82d2caaa8e101bae4b5441262540c2610b0a681f6a0d86aea3bb0e9e48e4d826040516103d791815260200190565b6107bd611931565b6107c7600061198b565b565b6107d1611931565b600254604080516316ff5b8760e01b8152905183926001600160a01b0316916316ff5b879160048083019260209291908290030181865afa15801561081a573d6000803e3d6000fd5b505050506040513d601f19601f8201168201806040525081019061083e9190611a4f565b81111561085d5760405162461bcd60e51b815260040161022790611a68565b60025460405163ab2b6bab60e01b8152600481018490526003916001600160a01b03169063ab2b6bab90602401602060405180830381865afa1580156108a7573d6000803e3d6000fd5b505050506040513d601f19601f820116820180604052508101906108cb9190611ac2565b60058111156108dc576108dc611a9f565b146109295760405162461bcd60e51b815260206004820152601e60248201527f46756e6472616973696e67207068617365206e6f74206661696c6564202100006044820152606401610227565b600254604051638487877f60e01b81526001600160a01b0390911690638487877f9061095b9085906004908101611b16565b600060405180830381600087803b15801561097557600080fd5b505af1158015610989573d6000803e3d6000fd5b505050507f4ba5282d1dc50d8e83b8522ebf469accc754cee20211dd9b9474fc170ab917e6826040516103d791815260200190565b600254604080516316ff5b8760e01b8152905183926001600160a01b0316916316ff5b879160048083019260209291908290030181865afa158015610a07573d6000803e3d6000fd5b505050506040513d601f19601f82011682018060405250810190610a2b9190611a4f565b811115610a4a5760405162461bcd60e51b815260040161022790611a68565b60025460405163078de2d760e21b8152600481018490526001600160a01b0390911690631e378b5c90602401602060405180830381865afa158015610a93573d6000803e3d6000fd5b505050506040513d601f19601f82011682018060405250810190610ab79190611a4f565b4211610b105760405162461bcd60e51b815260206004820152602260248201527f46756e647320636f6c6c656374696e67206973206e6f7420636c6f7365642079604482015261195d60f21b6064820152608401610227565b60025460405163557e496b60e11b8152600481018490523360248201526000916001600160a01b03169063aafc92d690604401602060405180830381865afa158015610b60573d6000803e3d6000fd5b505050506040513d601f19601f82011682018060405250810190610b849190611a4f565b11610be95760405162461bcd60e51b815260206004820152602f60248201527f596f752068617665206e6576657220636f6e7472696275746564204f7220416c60448201526e3932b0b23c902bb4ba34323930bbb760891b6064820152608401610227565b60025460405163557e496b60e11b8152600481018490523360248201526000916001600160a01b03169063aafc92d690604401602060405180830381865afa158015610c39573d6000803e3d6000fd5b505050506040513d601f19601f82011682018060405250810190610c5d9190611a4f565b60015460405163a9059cbb60e01b8152336004820152602481018390529192506000916001600160a01b039091169063a9059cbb906044016020604051808303816000875af1158015610cb4573d6000803e3d6000fd5b505050506040513d601f19601f82011682018060405250810190610cd89190611b48565b905080610d1c5760405162461bcd60e51b8152602060048201526012602482015271151c985b9cd9995c881a5cc819985a5b195960721b6044820152606401610227565b60025460405163c04c15c760e01b815260048101869052336024820152600060448201526001600160a01b039091169063c04c15c790606401600060405180830381600087803b158015610d6f57600080fd5b505af1158015610d83573d6000803e3d6000fd5b5050600254604051633c9fd89760e01b815260048101889052602481018690526001600160a01b039091169250633c9fd8979150604401600060405180830381600087803b158015610dd457600080fd5b505af1158015610de8573d6000803e3d6000fd5b5050604080518781523360208201529081018590527f9da6493a92039daf47d1f2d7a782299c5994c6323eb1e972f69c432089ec52bf9250606001905060405180910390a150505050565b600254604080516316ff5b8760e01b8152905184926001600160a01b0316916316ff5b879160048083019260209291908290030181865afa158015610e7c573d6000803e3d6000fd5b505050506040513d601f19601f82011682018060405250810190610ea09190611a4f565b811115610ebf5760405162461bcd60e51b815260040161022790611a68565b60025460405163ab2b6bab60e01b8152600481018590526000916001600160a01b03169063ab2b6bab90602401602060405180830381865afa158015610f09573d6000803e3d6000fd5b505050506040513d601f19601f82011682018060405250810190610f2d9190611ac2565b6005811115610f3e57610f3e611a9f565b14610f5b5760405162461bcd60e51b815260040161022790611adf565b60025460405163078de2d760e21b8152600481018590526001600160a01b0390911690631e378b5c90602401602060405180830381865afa158015610fa4573d6000803e3d6000fd5b505050506040513d601f19601f82011682018060405250810190610fc89190611a4f565b4211156110175760405162461bcd60e51b815260206004820181905260248201527f46756e64726169736520446561646c696e652069732066696e697368656420216044820152606401610227565b600254604051632a51119f60e01b8152600481018590526001600160a01b0390911690632a51119f90602401602060405180830381865afa158015611060573d6000803e3d6000fd5b505050506040513d601f19601f820116820180604052508101906110849190611a4f565b8210156040518060400160405280601c81526020017f4d696e696d756d20616d6f756e74206e6f742072657370656374656400000000815250906110db5760405162461bcd60e51b81526004016102279190611b6a565b50600154604051636eb1769f60e11b81523360048201523060248201526000916001600160a01b03169063dd62ed3e90604401602060405180830381865afa15801561112b573d6000803e3d6000fd5b505050506040513d601f19601f8201168201806040525081019061114f9190611a4f565b9050828110156111985760405162461bcd60e51b8152602060048201526014602482015273030b63637bbb0b731b29034b9903737ba1037b5960651b6044820152606401610227565b6001546040516323b872dd60e01b8152336004820152306024820152604481018590526000916001600160a01b0316906323b872dd906064016020604051808303816000875af11580156111f0573d6000803e3d6000fd5b505050506040513d601f19601f820116820180604052508101906112149190611b48565b9050806112595760405162461bcd60e51b81526020600482015260136024820152721d1c985b9cd9995c919c9bdb4811985a5b1959606a1b6044820152606401610227565b600254604051638778c1e560e01b815260048101879052336024820152604481018690526001600160a01b0390911690638778c1e590606401600060405180830381600087803b1580156112ac57600080fd5b505af11580156112c0573d6000803e3d6000fd5b50506002546040516331c30b5360e11b815260048101899052602481018890526001600160a01b03909116925063638616a69150604401600060405180830381600087803b15801561131157600080fd5b505af1158015611325573d6000803e3d6000fd5b5050604080518881523360208201529081018790527fae8785da7bae7df1ae7a3d1838c261e59d1c7294715e21a2d56b9968650a73f49250606001905060405180910390a15050505050565b611379611931565b600254604080516316ff5b8760e01b8152905183926001600160a01b0316916316ff5b879160048083019260209291908290030181865afa1580156113c2573d6000803e3d6000fd5b505050506040513d601f19601f820116820180604052508101906113e69190611a4f565b8111156114055760405162461bcd60e51b815260040161022790611a68565b60025460405163ab2b6bab60e01b81526004818101859052916001600160a01b03169063ab2b6bab90602401602060405180830381865afa15801561144e573d6000803e3d6000fd5b505050506040513d601f19601f820116820180604052508101906114729190611ac2565b600581111561148357611483611a9f565b146114d05760405162461bcd60e51b815260206004820152601b60248201527f5769746864726177616c207068617365206e6f74206f70656e202100000000006044820152606401610227565b600254604051638487877f60e01b81526001600160a01b0390911690638487877f90611503908590600590600401611b16565b600060405180830381600087803b15801561151d57600080fd5b505af1158015611531573d6000803e3d6000fd5b505050507f12c52356ec8b83d8b0b45e523d1bd9538f772d9de08266e3df81faac7ea388bd826040516103d791815260200190565b61156e611931565b600254604080516316ff5b8760e01b8152905183926001600160a01b0316916316ff5b879160048083019260209291908290030181865afa1580156115b7573d6000803e3d6000fd5b505050506040513d601f19601f820116820180604052508101906115db9190611a4f565b8111156115fa5760405162461bcd60e51b815260040161022790611a68565b60025460405163ab2b6bab60e01b8152600481018490526000916001600160a01b03169063ab2b6bab90602401602060405180830381865afa158015611644573d6000803e3d6000fd5b505050506040513d601f19601f820116820180604052508101906116689190611ac2565b600581111561167957611679611a9f565b146116965760405162461bcd60e51b815260040161022790611adf565b600254604051638487877f60e01b81526001600160a01b0390911690638487877f906116c9908590600190600401611b16565b600060405180830381600087803b1580156116e357600080fd5b505af11580156116f7573d6000803e3d6000fd5b505050507fc67af8af2e9c1da2b00b322959da5817a75bc40e8d9d2ae8af48944f757f97b6826040516103d791815260200190565b611734611931565b6001600160a01b0381166117995760405162461bcd60e51b815260206004820152602660248201527f4f776e61626c653a206e6577206f776e657220697320746865207a65726f206160448201526564647265737360d01b6064820152608401610227565b6117a28161198b565b50565b60006117af611931565b600254604080516316ff5b8760e01b8152905185926001600160a01b0316916316ff5b879160048083019260209291908290030181865afa1580156117f8573d6000803e3d6000fd5b505050506040513d601f19601f8201168201806040525081019061181c9190611a4f565b81111561183b5760405162461bcd60e51b815260040161022790611a68565b6001546002546040516324895abb60e21b8152600481018790526000926001600160a01b039081169263a9059cbb929116906392256aec90602401602060405180830381865afa158015611893573d6000803e3d6000fd5b505050506040513d601f19601f820116820180604052508101906118b79190611bb8565b6040516001600160e01b031960e084901b1681526001600160a01b039091166004820152602481018790526044016020604051808303816000875af1158015611904573d6000803e3d6000fd5b505050506040513d601f19601f820116820180604052508101906119289190611b48565b95945050505050565b6000546001600160a01b031633146107c75760405162461bcd60e51b815260206004820181905260248201527f4f776e61626c653a2063616c6c6572206973206e6f7420746865206f776e65726044820152606401610227565b600080546001600160a01b038381166001600160a01b0319831681178455604051919092169283917f8be0079c531659141344cd1fd0a4f28419497f9722a3daafe3b4186f6b6457e09190a35050565b6000602082840312156119ed57600080fd5b5035919050565b60008060408385031215611a0757600080fd5b50508035926020909101359150565b6001600160a01b03811681146117a257600080fd5b600060208284031215611a3d57600080fd5b8135611a4881611a16565b9392505050565b600060208284031215611a6157600080fd5b5051919050565b60208082526019908201527f4552524f52203a20496e76616c69642050726f6a656374494400000000000000604082015260600190565b634e487b7160e01b600052602160045260246000fd5b600681106117a257600080fd5b600060208284031215611ad457600080fd5b8151611a4881611ab5565b6020808252601c908201527f46756e6472616973696e67207068617365206e6f74206f70656e202100000000604082015260600190565b8281526040810160068310611b3b57634e487b7160e01b600052602160045260246000fd5b8260208301529392505050565b600060208284031215611b5a57600080fd5b81518015158114611a4857600080fd5b600060208083528351808285015260005b81811015611b9757858101830151858201604001528201611b7b565b506000604082860101526040601f19601f8301168501019250505092915050565b600060208284031215611bca57600080fd5b8151611a4881611a1656fea26469706673582212207b8f1027e7408bb57365028a4db4cfc2897ddfbb2ef27f93e13c092ea1bedbf864736f6c63430008130033",
  "immutableReferences": {},
  "source": "// SPDX-License-Identifier: MIT\n\npragma solidity 0.8.19;\nimport \"../node_modules/@openzeppelin/contracts/access/Ownable.sol\";\nimport \"../node_modules/@openzeppelin/contracts/token/ERC20/IERC20.sol\";\n\nimport \"./ProjectInfo.sol\";\n\ncontract FundraisingProject is Ownable {\n\n    // Events - Begin = \n    //event NewProject(uint projectId);\n    event FundraisingPhaseOpen(uint _projectId);\n    event FundraisingPhaseClosed(uint projectId);\n    event FundraisingSuccessful(uint projectId);\n    event FundraisingFailed(uint projectId);\n    event WithdrawalPhaseOpen(uint projectId);\n    event WithdrawalPhaseClosed(uint projectId);\n    event Contribute(uint projectId, address investor, uint amount);\n    event Withdraw(uint projectId, address _address, uint amount);\n    // Events - End \n\n \n    IERC20 usdtToken; \n    ProjectInfo projectInfoContract;\n\n    constructor(address _usdtAddress, address _projectInfoContractAddress) {   \n        // address _tokenAddress in USDT          \n        //address token_USDT_Polygon_address = 0xA02f6adc7926efeBBd59Fd43A84f4E0c0c91e832;\n        usdtToken = IERC20(_usdtAddress);\n        projectInfoContract = ProjectInfo(_projectInfoContractAddress);\n\n    }\n    modifier isValidProjId(uint _projectId) {\n        require(_projectId <= projectInfoContract.getNumProjects(), \"ERROR : Invalid ProjectID\");\n        _;\n    }\n    function openFundraisingPhase(uint _projectId) external onlyOwner isValidProjId(_projectId) {\n        require(projectInfoContract.getVoteValidationStatus(_projectId) == ProjectInfo.VoteValidationStatus.ProjectAccepted, \"ERROR : Project Not Validated for Funraise!\");\n        require(projectInfoContract.getFundraisingStatus(_projectId) == ProjectInfo.FundraisingStatus.FundraisingPhaseOpen, \"Fundraising phase not open !\");\n        emit FundraisingPhaseOpen(_projectId);\n    }\n\n    function closeFundraisingPhase(uint _projectId) external onlyOwner isValidProjId(_projectId) {\n        require(projectInfoContract.getFundraisingStatus(_projectId) == ProjectInfo.FundraisingStatus.FundraisingPhaseOpen, \"Fundraising phase not open !\");\n        projectInfoContract.setFundraisingStatus(_projectId, ProjectInfo.FundraisingStatus.FundraisingPhaseClosed);     \n        emit FundraisingPhaseClosed(_projectId);\n    }\n\n    function openWithdrawalPhase(uint _projectId) external onlyOwner isValidProjId(_projectId)\n    {\n        require(projectInfoContract.getFundraisingStatus(_projectId) == ProjectInfo.FundraisingStatus.FundraisingFailed, \"Fundraising phase not failed !\");\n        projectInfoContract.setFundraisingStatus(_projectId, ProjectInfo.FundraisingStatus.WithdrawalPhaseOpen);\n        emit WithdrawalPhaseOpen(_projectId);\n    }\n\n    function closeWithdrawalPhase(uint _projectId) external onlyOwner isValidProjId(_projectId)\n    {\n        require(projectInfoContract.getFundraisingStatus(_projectId) == ProjectInfo.FundraisingStatus.WithdrawalPhaseOpen, \"Withdrawal phase not open !\");\n        projectInfoContract.setFundraisingStatus(_projectId, ProjectInfo.FundraisingStatus.WithdrawalPhaseClosed);\n        emit WithdrawalPhaseClosed(_projectId);\n    }\n\n    function contribute(uint _projectId, uint _amount) external isValidProjId(_projectId) {\n        require(projectInfoContract.getFundraisingStatus(_projectId) == ProjectInfo.FundraisingStatus.FundraisingPhaseOpen, \"Fundraising phase not open !\"); \n        require(block.timestamp <= projectInfoContract.getFundraisingDeadline(_projectId), \"Fundraise Deadline is finished !\");\n        require(_amount >= projectInfoContract.getMinContributionPerInvestor(_projectId), string(\"Minimum amount not respected\"));\n        \n        uint allowance = usdtToken.allowance(msg.sender, address(this)); \n        require(allowance >= _amount, \"allowance is not ok \");\n    \n        bool success = usdtToken.transferFrom(msg.sender, address(this), _amount);\n        require(success, \"transferFrom Failed\");\n        \n        projectInfoContract.incrementContributions(_projectId, msg.sender, _amount);\n        projectInfoContract.incrementTotalRaised(_projectId, _amount);\n        emit Contribute(_projectId, msg.sender, _amount);\n    }\n\n    function checkFundraisingGoals(uint _projectId) external onlyOwner isValidProjId(_projectId) \n    {\n        require(projectInfoContract.getFundraisingStatus(_projectId) == ProjectInfo.FundraisingStatus.FundraisingPhaseClosed, \"Fundraising phase not closed yet !\");\n        if(projectInfoContract.getGoalAmount(_projectId) >= projectInfoContract.getTotalRaised(_projectId))\n        {\n            projectInfoContract.setFundraisingStatus(_projectId, ProjectInfo.FundraisingStatus.FundraisingSuccessful);\n            projectInfoContract.calculatePercentageContribs(_projectId);\n            emit FundraisingSuccessful(_projectId);\n        }\n        else {\n            projectInfoContract.setFundraisingStatus(_projectId, ProjectInfo.FundraisingStatus.FundraisingFailed);\n            emit FundraisingFailed(_projectId);\n        }\n    }\n\n    function withdrawInvestor(uint _projectId) external isValidProjId(_projectId) \n    {\n        // // Stack too deep\n        require(block.timestamp > projectInfoContract.getFundraisingDeadline(_projectId), \"Funds collecting is not closed yet\");\n\n        require(projectInfoContract.getContributions(_projectId,msg.sender) >0 , \"You have never contributed Or Already Withdrawn\");\n\n        uint invested_amount = projectInfoContract.getContributions(_projectId, msg.sender) ;\n        \n        bool success = usdtToken.transfer(msg.sender, invested_amount);\n        require(success, \"Transfer is failed\");\n        \n        projectInfoContract.setContributions(_projectId, msg.sender, 0); \n        projectInfoContract.decrementTotalRaised(_projectId, invested_amount);\n\n        emit Withdraw(_projectId, msg.sender,  invested_amount);\n    }\n\n    function unlockFunds(uint _projectId, uint256 _amoutToUnlock) external onlyOwner isValidProjId(_projectId)  returns(bool)\n    {\n        bool isSuccess = usdtToken.transfer(projectInfoContract.getProjectOwner(_projectId), _amoutToUnlock);\n        //require(success, \"transfer to projectOwner Failed\");\n        return isSuccess;\n\n    }\n}\n\n\n\n            // IERC20 usdt = IERC20(usdtContractAddress);\n            // usdt.transfer(projectOwner, fundsToRelease);\n// _tokenAddress of USDT  0xA02f6adc7926efeBBd59Fd43A84f4E0c0c91e832  (Polygon Blockchain - Mumbai Netowrk)\n// source : https://mumbai.polygonscan.com/token/0xa02f6adc7926efebbd59fd43a84f4e0c0c91e832?a=0xe84d601e5d945031129a83e5602be0cc7f182cf3\n\n\n\n    // // TODO retravailler code \n    // function unlockFunds(uint _projectId) external onlyOwner isValidProjId(_projectId)  \n    // {\n    //     // require vote validated release funds : will be done by caller : VoteUnlockFunds.sol\n    //     uint currentPhase = projectInfoContract.getProjectCurrentPhase(_projectId); \n    //     require( currentPhase < projectInfoContract.getProjectTotalPhases(_projectId),\n    //              \"All phases have already been released\");\n\n    //     // Check if previous phase has been released\n    //     if (currentPhase > 0) {\n    //         require(projectInfoContract.getProjectPhaseInfo(_projectId, currentPhase - 1).isUnlockExecuted, \n    //                 \"Previous phase has not been released ! \");\n    //     }\n\n    //     // Calculate funds to release\n    //     if( projectInfoContract.getPhaseUnlockAccepted(_projectId, currentPhase))\n    //     {\n    //         uint fundsToRelease = projectInfoContract.getProjectPhaseInfo(_projectId, currentPhase).amountToUnlock;\n    //         projectInfoContract.setPhaseUnlockExecuted(_projectId, currentPhase, true);\n    //         projectInfoContract.incrementTotalUnlocked(_projectId, fundsToRelease);\n    //         projectInfoContract.decrementRemainingFunds(_projectId, fundsToRelease);\n\n    //         projectInfoContract.incrementProjectCurrentPhase(_projectId);\n\n    //         //Transfer USDT to project owner\n    //         usdtToken.transfer(projectInfoContract.getProjectOwner(_projectId), fundsToRelease);\n    //     }\n    // }\n\n\n\n        // TODO : may be not needed - to remove \n        // Check if enough votes were cast in previous phase\n        // if (currentPhase > 0 && phaseVotes[currentPhase - 1] > 0) {\n        //     Voting votingContract = Voting(); // TODO votingContractAddress\n        //     uint yesVotes = votingContract.getYesVotes(phaseVotes[currentPhase - 1]);\n        //     uint noVotes = votingContract.getNoVotes(phaseVotes[currentPhase - 1]);\n        //     require(yesVotes > noVotes, \"Not enough yes votes to release funds\");\n        // }\n\n     ",
  "sourcePath": "/Users/ilham_elbouloumi/Documents/WorkSpace_Blockchain_VSC/CommonSeedDAO/truffle/contracts/FundraisingProject.sol",
  "compiler": {
    "name": "solc",
    "version": "0.8.19+commit.7dd6d404.Emscripten.clang"
  },
  "schemaVersion": "3.4.12",
  "updatedAt": "2023-04-07T22:12:48.548Z",
  "networkType": "ethereum",
  "devdoc": {
    "kind": "dev",
    "methods": {
      "owner()": {
        "details": "Returns the address of the current owner."
      },
      "renounceOwnership()": {
        "details": "Leaves the contract without owner. It will not be possible to call `onlyOwner` functions anymore. Can only be called by the current owner. NOTE: Renouncing ownership will leave the contract without an owner, thereby removing any functionality that is only available to the owner."
      },
      "transferOwnership(address)": {
        "details": "Transfers ownership of the contract to a new account (`newOwner`). Can only be called by the current owner."
      }
    },
    "version": 1
  },
  "userdoc": {
    "kind": "user",
    "methods": {},
    "version": 1
  }
}