{
  "contractName": "ProjectInfo",
  "abi": [
    {
      "anonymous": false,
      "inputs": [
        {
          "indexed": true,
          "internalType": "address",
          "name": "previousOwner",
          "type": "address"
        },
        {
          "indexed": true,
          "internalType": "address",
          "name": "newOwner",
          "type": "address"
        }
      ],
      "name": "OwnershipTransferred",
      "type": "event"
    },
    {
      "inputs": [],
      "name": "owner",
      "outputs": [
        {
          "internalType": "address",
          "name": "",
          "type": "address"
        }
      ],
      "stateMutability": "view",
      "type": "function",
      "constant": true
    },
    {
      "inputs": [
        {
          "internalType": "uint256",
          "name": "",
          "type": "uint256"
        }
      ],
      "name": "projectsGI",
      "outputs": [
        {
          "internalType": "address",
          "name": "projectOwner",
          "type": "address"
        },
        {
          "internalType": "string",
          "name": "projectTitle",
          "type": "string"
        },
        {
          "internalType": "uint256",
          "name": "goalAmount",
          "type": "uint256"
        },
        {
          "internalType": "uint256",
          "name": "currentPhase",
          "type": "uint256"
        },
        {
          "internalType": "uint256",
          "name": "totalPhases",
          "type": "uint256"
        },
        {
          "internalType": "uint256",
          "name": "fundraisingDeadline",
          "type": "uint256"
        },
        {
          "internalType": "uint256",
          "name": "minContributionPerInvestor",
          "type": "uint256"
        },
        {
          "internalType": "string",
          "name": "whitepaperLink",
          "type": "string"
        }
      ],
      "stateMutability": "view",
      "type": "function",
      "constant": true
    },
    {
      "inputs": [
        {
          "internalType": "uint256",
          "name": "",
          "type": "uint256"
        }
      ],
      "name": "projectsPI",
      "outputs": [
        {
          "internalType": "bool",
          "name": "isValidated",
          "type": "bool"
        },
        {
          "internalType": "uint256",
          "name": "totalRaised",
          "type": "uint256"
        },
        {
          "internalType": "uint256",
          "name": "totalUnlocked",
          "type": "uint256"
        },
        {
          "internalType": "uint256",
          "name": "remainingFunds",
          "type": "uint256"
        },
        {
          "internalType": "enum ProjectInfo.VoteValidationStatus",
          "name": "voteValidationStatus",
          "type": "uint8"
        },
        {
          "internalType": "enum ProjectInfo.FundraisingStatus",
          "name": "fundraisingStatus",
          "type": "uint8"
        },
        {
          "internalType": "uint256",
          "name": "numberOfInvestors",
          "type": "uint256"
        }
      ],
      "stateMutability": "view",
      "type": "function",
      "constant": true
    },
    {
      "inputs": [],
      "name": "renounceOwnership",
      "outputs": [],
      "stateMutability": "nonpayable",
      "type": "function"
    },
    {
      "inputs": [
        {
          "internalType": "address",
          "name": "newOwner",
          "type": "address"
        }
      ],
      "name": "transferOwnership",
      "outputs": [],
      "stateMutability": "nonpayable",
      "type": "function"
    },
    {
      "inputs": [
        {
          "internalType": "uint256",
          "name": "_projectId",
          "type": "uint256"
        }
      ],
      "name": "getProjectOwner",
      "outputs": [
        {
          "internalType": "address",
          "name": "",
          "type": "address"
        }
      ],
      "stateMutability": "view",
      "type": "function",
      "constant": true
    },
    {
      "inputs": [
        {
          "internalType": "address",
          "name": "_projectOwner",
          "type": "address"
        },
        {
          "internalType": "string",
          "name": "_projectTitle",
          "type": "string"
        },
        {
          "internalType": "uint256",
          "name": "_goalAmount",
          "type": "uint256"
        },
        {
          "internalType": "uint256",
          "name": "_totalPhases",
          "type": "uint256"
        },
        {
          "internalType": "uint256",
          "name": "_fundraisingDeadline",
          "type": "uint256"
        },
        {
          "internalType": "uint256",
          "name": "_minContribution",
          "type": "uint256"
        }
      ],
      "name": "addProject",
      "outputs": [],
      "stateMutability": "nonpayable",
      "type": "function"
    },
    {
      "inputs": [
        {
          "internalType": "string",
          "name": "_projectTitle",
          "type": "string"
        }
      ],
      "name": "getProjectIndexByTitle_2",
      "outputs": [
        {
          "internalType": "uint256",
          "name": "",
          "type": "uint256"
        }
      ],
      "stateMutability": "view",
      "type": "function",
      "constant": true
    },
    {
      "inputs": [],
      "name": "getLastProjectId",
      "outputs": [
        {
          "internalType": "uint256",
          "name": "",
          "type": "uint256"
        }
      ],
      "stateMutability": "view",
      "type": "function",
      "constant": true
    },
    {
      "inputs": [
        {
          "internalType": "uint256",
          "name": "_projectId",
          "type": "uint256"
        }
      ],
      "name": "getProjectCurrentPhase",
      "outputs": [
        {
          "internalType": "uint256",
          "name": "",
          "type": "uint256"
        }
      ],
      "stateMutability": "view",
      "type": "function",
      "constant": true
    },
    {
      "inputs": [
        {
          "internalType": "uint256",
          "name": "_projectId",
          "type": "uint256"
        }
      ],
      "name": "incrementProjectCurrentPhase",
      "outputs": [],
      "stateMutability": "nonpayable",
      "type": "function"
    },
    {
      "inputs": [
        {
          "internalType": "uint256",
          "name": "_projectId",
          "type": "uint256"
        },
        {
          "internalType": "uint256",
          "name": "_phaseId",
          "type": "uint256"
        }
      ],
      "name": "getProjectPhaseInfo",
      "outputs": [
        {
          "components": [
            {
              "internalType": "bool",
              "name": "isUnlockSubmittedToVote",
              "type": "bool"
            },
            {
              "internalType": "bool",
              "name": "isUnlockAccepted",
              "type": "bool"
            },
            {
              "internalType": "bool",
              "name": "isUnlockExecuted",
              "type": "bool"
            },
            {
              "internalType": "uint256",
              "name": "amountToUnlock",
              "type": "uint256"
            },
            {
              "internalType": "enum ProjectInfo.VoteUnlockStatus",
              "name": "voteUnlockStatus",
              "type": "uint8"
            }
          ],
          "internalType": "struct ProjectInfo.PhaseInfo",
          "name": "",
          "type": "tuple"
        }
      ],
      "stateMutability": "view",
      "type": "function",
      "constant": true
    },
    {
      "inputs": [
        {
          "internalType": "uint256",
          "name": "_projectId",
          "type": "uint256"
        },
        {
          "internalType": "uint256",
          "name": "_phaseId",
          "type": "uint256"
        }
      ],
      "name": "getUnlockSubmittedToVote",
      "outputs": [
        {
          "internalType": "bool",
          "name": "",
          "type": "bool"
        }
      ],
      "stateMutability": "view",
      "type": "function",
      "constant": true
    },
    {
      "inputs": [
        {
          "internalType": "uint256",
          "name": "_projectId",
          "type": "uint256"
        },
        {
          "internalType": "uint256",
          "name": "_phaseId",
          "type": "uint256"
        },
        {
          "internalType": "bool",
          "name": "_decision",
          "type": "bool"
        }
      ],
      "name": "setUnlockSubmittedToVote",
      "outputs": [],
      "stateMutability": "nonpayable",
      "type": "function"
    },
    {
      "inputs": [
        {
          "internalType": "uint256",
          "name": "_projectId",
          "type": "uint256"
        },
        {
          "internalType": "uint256",
          "name": "_phaseId",
          "type": "uint256"
        }
      ],
      "name": "getPhaseUnlockAccepted",
      "outputs": [
        {
          "internalType": "bool",
          "name": "",
          "type": "bool"
        }
      ],
      "stateMutability": "view",
      "type": "function",
      "constant": true
    },
    {
      "inputs": [
        {
          "internalType": "uint256",
          "name": "_projectId",
          "type": "uint256"
        },
        {
          "internalType": "uint256",
          "name": "_phaseId",
          "type": "uint256"
        },
        {
          "internalType": "bool",
          "name": "_decision",
          "type": "bool"
        }
      ],
      "name": "setPhaseUnlockAccepted",
      "outputs": [],
      "stateMutability": "nonpayable",
      "type": "function"
    },
    {
      "inputs": [
        {
          "internalType": "uint256",
          "name": "_projectId",
          "type": "uint256"
        },
        {
          "internalType": "uint256",
          "name": "_phaseId",
          "type": "uint256"
        }
      ],
      "name": "getPhaseUnlockExecuted",
      "outputs": [
        {
          "internalType": "bool",
          "name": "",
          "type": "bool"
        }
      ],
      "stateMutability": "view",
      "type": "function",
      "constant": true
    },
    {
      "inputs": [
        {
          "internalType": "uint256",
          "name": "_projectId",
          "type": "uint256"
        },
        {
          "internalType": "uint256",
          "name": "_phaseId",
          "type": "uint256"
        },
        {
          "internalType": "bool",
          "name": "_decision",
          "type": "bool"
        }
      ],
      "name": "setPhaseUnlockExecuted",
      "outputs": [],
      "stateMutability": "nonpayable",
      "type": "function"
    },
    {
      "inputs": [
        {
          "internalType": "uint256",
          "name": "_projectId",
          "type": "uint256"
        },
        {
          "internalType": "uint256",
          "name": "_phaseId",
          "type": "uint256"
        }
      ],
      "name": "getPhaseAmoutToUnlock",
      "outputs": [
        {
          "internalType": "uint256",
          "name": "",
          "type": "uint256"
        }
      ],
      "stateMutability": "view",
      "type": "function",
      "constant": true
    },
    {
      "inputs": [
        {
          "internalType": "uint256",
          "name": "_projectId",
          "type": "uint256"
        },
        {
          "internalType": "uint256",
          "name": "_phaseId",
          "type": "uint256"
        },
        {
          "internalType": "uint256",
          "name": "_amount",
          "type": "uint256"
        }
      ],
      "name": "setPhaseAmoutToUnlock",
      "outputs": [],
      "stateMutability": "nonpayable",
      "type": "function"
    },
    {
      "inputs": [
        {
          "internalType": "uint256",
          "name": "_projectId",
          "type": "uint256"
        }
      ],
      "name": "getProjectTotalPhases",
      "outputs": [
        {
          "internalType": "uint256",
          "name": "",
          "type": "uint256"
        }
      ],
      "stateMutability": "view",
      "type": "function",
      "constant": true
    },
    {
      "inputs": [],
      "name": "getNumProjects",
      "outputs": [
        {
          "internalType": "uint256",
          "name": "",
          "type": "uint256"
        }
      ],
      "stateMutability": "view",
      "type": "function",
      "constant": true
    },
    {
      "inputs": [
        {
          "internalType": "uint256",
          "name": "_projectId",
          "type": "uint256"
        }
      ],
      "name": "getVoteValidationStatus",
      "outputs": [
        {
          "internalType": "enum ProjectInfo.VoteValidationStatus",
          "name": "",
          "type": "uint8"
        }
      ],
      "stateMutability": "view",
      "type": "function",
      "constant": true
    },
    {
      "inputs": [
        {
          "internalType": "uint256",
          "name": "_projectId",
          "type": "uint256"
        },
        {
          "internalType": "enum ProjectInfo.VoteValidationStatus",
          "name": "_newStatus",
          "type": "uint8"
        }
      ],
      "name": "setVoteValidationStatus",
      "outputs": [],
      "stateMutability": "nonpayable",
      "type": "function"
    },
    {
      "inputs": [
        {
          "internalType": "uint256",
          "name": "_projectId",
          "type": "uint256"
        },
        {
          "internalType": "uint256",
          "name": "_phase",
          "type": "uint256"
        }
      ],
      "name": "getVoteUnlockStatus",
      "outputs": [
        {
          "internalType": "enum ProjectInfo.VoteUnlockStatus",
          "name": "",
          "type": "uint8"
        }
      ],
      "stateMutability": "view",
      "type": "function",
      "constant": true
    },
    {
      "inputs": [
        {
          "internalType": "uint256",
          "name": "_projectId",
          "type": "uint256"
        },
        {
          "internalType": "uint256",
          "name": "_phase",
          "type": "uint256"
        },
        {
          "internalType": "enum ProjectInfo.VoteUnlockStatus",
          "name": "_newStatus",
          "type": "uint8"
        }
      ],
      "name": "setVoteUnlockStatus",
      "outputs": [],
      "stateMutability": "nonpayable",
      "type": "function"
    },
    {
      "inputs": [
        {
          "internalType": "uint256",
          "name": "_projectId",
          "type": "uint256"
        }
      ],
      "name": "getTotalRaised",
      "outputs": [
        {
          "internalType": "uint256",
          "name": "",
          "type": "uint256"
        }
      ],
      "stateMutability": "view",
      "type": "function",
      "constant": true
    },
    {
      "inputs": [
        {
          "internalType": "uint256",
          "name": "_projectId",
          "type": "uint256"
        },
        {
          "internalType": "uint256",
          "name": "_amount",
          "type": "uint256"
        }
      ],
      "name": "incrementTotalRaised",
      "outputs": [],
      "stateMutability": "nonpayable",
      "type": "function"
    },
    {
      "inputs": [
        {
          "internalType": "uint256",
          "name": "_projectId",
          "type": "uint256"
        },
        {
          "internalType": "uint256",
          "name": "_amount",
          "type": "uint256"
        }
      ],
      "name": "decrementTotalRaised",
      "outputs": [],
      "stateMutability": "nonpayable",
      "type": "function"
    },
    {
      "inputs": [
        {
          "internalType": "uint256",
          "name": "_projectId",
          "type": "uint256"
        },
        {
          "internalType": "address",
          "name": "_addr",
          "type": "address"
        }
      ],
      "name": "getContributions",
      "outputs": [
        {
          "internalType": "uint256",
          "name": "",
          "type": "uint256"
        }
      ],
      "stateMutability": "view",
      "type": "function",
      "constant": true
    },
    {
      "inputs": [
        {
          "internalType": "uint256",
          "name": "_projectId",
          "type": "uint256"
        },
        {
          "internalType": "address",
          "name": "_addr",
          "type": "address"
        },
        {
          "internalType": "uint256",
          "name": "_amount",
          "type": "uint256"
        }
      ],
      "name": "incrementContributions",
      "outputs": [],
      "stateMutability": "nonpayable",
      "type": "function"
    },
    {
      "inputs": [
        {
          "internalType": "uint256",
          "name": "_projectId",
          "type": "uint256"
        }
      ],
      "name": "getNumInvestors",
      "outputs": [
        {
          "internalType": "uint256",
          "name": "",
          "type": "uint256"
        }
      ],
      "stateMutability": "view",
      "type": "function",
      "constant": true
    },
    {
      "inputs": [
        {
          "internalType": "uint256",
          "name": "_projectId",
          "type": "uint256"
        }
      ],
      "name": "incrementNumInvestors",
      "outputs": [],
      "stateMutability": "nonpayable",
      "type": "function"
    },
    {
      "inputs": [
        {
          "internalType": "uint256",
          "name": "_projectId",
          "type": "uint256"
        }
      ],
      "name": "decrementNumInvestors",
      "outputs": [],
      "stateMutability": "nonpayable",
      "type": "function"
    },
    {
      "inputs": [
        {
          "internalType": "uint256",
          "name": "_projectId",
          "type": "uint256"
        },
        {
          "internalType": "address",
          "name": "_investor",
          "type": "address"
        }
      ],
      "name": "hasContributed",
      "outputs": [
        {
          "internalType": "bool",
          "name": "",
          "type": "bool"
        }
      ],
      "stateMutability": "view",
      "type": "function",
      "constant": true
    },
    {
      "inputs": [
        {
          "internalType": "uint256",
          "name": "_projectId",
          "type": "uint256"
        },
        {
          "internalType": "address",
          "name": "_addr",
          "type": "address"
        },
        {
          "internalType": "uint256",
          "name": "_amount",
          "type": "uint256"
        }
      ],
      "name": "setContributions",
      "outputs": [],
      "stateMutability": "nonpayable",
      "type": "function"
    },
    {
      "inputs": [
        {
          "internalType": "uint256",
          "name": "_projectId",
          "type": "uint256"
        },
        {
          "internalType": "uint256",
          "name": "index",
          "type": "uint256"
        }
      ],
      "name": "getContributor",
      "outputs": [
        {
          "internalType": "address",
          "name": "",
          "type": "address"
        }
      ],
      "stateMutability": "view",
      "type": "function",
      "constant": true
    },
    {
      "inputs": [
        {
          "internalType": "uint256",
          "name": "_projectId",
          "type": "uint256"
        }
      ],
      "name": "calculatePercentageContribs",
      "outputs": [],
      "stateMutability": "nonpayable",
      "type": "function"
    },
    {
      "inputs": [
        {
          "internalType": "uint256",
          "name": "_projectId",
          "type": "uint256"
        },
        {
          "internalType": "address",
          "name": "_addr",
          "type": "address"
        }
      ],
      "name": "getVoteWeight",
      "outputs": [
        {
          "internalType": "uint256",
          "name": "",
          "type": "uint256"
        }
      ],
      "stateMutability": "view",
      "type": "function",
      "constant": true
    },
    {
      "inputs": [
        {
          "internalType": "uint256",
          "name": "_projectId",
          "type": "uint256"
        }
      ],
      "name": "getGoalAmount",
      "outputs": [
        {
          "internalType": "uint256",
          "name": "",
          "type": "uint256"
        }
      ],
      "stateMutability": "view",
      "type": "function",
      "constant": true
    },
    {
      "inputs": [
        {
          "internalType": "uint256",
          "name": "_projectId",
          "type": "uint256"
        }
      ],
      "name": "getFundraisingStatus",
      "outputs": [
        {
          "internalType": "enum ProjectInfo.FundraisingStatus",
          "name": "",
          "type": "uint8"
        }
      ],
      "stateMutability": "view",
      "type": "function",
      "constant": true
    },
    {
      "inputs": [
        {
          "internalType": "uint256",
          "name": "_projectId",
          "type": "uint256"
        },
        {
          "internalType": "enum ProjectInfo.FundraisingStatus",
          "name": "_newStatus",
          "type": "uint8"
        }
      ],
      "name": "setFundraisingStatus",
      "outputs": [],
      "stateMutability": "nonpayable",
      "type": "function"
    },
    {
      "inputs": [
        {
          "internalType": "uint256",
          "name": "_projectId",
          "type": "uint256"
        }
      ],
      "name": "getFundraisingDeadline",
      "outputs": [
        {
          "internalType": "uint256",
          "name": "",
          "type": "uint256"
        }
      ],
      "stateMutability": "view",
      "type": "function",
      "constant": true
    },
    {
      "inputs": [
        {
          "internalType": "uint256",
          "name": "_projectId",
          "type": "uint256"
        },
        {
          "internalType": "uint256",
          "name": "deadline",
          "type": "uint256"
        }
      ],
      "name": "setFundraisingDeadline",
      "outputs": [],
      "stateMutability": "nonpayable",
      "type": "function"
    },
    {
      "inputs": [
        {
          "internalType": "uint256",
          "name": "_projectId",
          "type": "uint256"
        }
      ],
      "name": "getMinContributionPerInvestor",
      "outputs": [
        {
          "internalType": "uint256",
          "name": "",
          "type": "uint256"
        }
      ],
      "stateMutability": "view",
      "type": "function",
      "constant": true
    },
    {
      "inputs": [
        {
          "internalType": "uint256",
          "name": "_projectId",
          "type": "uint256"
        }
      ],
      "name": "getRemainingFunds",
      "outputs": [
        {
          "internalType": "uint256",
          "name": "",
          "type": "uint256"
        }
      ],
      "stateMutability": "view",
      "type": "function",
      "constant": true
    },
    {
      "inputs": [
        {
          "internalType": "uint256",
          "name": "_projectId",
          "type": "uint256"
        }
      ],
      "name": "getTotalUnlocked",
      "outputs": [
        {
          "internalType": "uint256",
          "name": "",
          "type": "uint256"
        }
      ],
      "stateMutability": "view",
      "type": "function",
      "constant": true
    },
    {
      "inputs": [
        {
          "internalType": "uint256",
          "name": "_projectId",
          "type": "uint256"
        },
        {
          "internalType": "uint256",
          "name": "_amount",
          "type": "uint256"
        }
      ],
      "name": "decrementRemainingFunds",
      "outputs": [],
      "stateMutability": "nonpayable",
      "type": "function"
    },
    {
      "inputs": [
        {
          "internalType": "uint256",
          "name": "_projectId",
          "type": "uint256"
        },
        {
          "internalType": "uint256",
          "name": "_amount",
          "type": "uint256"
        }
      ],
      "name": "incrementTotalUnlocked",
      "outputs": [],
      "stateMutability": "nonpayable",
      "type": "function"
    },
    {
      "inputs": [],
      "name": "IncrementNumProjects",
      "outputs": [],
      "stateMutability": "nonpayable",
      "type": "function"
    }
  ],
  "bytecode": "0x608060405234801561001057600080fd5b5061001a3361001f565b61006f565b600080546001600160a01b038381166001600160a01b0319831681178455604051919092169283917f8be0079c531659141344cd1fd0a4f28419497f9722a3daafe3b4186f6b6457e09190a35050565b611a108061007e6000396000f3fe608060405234801561001057600080fd5b50600436106102d65760003560e01c80636c4fd0fc116101825780639349bdf3116100e9578063ab49ed57116100a2578063f2fde38b1161007c578063f2fde38b1461091e578063f39572f614610931578063f7a9454314610962578063f801f6a21461039c57600080fd5b8063ab49ed5714610887578063b5b96ae0146108aa578063c04c15c7146108e657600080fd5b80639349bdf3146107605780639d762ede146107985780639f1083ad146107dd578063a6a9898c146107f0578063aafc92d614610822578063ab2b6bab1461085c57600080fd5b80638487877f1161013b5780638487877f146106fb578063873a839d1461070e5780638778c1e5146107165780638da5cb5b1461072957806392256aec1461073a57806392d4c4a51461074d57600080fd5b80636c4fd0fc1461064c578063715018a61461065f578063739d48a4146106675780637875c60b146106875780637eba55731461069a5780637f8ec4b2146106d757600080fd5b80632c82f4a71161024157806346eb2620116101fa578063579a1c22116101d4578063579a1c22146105df5780636128e3cc146105ff578063638616a61461062657806367e2fc361461063957600080fd5b806346eb2620146105385780634b784aea1461057457806350fadbe0146105bb57600080fd5b80632c82f4a714610459578063391cfce41461046c5780633c9fd8971461047f5780633d50e5a514610492578063429aeb1b146104fa57806344a982e71461050d57600080fd5b80631e378b5c116102935780631e378b5c146103b757806320695edf146103da57806320eeddae146103fd57806325b168f2146104105780632a51119f146104235780632b2156a41461044657600080fd5b806305bb6326146102db5780630ffdb353146103115780631126685e146103565780631610c42b1461037957806316ff5b871461039c5780631dccbcde146103a4575b600080fd5b6102fe6102e93660046112c8565b60009081526002602052604090206003015490565b6040519081526020015b60405180910390f35b61035461031f3660046112e1565b600092835260036020908152604080852093855260089093019052912080549115156101000261ff0019909216919091179055565b005b6102fe6103643660046112c8565b60009081526003602052604090206005015490565b6102fe6103873660046112c8565b60009081526002602052604090206004015490565b6001546102fe565b6103546103b236600461131f565b610985565b6102fe6103c53660046112c8565b60009081526002602052604090206005015490565b6102fe6103e83660046112c8565b60009081526003602052604090206002015490565b6102fe61040b36600461131f565b6109af565b61035461041e3660046112c8565b6109d6565b6102fe6104313660046112c8565b60009081526002602052604090206006015490565b61035461045436600461131f565b610a00565b6103546104673660046112c8565b610a21565b61035461047a36600461134e565b610a43565b61035461048d36600461131f565b610aa7565b6104e76104a03660046112c8565b600360208190526000918252604090912080546001820154600283015493830154600484015460059094015460ff9384169592949293919280831692610100909104169087565b60405161030897969594939291906113b2565b6103546105083660046114bd565b610ac8565b61052061051b36600461131f565b610b3f565b6040516001600160a01b039091168152602001610308565b6103546105463660046112e1565b6000928352600360209081526040808520938552600890930190529120805460ff1916911515919091179055565b6105ab61058236600461131f565b600091825260036020908152604080842092845260089092019052902054610100900460ff1690565b6040519015158152602001610308565b6102fe6105c93660046112c8565b6000908152600360208190526040909120015490565b6105f26105ed36600461131f565b610b7e565b604051610308919061152e565b61061261060d3660046112c8565b610c41565b6040516103089897969594939291906115bf565b61035461063436600461131f565b610d9c565b6103546106473660046112c8565b610dbd565b6102fe61065a366004611625565b610eb1565b610354610f18565b61067a61067536600461131f565b610f2c565b6040516103089190611662565b610354610695366004611675565b610f7a565b6102fe6106a83660046116a3565b60008281526003602090815260408083206001600160a01b038516845260070190915290206001015492915050565b6102fe6106e53660046112c8565b6000908152600260208190526040909120015490565b61035461070936600461134e565b610fe4565b61035461101d565b6103546107243660046116cf565b611036565b6000546001600160a01b0316610520565b6105206107483660046112c8565b6110fe565b61067a61075b3660046112c8565b611144565b6105ab61076e36600461131f565b60009182526003602090815260408084209284526008909201905290205462010000900460ff1690565b6103546107a63660046112e1565b60009283526003602090815260408085209385526008909301905291208054911515620100000262ff000019909216919091179055565b6103546107eb3660046112c8565b611183565b6105ab6107fe36600461131f565b60009182526003602090815260408084209284526008909201905290205460ff1690565b6102fe6108303660046116a3565b60008281526003602090815260408083206001600160a01b038516845260070190915290205492915050565b61067a61086a3660046112c8565b600090815260036020526040902060040154610100900460ff1690565b6102fe6108953660046112c8565b60009081526003602052604090206001015490565b6105ab6108b83660046116a3565b60009182526003602090815260408084206001600160a01b0393909316845260079092019052902054151590565b6103546108f43660046116cf565b60009283526003602090815260408085206001600160a01b03909416855260079093019052912055565b61035461092c366004611704565b6111a5565b61035461093f366004611726565b600092835260036020908152604080852093855260089093019052912060010155565b61035461097036600461131f565b60009182526002602052604090912060050155565b600082815260036020819052604082200180548392906109a6908490611768565b90915550505050565b60008281526003602090815260408083208484526008019091529020600101545b92915050565b60008181526003602052604081206005018054600192906109f8908490611768565b909155505050565b600082815260036020526040812060020180548392906109a690849061177b565b60008181526003602052604081206005018054600192906109f890849061177b565b81600154811115610a6f5760405162461bcd60e51b8152600401610a669061178e565b60405180910390fd5b6000838152600360205260409020600401805483919060ff19166001836005811115610a9d57610a9d61137e565b0217905550505050565b600082815260036020526040812060010180548392906109a6908490611768565b610ad061121e565b6001806000828254610ae2919061177b565b909155505060018054600090815260026020526040902080546001600160a01b0319166001600160a01b038916178155908101610b1f878261183c565b506002810194909455600484019290925560058301556006909101555050565b6000828152600360205260408120600601805483908110610b6257610b626118fc565b6000918252602090912001546001600160a01b03169392505050565b610bad6040805160a0810182526000808252602082018190529181018290526060810182905290608082015290565b6000838152600360209081526040808320858452600801825291829020825160a081018452815460ff8082161515835261010082048116151594830194909452620100009004831615159381019390935260018101546060840152600281015490916080840191166005811115610c2657610c2661137e565b6005811115610c3757610c3761137e565b9052509392505050565b600260205260009081526040902080546001820180546001600160a01b039092169291610c6d906117b9565b80601f0160208091040260200160405190810160405280929190818152602001828054610c99906117b9565b8015610ce65780601f10610cbb57610100808354040283529160200191610ce6565b820191906000526020600020905b815481529060010190602001808311610cc957829003601f168201915b505050505090806002015490806003015490806004015490806005015490806006015490806007018054610d19906117b9565b80601f0160208091040260200160405190810160405280929190818152602001828054610d45906117b9565b8015610d925780601f10610d6757610100808354040283529160200191610d92565b820191906000526020600020905b815481529060010190602001808311610d7557829003601f168201915b5050505050905088565b600082815260036020526040812060010180548392906109a690849061177b565b60005b600082815260036020526040902060050154811015610ead576000828152600360205260408120600601805483908110610dfc57610dfc6118fc565b600091825260208083209091015485835260039091526040909120600101546001600160a01b03909116915015610e9a57600083815260036020908152604080832060018101546001600160a01b03861685526007909101909252822054610e65906064611912565b610e6f9190611929565b60008581526003602090815260408083206001600160a01b0387168452600701909152902060010155505b5080610ea58161194b565b915050610dc0565b5050565b6000805b600154811015610f0f57828051906020012060026000838152602001908152602001600020600101604051610eea9190611964565b604051809103902003610efd5792915050565b80610f078161194b565b915050610eb5565b50600092915050565b610f2061121e565b610f2a6000611278565b565b600082600154811115610f515760405162461bcd60e51b8152600401610a669061178e565b505060009182526003602090815260408084209284526008909201905290206002015460ff1690565b82600154811115610f9d5760405162461bcd60e51b8152600401610a669061178e565b60008481526003602090815260408083208684526008019091529020600201805483919060ff19166001836005811115610fd957610fd961137e565b021790555050505050565b6000828152600360205260409020600401805482919061ff0019166101008360058111156110145761101461137e565b02179055505050565b600180600082825461102f919061177b565b9091555050565b60008381526003602090815260408083206001600160a01b038616845260070190915281205490036110bf57600083815260036020526040812060050180549161107f8361194b565b909155505060008381526003602090815260408220600601805460018101825590835291200180546001600160a01b0319166001600160a01b0384161790555b60008381526003602090815260408083206001600160a01b0386168452600701909152812080548392906110f490849061177b565b9091555050505050565b6000816001548111156111235760405162461bcd60e51b8152600401610a669061178e565b6000838152600260205260409020546001600160a01b031691505b50919050565b6000816001548111156111695760405162461bcd60e51b8152600401610a669061178e565b505060009081526003602052604090206004015460ff1690565b60008181526002602052604081206003018054600192906109f890849061177b565b6111ad61121e565b6001600160a01b0381166112125760405162461bcd60e51b815260206004820152602660248201527f4f776e61626c653a206e6577206f776e657220697320746865207a65726f206160448201526564647265737360d01b6064820152608401610a66565b61121b81611278565b50565b6000546001600160a01b03163314610f2a5760405162461bcd60e51b815260206004820181905260248201527f4f776e61626c653a2063616c6c6572206973206e6f7420746865206f776e65726044820152606401610a66565b600080546001600160a01b038381166001600160a01b0319831681178455604051919092169283917f8be0079c531659141344cd1fd0a4f28419497f9722a3daafe3b4186f6b6457e09190a35050565b6000602082840312156112da57600080fd5b5035919050565b6000806000606084860312156112f657600080fd5b83359250602084013591506040840135801515811461131457600080fd5b809150509250925092565b6000806040838503121561133257600080fd5b50508035926020909101359150565b6006811061121b57600080fd5b6000806040838503121561136157600080fd5b82359150602083013561137381611341565b809150509250929050565b634e487b7160e01b600052602160045260246000fd5b6006811061121b57634e487b7160e01b600052602160045260246000fd5b600060e08201905088151582528760208301528660408301528560608301526113da85611394565b8460808301526113e984611394565b60a082019390935260c0015295945050505050565b80356001600160a01b038116811461141557600080fd5b919050565b634e487b7160e01b600052604160045260246000fd5b600082601f83011261144157600080fd5b813567ffffffffffffffff8082111561145c5761145c61141a565b604051601f8301601f19908116603f011681019082821181831017156114845761148461141a565b8160405283815286602085880101111561149d57600080fd5b836020870160208301376000602085830101528094505050505092915050565b60008060008060008060c087890312156114d657600080fd5b6114df876113fe565b9550602087013567ffffffffffffffff8111156114fb57600080fd5b61150789828a01611430565b96999698505050506040850135946060810135946080820135945060a09091013592509050565b600060a08201905082511515825260208301511515602083015260408301511515604083015260608301516060830152608083015161156c81611394565b8060808401525092915050565b6000815180845260005b8181101561159f57602081850181015186830182015201611583565b506000602082860101526020601f19601f83011685010191505092915050565b6001600160a01b0389168152610100602082018190526000906115e48382018b611579565b90508860408401528760608401528660808401528560a08401528460c084015282810360e08401526116168185611579565b9b9a5050505050505050505050565b60006020828403121561163757600080fd5b813567ffffffffffffffff81111561164e57600080fd5b61165a84828501611430565b949350505050565b6020810161166f83611394565b91905290565b60008060006060848603121561168a57600080fd5b8335925060208401359150604084013561131481611341565b600080604083850312156116b657600080fd5b823591506116c6602084016113fe565b90509250929050565b6000806000606084860312156116e457600080fd5b833592506116f4602085016113fe565b9150604084013590509250925092565b60006020828403121561171657600080fd5b61171f826113fe565b9392505050565b60008060006060848603121561173b57600080fd5b505081359360208301359350604090920135919050565b634e487b7160e01b600052601160045260246000fd5b818103818111156109d0576109d0611752565b808201808211156109d0576109d0611752565b602080825260119082015270125b9d985b1a5908141c9bda9958dd1251607a1b604082015260600190565b600181811c908216806117cd57607f821691505b60208210810361113e57634e487b7160e01b600052602260045260246000fd5b601f82111561183757600081815260208120601f850160051c810160208610156118145750805b601f850160051c820191505b8181101561183357828155600101611820565b5050505b505050565b815167ffffffffffffffff8111156118565761185661141a565b61186a8161186484546117b9565b846117ed565b602080601f83116001811461189f57600084156118875750858301515b600019600386901b1c1916600185901b178555611833565b600085815260208120601f198616915b828110156118ce578886015182559484019460019091019084016118af565b50858210156118ec5787850151600019600388901b60f8161c191681555b5050505050600190811b01905550565b634e487b7160e01b600052603260045260246000fd5b80820281158282048414176109d0576109d0611752565b60008261194657634e487b7160e01b600052601260045260246000fd5b500490565b60006001820161195d5761195d611752565b5060010190565b6000808354611972816117b9565b6001828116801561198a576001811461199f576119ce565b60ff19841687528215158302870194506119ce565b8760005260208060002060005b858110156119c55781548a8201529084019082016119ac565b50505082870194505b5092969550505050505056fea26469706673582212200bcf763c10f549020bed4273e6cf65416ec1d165e93343cf814327deb3bd32aa64736f6c63430008130033",
  "immutableReferences": {},
  "source": "// SPDX-License-Identifier: MIT\n\npragma solidity 0.8.19;\nimport \"../node_modules/@openzeppelin/contracts/token/ERC20/IERC20.sol\";\nimport \"../node_modules/@openzeppelin/contracts/access/Ownable.sol\";\n\n\ncontract ProjectInfo  is Ownable {\n\n        enum  FundraisingStatus {\n            FundraisingPhaseOpen,\n            FundraisingPhaseClosed,\n            FundraisingSuccessful,\n            FundraisingFailed,\n            WithdrawalPhaseOpen,\n            WithdrawalPhaseClosed\n        }\n\n        enum VoteValidationStatus\n        {\n            RegisterVotersOpen, // 0\n            RegisterVotersClose,\n            VotingSessionOpen,\n            VotingSessionClose,\n            ProjectAccepted, // 4\n            ProjectRejected // 5\n        }\n\n        enum  VoteUnlockStatus {\n            UnlockProposalOpen,\n            UnlockProposalClose,\n            VotingSessionOpen,\n            VotingSessionClose,\n            UnlockAccepted,\n            UnlockRejected\n        }\n        struct PhaseInfo {\n            bool             isUnlockSubmittedToVote;\n            bool             isUnlockAccepted;\n            bool             isUnlockExecuted;\n            uint256          amountToUnlock;\n            VoteUnlockStatus voteUnlockStatus; \n        }\n\n        struct Contributions {\n            uint256 amountInvested;\n            uint256 amountInvestedInPercentage;\n        }\n    struct ProjectProgressInfo { // validation fundraising // validation phase unlock\n            bool        isValidated;\n            uint256     totalRaised;\n            uint256     totalUnlocked;\n            uint256     remainingFunds;\n\n            VoteValidationStatus                      voteValidationStatus;\n            FundraisingStatus                         fundraisingStatus;\n\n            uint                                       numberOfInvestors; \n            address []                                 addressContributions;\n            mapping(address => Contributions)          contributions; // contributions[msg.sender] = amountInvested / amountInvestedInPercentage\n            \n            mapping(uint => PhaseInfo)                 phasesInfo; \n    } \n\n    struct ProjectGeneralInfo {     \n            address  projectOwner; // payable\n            string   projectTitle;\n            uint256  goalAmount;\n            uint     currentPhase;\n            uint     totalPhases;\n            uint     fundraisingDeadline;\n            uint     minContributionPerInvestor;\n            string   whitepaperLink;\n    }\n\n    uint numProjects;\n    mapping(uint => ProjectGeneralInfo)  public projectsGI;\n    mapping(uint => ProjectProgressInfo) public projectsPI;\n\n\n//////// Set projectOwner :\n    modifier isValidProjId(uint _projectId) {\n        require(_projectId <= numProjects, \"Invalid ProjectID\");\n        _;\n    }\n    // function setProjectOwner(address _projectOwner) public onlyOwner { // TODO : if not needed , to remove \n    //     require(_projectOwner != address(0), \"Invalid address\");\n    //     projectOwnersMap[_projectOwner] = true;\n    // }\n    function getProjectOwner(uint _projectId) external view isValidProjId(_projectId) returns(address){\n        return projectsGI[_projectId].projectOwner;\n    }\n///// Add Project \n\n    // remove if not needed TODO \n    // modifier onlyAdminOrProjectOwner() {\n    //     require(msg.sender == owner() , \"Unauthorized access\"); // || projectOwnersMap[msg.sender]\n    //     _;\n    // }\n\n    function addProject(address _projectOwner, string memory _projectTitle, uint _goalAmount, \n                     uint _totalPhases, uint256 _fundraisingDeadline, uint _minContribution) external onlyOwner \n   \n    {\n        numProjects += 1;\n        ProjectGeneralInfo storage newProject = projectsGI[numProjects];\n        \n        newProject.projectOwner     = _projectOwner;\n        newProject.projectTitle     = _projectTitle;\n        newProject.goalAmount       = _goalAmount;\n        newProject.totalPhases      = _totalPhases;\n        newProject.fundraisingDeadline        = _fundraisingDeadline; // Stack too deep\n        newProject.minContributionPerInvestor = _minContribution; // Stack too deep\n        //newProject.maxContributionPerInvestor = _maxContribution; // Stack too deep\n        //newProject.projectDeadline            = _projectDeadline; // Stack too deep\n        //newProject.startDate                  = _startDate; // Stack too deep\n        //newProject.endDate                    = _endDate; // Stack too deep\n        //newProject.whitepaperLink             = _whitepaperLink; // Stack too deep\n\n        //[_projectTitle]       = numProjects;\n    }\n\n//////// GETTERS & SETTERS \n\n    function getProjectIndexByTitle_2(string memory _projectTitle) public view returns (uint) {\n        for (uint i = 0; i < numProjects; i++) {\n            if (keccak256(bytes(projectsGI[i].projectTitle)) == keccak256(bytes(_projectTitle))) {\n                return i;\n            }\n        }\n        return 0; // if index = 0 ==> project not found \n    }\n\n    // function getProjectIdByTitle(string memory _projectTitle) public view returns (uint) {\n    //     return projectTitleToID[_projectTitle];\n    // }\n\n    function getLastProjectId() external view returns(uint)\n    {\n        return numProjects; \n    }\n    function getProjectCurrentPhase(uint _projectId) external view returns(uint) {\n        return projectsGI[_projectId].currentPhase;\n    }\n    function incrementProjectCurrentPhase(uint _projectId) external  {\n        projectsGI[_projectId].currentPhase +=1;\n    }\n    function getProjectPhaseInfo(uint _projectId, uint _phaseId) external view returns(PhaseInfo memory) {\n        return projectsPI[_projectId].phasesInfo[_phaseId];\n        //            mapping(uint => PhaseInfo) phasesInfo;  \n            // phasesInfo[phaseId]. isUnlockSubmittedToVote / isUnlockAccepted / isUnlockExecuted / amountToUnlock\n    \n    }\n    function getUnlockSubmittedToVote(uint _projectId, uint _phaseId) external view returns(bool) {\n        return projectsPI[_projectId].phasesInfo[_phaseId].isUnlockSubmittedToVote;\n    }\n    function setUnlockSubmittedToVote(uint _projectId, uint _phaseId, bool _decision) external {\n        projectsPI[_projectId].phasesInfo[_phaseId].isUnlockSubmittedToVote = _decision;\n    }\n    function getPhaseUnlockAccepted(uint _projectId, uint _phaseId) external view returns(bool) {\n        return projectsPI[_projectId].phasesInfo[_phaseId].isUnlockAccepted;\n    }\n    function setPhaseUnlockAccepted(uint _projectId, uint _phaseId, bool _decision) external {\n        projectsPI[_projectId].phasesInfo[_phaseId].isUnlockAccepted = _decision;\n    }\n    function getPhaseUnlockExecuted(uint _projectId, uint _phaseId) external view returns(bool) {\n        return projectsPI[_projectId].phasesInfo[_phaseId].isUnlockExecuted;\n    }\n    function setPhaseUnlockExecuted(uint _projectId, uint _phaseId, bool _decision) external {\n        projectsPI[_projectId].phasesInfo[_phaseId].isUnlockExecuted = _decision;\n    }\n    function getPhaseAmoutToUnlock(uint _projectId, uint _phaseId) external view returns(uint256) {\n        return projectsPI[_projectId].phasesInfo[_phaseId].amountToUnlock;\n    }\n    function setPhaseAmoutToUnlock(uint _projectId, uint _phaseId, uint256 _amount) external {\n        projectsPI[_projectId].phasesInfo[_phaseId].amountToUnlock = _amount;\n    }\n    function getProjectTotalPhases(uint _projectId) external view returns(uint) {\n        return projectsGI[_projectId].totalPhases;\n    }\n    // function getProjectIndexByOwner(address _projectOwner) public view returns (uint) {\n    //     return projectOwnerToIndex[_projectOwner];\n    // }\n\n    function getNumProjects() public view returns(uint)\n    {\n        return numProjects;\n    }\n\n\n\n    function getVoteValidationStatus(uint _projectId) public view isValidProjId(_projectId) returns (VoteValidationStatus) {\n        return projectsPI[_projectId].voteValidationStatus;\n    }\n\n    function setVoteValidationStatus(uint _projectId, VoteValidationStatus _newStatus) public isValidProjId(_projectId) \n    {\n        projectsPI[_projectId].voteValidationStatus = _newStatus;\n    }  \n    function getVoteUnlockStatus(uint _projectId, uint _phase) public view isValidProjId(_projectId) returns (VoteUnlockStatus) {\n        return projectsPI[_projectId].phasesInfo[_phase].voteUnlockStatus; \n    }\n    function setVoteUnlockStatus(uint _projectId, uint _phase, VoteUnlockStatus _newStatus) public isValidProjId(_projectId){\n        projectsPI[_projectId].phasesInfo[_phase].voteUnlockStatus = _newStatus; \n    }   \n\n    function getTotalRaised(uint _projectId) view external  returns(uint256) {\n        return projectsPI[_projectId].totalRaised;\n    }\n\n    function incrementTotalRaised(uint _projectId, uint256 _amount) external   {\n        projectsPI[_projectId].totalRaised += _amount;\n    }\n\n    function decrementTotalRaised(uint _projectId, uint256 _amount) external   {\n        projectsPI[_projectId].totalRaised -= _amount;\n    }\n    \n\n    function getContributions(uint _projectId,  address _addr) view public  returns(uint256) {\n        return projectsPI[_projectId].contributions[_addr].amountInvested;\n    }\n\n    function incrementContributions(uint _projectId, address _addr, uint256 _amount) external   {\n        if(projectsPI[_projectId].contributions[_addr].amountInvested == 0)\n        {\n            projectsPI[_projectId].numberOfInvestors ++; \n            projectsPI[_projectId].addressContributions.push(_addr);\n        }\n        projectsPI[_projectId].contributions[_addr].amountInvested += _amount;\n    }\n\n    function getNumInvestors(uint _projectId) external view returns(uint) {\n        return projectsPI[_projectId].numberOfInvestors;\n    }\n    function incrementNumInvestors(uint _projectId) public {\n        projectsPI[_projectId].numberOfInvestors +=1;\n    }\n    function decrementNumInvestors(uint _projectId) public {\n        projectsPI[_projectId].numberOfInvestors -=1;\n    }\n\n    function hasContributed(uint _projectId, address _investor) external view returns (bool) \n    {\n        return getContributions(_projectId, _investor) > 0;\n    }\n\n    function setContributions(uint _projectId,  address _addr,  uint256 _amount) public {\n        projectsPI[_projectId].contributions[_addr].amountInvested = _amount;\n    }\n\n    function getContributor(uint _projectId, uint index) external view returns(address) {\n        return projectsPI[_projectId].addressContributions[index];\n    }\n    function calculatePercentageContribs(uint _projectId) external \n    {\n        // Calculate the percentage of each investor's contribution\n        for (uint i = 0; i < projectsPI[_projectId].numberOfInvestors; i++) {\n            address investor = projectsPI[_projectId].addressContributions[i];\n            if(projectsPI[_projectId].totalRaised != 0)\n            {\n                uint256 contributionPercentage = (projectsPI[_projectId].contributions[investor].amountInvested * 100) / projectsPI[_projectId].totalRaised;\n                projectsPI[_projectId].contributions[investor].amountInvestedInPercentage = contributionPercentage;\n            }\n        }\n    }\n    function getVoteWeight(uint _projectId,  address _addr) external view returns(uint256) \n    {\n        return projectsPI[_projectId].contributions[_addr].amountInvestedInPercentage;\n    }\n    \n    function getGoalAmount(uint _projectId) view external  returns(uint256) {\n        return projectsGI[_projectId].goalAmount;\n    }\n\n    function getFundraisingStatus (uint _projectId) external view returns(FundraisingStatus){\n        return projectsPI[_projectId].fundraisingStatus;\n    }\n\n    function setFundraisingStatus (uint _projectId, FundraisingStatus _newStatus) external {\n        projectsPI[_projectId].fundraisingStatus = _newStatus;\n    }\n\n   // Stack too deep\n    function getFundraisingDeadline(uint _projectId)  external view returns (uint256) {\n        return projectsGI[_projectId].fundraisingDeadline;\n    }\n    function setFundraisingDeadline(uint _projectId, uint256 deadline)  external {\n        projectsGI[_projectId].fundraisingDeadline = deadline;\n   }\n\n   // Stack too deep\n   function getMinContributionPerInvestor(uint _projectId) external view returns (uint256) {\n       return projectsGI[_projectId].minContributionPerInvestor; \n   }\n\n    function getRemainingFunds(uint _projectId) external view returns(uint256){\n        return projectsPI[_projectId].remainingFunds;     \n    }\n\n    function getTotalUnlocked(uint _projectId) external view returns(uint256){\n        return projectsPI[_projectId].totalUnlocked;     \n    }\n\n    function decrementRemainingFunds(uint _projectId, uint256 _amount) external {\n        projectsPI[_projectId].remainingFunds -= _amount;     \n    }\n    function incrementTotalUnlocked(uint _projectId, uint256 _amount) external  {\n        projectsPI[_projectId].totalUnlocked += _amount;     \n    }\n\n    function IncrementNumProjects() external { // TODO to remove if not used \n                numProjects += 1;\n    }\n \n\n//////////////\n\n }\n",
  "sourcePath": "/Users/ilham_elbouloumi/Documents/WorkSpace_Blockchain_VSC/CommonSeedDAO/truffle/contracts/ProjectInfo.sol",
  "compiler": {
    "name": "solc",
    "version": "0.8.19+commit.7dd6d404.Emscripten.clang"
  },
  "schemaVersion": "3.4.12",
  "updatedAt": "2023-04-11T05:33:35.490Z",
  "networkType": "ethereum",
  "devdoc": {
    "kind": "dev",
    "methods": {
      "owner()": {
        "details": "Returns the address of the current owner."
      },
      "renounceOwnership()": {
        "details": "Leaves the contract without owner. It will not be possible to call `onlyOwner` functions anymore. Can only be called by the current owner. NOTE: Renouncing ownership will leave the contract without an owner, thereby removing any functionality that is only available to the owner."
      },
      "transferOwnership(address)": {
        "details": "Transfers ownership of the contract to a new account (`newOwner`). Can only be called by the current owner."
      }
    },
    "version": 1
  },
  "userdoc": {
    "kind": "user",
    "methods": {},
    "version": 1
  }
}