{
  "contractName": "ProjectValidation",
  "abi": [
    {
      "inputs": [
        {
          "internalType": "address",
          "name": "_seedAddress",
          "type": "address"
        },
        {
          "internalType": "address",
          "name": "_projectInfoContractAddress",
          "type": "address"
        }
      ],
      "stateMutability": "nonpayable",
      "type": "constructor"
    },
    {
      "anonymous": false,
      "inputs": [
        {
          "indexed": true,
          "internalType": "address",
          "name": "previousOwner",
          "type": "address"
        },
        {
          "indexed": true,
          "internalType": "address",
          "name": "newOwner",
          "type": "address"
        }
      ],
      "name": "OwnershipTransferred",
      "type": "event"
    },
    {
      "anonymous": false,
      "inputs": [
        {
          "indexed": false,
          "internalType": "uint256",
          "name": "_projectId",
          "type": "uint256"
        }
      ],
      "name": "ProjectAccepted",
      "type": "event"
    },
    {
      "anonymous": false,
      "inputs": [
        {
          "indexed": false,
          "internalType": "uint256",
          "name": "_projectId",
          "type": "uint256"
        }
      ],
      "name": "ProjectRejected",
      "type": "event"
    },
    {
      "anonymous": false,
      "inputs": [
        {
          "indexed": false,
          "internalType": "uint256",
          "name": "_projectId",
          "type": "uint256"
        },
        {
          "indexed": false,
          "internalType": "address",
          "name": "_addr",
          "type": "address"
        }
      ],
      "name": "RegisterEligibleVoterDone",
      "type": "event"
    },
    {
      "anonymous": false,
      "inputs": [
        {
          "indexed": false,
          "internalType": "uint256",
          "name": "_projectId",
          "type": "uint256"
        }
      ],
      "name": "RegisterVotersClose",
      "type": "event"
    },
    {
      "anonymous": false,
      "inputs": [
        {
          "indexed": false,
          "internalType": "uint256",
          "name": "_projectId",
          "type": "uint256"
        }
      ],
      "name": "RegisterVotersOpen",
      "type": "event"
    },
    {
      "anonymous": false,
      "inputs": [
        {
          "indexed": false,
          "internalType": "uint256",
          "name": "_projectId",
          "type": "uint256"
        },
        {
          "indexed": false,
          "internalType": "address",
          "name": "_addr",
          "type": "address"
        }
      ],
      "name": "Voted",
      "type": "event"
    },
    {
      "anonymous": false,
      "inputs": [
        {
          "indexed": false,
          "internalType": "uint256",
          "name": "_projectId",
          "type": "uint256"
        }
      ],
      "name": "VotingSessionClose",
      "type": "event"
    },
    {
      "anonymous": false,
      "inputs": [
        {
          "indexed": false,
          "internalType": "uint256",
          "name": "_projectId",
          "type": "uint256"
        }
      ],
      "name": "VotingSessionOpen",
      "type": "event"
    },
    {
      "inputs": [],
      "name": "owner",
      "outputs": [
        {
          "internalType": "address",
          "name": "",
          "type": "address"
        }
      ],
      "stateMutability": "view",
      "type": "function"
    },
    {
      "inputs": [],
      "name": "renounceOwnership",
      "outputs": [],
      "stateMutability": "nonpayable",
      "type": "function"
    },
    {
      "inputs": [
        {
          "internalType": "address",
          "name": "newOwner",
          "type": "address"
        }
      ],
      "name": "transferOwnership",
      "outputs": [],
      "stateMutability": "nonpayable",
      "type": "function"
    },
    {
      "inputs": [
        {
          "internalType": "uint256",
          "name": "_projectId",
          "type": "uint256"
        }
      ],
      "name": "registerVotersOpening",
      "outputs": [],
      "stateMutability": "nonpayable",
      "type": "function"
    },
    {
      "inputs": [
        {
          "internalType": "uint256",
          "name": "_projectId",
          "type": "uint256"
        }
      ],
      "name": "registerVotersClosing",
      "outputs": [],
      "stateMutability": "nonpayable",
      "type": "function"
    },
    {
      "inputs": [
        {
          "internalType": "uint256",
          "name": "_projectId",
          "type": "uint256"
        }
      ],
      "name": "VotingSessionOpening",
      "outputs": [],
      "stateMutability": "nonpayable",
      "type": "function"
    },
    {
      "inputs": [
        {
          "internalType": "uint256",
          "name": "_projectId",
          "type": "uint256"
        }
      ],
      "name": "VotingSessionClosing",
      "outputs": [],
      "stateMutability": "nonpayable",
      "type": "function"
    },
    {
      "inputs": [
        {
          "internalType": "uint256",
          "name": "_projectId",
          "type": "uint256"
        }
      ],
      "name": "registerEligibleVoters",
      "outputs": [],
      "stateMutability": "nonpayable",
      "type": "function"
    },
    {
      "inputs": [
        {
          "internalType": "uint256",
          "name": "_projectId",
          "type": "uint256"
        },
        {
          "internalType": "bool",
          "name": "_decision",
          "type": "bool"
        }
      ],
      "name": "setVote",
      "outputs": [],
      "stateMutability": "nonpayable",
      "type": "function"
    },
    {
      "inputs": [
        {
          "internalType": "uint256",
          "name": "_projectId",
          "type": "uint256"
        }
      ],
      "name": "tallyVote",
      "outputs": [],
      "stateMutability": "nonpayable",
      "type": "function"
    }
  ],
  "bytecode": "0x608060405234801561001057600080fd5b5060405161137838038061137883398101604081905261002f916100d5565b61003833610069565b600180546001600160a01b039384166001600160a01b03199182161790915560028054929093169116179055610108565b600080546001600160a01b038381166001600160a01b0319831681178455604051919092169283917f8be0079c531659141344cd1fd0a4f28419497f9722a3daafe3b4186f6b6457e09190a35050565b80516001600160a01b03811681146100d057600080fd5b919050565b600080604083850312156100e857600080fd5b6100f1836100b9565b91506100ff602084016100b9565b90509250929050565b611261806101176000396000f3fe608060405234801561001057600080fd5b506004361061009e5760003560e01c8063bbffb98211610066578063bbffb98214610105578063d3516b7e14610118578063ee9d02a61461012b578063f2fde38b1461013e578063f342ab1b1461015157600080fd5b806304244623146100a3578063715018a6146100b8578063751883d8146100c057806380ab2f77146100d35780638da5cb5b146100e6575b600080fd5b6100b66100b1366004611066565b610164565b005b6100b66103aa565b6100b66100ce366004611066565b6103be565b6100b66100e1366004611066565b610503565b600054604080516001600160a01b039092168252519081900360200190f35b6100b6610113366004611066565b6105d7565b6100b661012636600461107f565b610711565b6100b6610139366004611066565b610a48565b6100b661014c3660046110c9565b610e0b565b6100b661015f366004611066565b610e84565b336101ab5760405162461bcd60e51b8152602060048201526012602482015271034b73b30b634b21030b2323932b9b99010960751b60448201526064015b60405180910390fd5b6002546040516324895abb60e21b8152600481018390526001600160a01b03909116906392256aec90602401602060405180830381865afa1580156101f4573d6000803e3d6000fd5b505050506040513d601f19601f8201168201806040525081019061021891906110ed565b6001600160a01b0316330361027e5760405162461bcd60e51b815260206004820152602660248201527f70726f6a656374206f776e65727320617265206e6f7420616c6c6f77656420746044820152656f20766f746560d01b60648201526084016101a2565b6001546040516370a0823160e01b81523360048201526103e89182916001600160a01b03909116906370a0823190602401602060405180830381865afa1580156102cc573d6000803e3d6000fd5b505050506040513d601f19601f820116820180604052508101906102f0919061110a565b10156103485760405162461bcd60e51b815260206004820152602160248201527f4552524f52203a20496e73756666696369656e7420534545442062616c616e636044820152606560f81b60648201526084016101a2565b60008281526004602090815260408083203380855290835292819020805460ff191660011790558051858152918201929092527fec10d1426a4fdf4acb46f7e1cada69d3b1723022b4e8d46200e27310256f2d17910160405180910390a15050565b6103b2610fbc565b6103bc6000611016565b565b6103c6610fbc565b6002546040516392d4c4a560e01b8152600481018390526000916001600160a01b0316906392d4c4a590602401602060405180830381865afa158015610410573d6000803e3d6000fd5b505050506040513d601f19601f820116820180604052508101906104349190611139565b600581111561044557610445611123565b146104625760405162461bcd60e51b81526004016101a29061115a565b600254604051630e473f3960e21b81526001600160a01b039091169063391cfce490610495908490600190600401611191565b600060405180830381600087803b1580156104af57600080fd5b505af11580156104c3573d6000803e3d6000fd5b505050507fa43af3966faea2ee62c8ddc94dae793de17856f1096144e5aea0b63e196b840c816040516104f891815260200190565b60405180910390a150565b61050b610fbc565b6002546040516392d4c4a560e01b8152600481018390526000916001600160a01b0316906392d4c4a590602401602060405180830381865afa158015610555573d6000803e3d6000fd5b505050506040513d601f19601f820116820180604052508101906105799190611139565b600581111561058a5761058a611123565b146105a75760405162461bcd60e51b81526004016101a29061115a565b6040518181527ff5c8b64713129ab0243aed7bc511f082accfbec5395860abec284314f96671b3906020016104f8565b6105df610fbc565b600280546040516392d4c4a560e01b8152600481018490526001600160a01b03909116906392d4c4a590602401602060405180830381865afa158015610629573d6000803e3d6000fd5b505050506040513d601f19601f8201168201806040525081019061064d9190611139565b600581111561065e5761065e611123565b1461067b5760405162461bcd60e51b81526004016101a29061115a565b600254604051630e473f3960e21b81526001600160a01b039091169063391cfce4906106ae908490600390600401611191565b600060405180830381600087803b1580156106c857600080fd5b505af11580156106dc573d6000803e3d6000fd5b505050507ff2b69eaf5fbd7556baa1f1ae9f2fcf93dab8fa7d12e21508cbe7ed3826defa67816040516104f891815260200190565b6000828152600460209081526040808320338452909152902054829060ff1661077c5760405162461bcd60e51b815260206004820152601c60248201527f4552524f52203a204e6f7420456c696769626c6520566f74657220210000000060448201526064016101a2565b600254604080516316ff5b8760e01b8152905185926001600160a01b0316916316ff5b879160048083019260209291908290030181865afa1580156107c5573d6000803e3d6000fd5b505050506040513d601f19601f820116820180604052508101906107e9919061110a565b8111156108345760405162461bcd60e51b815260206004820152601960248201527811549493d4880e88125b9d985b1a5908141c9bda9958dd1251603a1b60448201526064016101a2565b600280546040516392d4c4a560e01b8152600481018790526001600160a01b03909116906392d4c4a590602401602060405180830381865afa15801561087e573d6000803e3d6000fd5b505050506040513d601f19601f820116820180604052508101906108a29190611139565b60058111156108b3576108b3611123565b146109005760405162461bcd60e51b815260206004820152601960248201527f566f74696e672053657373696f6e206e6f74206f70656e20210000000000000060448201526064016101a2565b6000848152600460209081526040808320338452909152902054610100900460ff161561096f5760405162461bcd60e51b815260206004820152601a60248201527f4552524f52203a2048617320416c726561647920566f7465642100000000000060448201526064016101a2565b60008481526004602090815260408083203384529091529020805461ff00198515801562010000029190911662ffff001990921691909117610100179091556109dc5760008481526003602052604081208054600192906109d19084906111d9565b90915550610a099050565b6001600360008681526020019081526020016000206001016000828254610a0391906111d9565b90915550505b604080518581523360208201527f030b0f8dcd86a031eddb071f91882edeac8173663ba775713b677b42b51be44b91015b60405180910390a150505050565b610a50610fbc565b600254604080516316ff5b8760e01b8152905183926001600160a01b0316916316ff5b879160048083019260209291908290030181865afa158015610a99573d6000803e3d6000fd5b505050506040513d601f19601f82011682018060405250810190610abd919061110a565b811115610b085760405162461bcd60e51b815260206004820152601960248201527811549493d4880e88125b9d985b1a5908141c9bda9958dd1251603a1b60448201526064016101a2565b6002546040516392d4c4a560e01b8152600481018490526003916001600160a01b0316906392d4c4a590602401602060405180830381865afa158015610b52573d6000803e3d6000fd5b505050506040513d601f19601f82011682018060405250810190610b769190611139565b6005811115610b8757610b87611123565b14610bd45760405162461bcd60e51b815260206004820152601f60248201527f566f74696e672053657373696f6e206e6f7420436c6f7365642079657420210060448201526064016101a2565b600082815260036020526040812060018101549054610bf391906111d9565b905080600003610c9c57600254604051630e473f3960e21b81526001600160a01b039091169063391cfce490610c30908690600590600401611191565b600060405180830381600087803b158015610c4a57600080fd5b505af1158015610c5e573d6000803e3d6000fd5b505050507fcdcfe8bd58f12ac7a585895f7045b6322a1ec7e7179377dc3bfa8434ed22e72483604051610c9391815260200190565b60405180910390a15b6000838152600360205260408120548290610cb89060646111f2565b610cc29190611209565b90506042811115610d6f57600254604051630e473f3960e21b81526001600160a01b039091169063391cfce490610cff9087906004908101611191565b600060405180830381600087803b158015610d1957600080fd5b505af1158015610d2d573d6000803e3d6000fd5b505050507f623be8b40a0155c2c049cc6ad02d5e4a782dde65f74cd34d0abe8b277f6b32ae84604051610d6291815260200190565b60405180910390a1610e05565b600254604051630e473f3960e21b81526001600160a01b039091169063391cfce490610da2908790600590600401611191565b600060405180830381600087803b158015610dbc57600080fd5b505af1158015610dd0573d6000803e3d6000fd5b505050507fcdcfe8bd58f12ac7a585895f7045b6322a1ec7e7179377dc3bfa8434ed22e72484604051610a3a91815260200190565b50505050565b610e13610fbc565b6001600160a01b038116610e785760405162461bcd60e51b815260206004820152602660248201527f4f776e61626c653a206e6577206f776e657220697320746865207a65726f206160448201526564647265737360d01b60648201526084016101a2565b610e8181611016565b50565b610e8c610fbc565b6002546040516392d4c4a560e01b8152600481018390526001916001600160a01b0316906392d4c4a590602401602060405180830381865afa158015610ed6573d6000803e3d6000fd5b505050506040513d601f19601f82011682018060405250810190610efa9190611139565b6005811115610f0b57610f0b611123565b14610f285760405162461bcd60e51b81526004016101a29061115a565b60028054604051630e473f3960e21b81526001600160a01b039091169163391cfce491610f59918591600401611191565b600060405180830381600087803b158015610f7357600080fd5b505af1158015610f87573d6000803e3d6000fd5b505050507fd2a8fc483ee00a54c6ae92acd2ee38cb1b5611c2063f11f5a5ac511d68719b86816040516104f891815260200190565b6000546001600160a01b031633146103bc5760405162461bcd60e51b815260206004820181905260248201527f4f776e61626c653a2063616c6c6572206973206e6f7420746865206f776e657260448201526064016101a2565b600080546001600160a01b038381166001600160a01b0319831681178455604051919092169283917f8be0079c531659141344cd1fd0a4f28419497f9722a3daafe3b4186f6b6457e09190a35050565b60006020828403121561107857600080fd5b5035919050565b6000806040838503121561109257600080fd5b82359150602083013580151581146110a957600080fd5b809150509250929050565b6001600160a01b0381168114610e8157600080fd5b6000602082840312156110db57600080fd5b81356110e6816110b4565b9392505050565b6000602082840312156110ff57600080fd5b81516110e6816110b4565b60006020828403121561111c57600080fd5b5051919050565b634e487b7160e01b600052602160045260246000fd5b60006020828403121561114b57600080fd5b8151600681106110e657600080fd5b6020808252601e908201527f566f7465727320526567697374726174696f6e206e6f74206f70656e20210000604082015260600190565b82815260408101600683106111b657634e487b7160e01b600052602160045260246000fd5b8260208301529392505050565b634e487b7160e01b600052601160045260246000fd5b808201808211156111ec576111ec6111c3565b92915050565b80820281158282048414176111ec576111ec6111c3565b60008261122657634e487b7160e01b600052601260045260246000fd5b50049056fea2646970667358221220d9c97b51c2ac61f42bcab04b5750d3008a21b4a599480f0bda67d67f651d0fe764736f6c63430008130033",
  "immutableReferences": {},
  "source": "// SPDX-License-Identifier: MIT\n\npragma solidity 0.8.19;\nimport \"../node_modules/@openzeppelin/contracts/access/Ownable.sol\";\nimport \"../node_modules/@openzeppelin/contracts/token/ERC20/IERC20.sol\";\n\nimport \"./ProjectInfo.sol\";\n\ncontract ProjectValidation is Ownable {\n  \n    //event ProjectToValidateAdded(uint projectId);\n\n    event RegisterVotersOpen(uint _projectId);\n    event RegisterVotersClose(uint _projectId);\n    event VotingSessionOpen(uint _projectId);\n    event VotingSessionClose(uint _projectId);\n    //event VotingSessionResults(uint _projectId);\n    event ProjectAccepted(uint _projectId);\n    event ProjectRejected(uint _projectId);\n    \n    event RegisterEligibleVoterDone(uint _projectId, address _addr);\n    event Voted(uint _projectId, address _addr);\n \n    struct CountVotes {\n        uint yesVotes;\n        uint noVotes;\n    }\n    struct DaoVoter {\n        bool hasGovernanceToken;\n        bool hasVoted;\n        bool decision;\n    }\n\n    IERC20 seedToken;\n    ProjectInfo projectInfoContract;\n    mapping(uint => CountVotes) projectCountVotes; // projectVoters[projectId][address].hasGovernanceToken / hasVoted/ ..\n    mapping(uint => mapping (address => DaoVoter)) projectVoters; // projectVoters[projectId][address].hasGovernanceToken / hasVoted/ ..\n\n\n    constructor(address _seedAddress, address _projectInfoContractAddress) {\n        seedToken = IERC20(_seedAddress);\n        projectInfoContract = ProjectInfo(_projectInfoContractAddress);\n    }\n\n    modifier isValidProjId(uint _projectId) {\n        require(_projectId <= projectInfoContract.getNumProjects(), \"ERROR : Invalid ProjectID\");\n        _;\n    }\n\n    function registerVotersOpening(uint _projectId) external onlyOwner  { // TODO isValidProjId(projectId)\n        require(projectInfoContract.getVoteValidationStatus(_projectId) == ProjectInfo.VoteValidationStatus.RegisterVotersOpen, \"Voters Registration not open !\");\n        emit RegisterVotersOpen(_projectId);\n    }\n\n    function registerVotersClosing(uint _projectId) external onlyOwner  { // TODO isValidProjId(projectId)\n        require(projectInfoContract.getVoteValidationStatus(_projectId) == ProjectInfo.VoteValidationStatus.RegisterVotersOpen, \"Voters Registration not open !\");\n        projectInfoContract.setVoteValidationStatus(_projectId, ProjectInfo.VoteValidationStatus.RegisterVotersClose);\n        emit RegisterVotersClose(_projectId);\n    }\n\n    function VotingSessionOpening(uint _projectId) external onlyOwner  { // TODO isValidProjId(projectId)\n        require(projectInfoContract.getVoteValidationStatus(_projectId) == ProjectInfo.VoteValidationStatus.RegisterVotersClose, \"Voters Registration not open !\");\n        projectInfoContract.setVoteValidationStatus(_projectId, ProjectInfo.VoteValidationStatus.VotingSessionOpen);\n        emit VotingSessionOpen(_projectId);\n    }\n\n    function VotingSessionClosing(uint _projectId) external onlyOwner  { // TODO isValidProjId(projectId)\n        require(projectInfoContract.getVoteValidationStatus(_projectId) == ProjectInfo.VoteValidationStatus.VotingSessionOpen, \"Voters Registration not open !\");\n        projectInfoContract.setVoteValidationStatus(_projectId, ProjectInfo.VoteValidationStatus.VotingSessionClose);\n        emit VotingSessionClose(_projectId);\n    }\n\n    function registerEligibleVoters(uint _projectId) public // les voters s'enregistrent d'eux meme .. pas Admin qui ajoute\n    {\n        require(msg.sender != address(0), \"invalid address ! \");\n        require(msg.sender != projectInfoContract.getProjectOwner(_projectId), \"project owners are not allowed to vote\");\n\n        uint MinSeedBalance = 1000; // minimum SEED balance required to vote\n        require(seedToken.balanceOf(msg.sender) >= MinSeedBalance, \"ERROR : Insufficient SEED balance\");\n        \n        projectVoters[_projectId][msg.sender].hasGovernanceToken = true;\n\n        emit RegisterEligibleVoterDone(_projectId, msg.sender);\n    }\n\n    modifier onlyVoter(uint _projectId){\n        require(projectVoters[_projectId][msg.sender].hasGovernanceToken, \"ERROR : Not Eligible Voter !\");\n        _;\n    }\n\n    function setVote(uint _projectId, bool _decision) public onlyVoter(_projectId) isValidProjId(_projectId) \n    {\n        require(projectInfoContract.getVoteValidationStatus(_projectId) == ProjectInfo.VoteValidationStatus.VotingSessionOpen, \"Voting Session not open !\");\n        require(!projectVoters[_projectId][msg.sender].hasVoted , \"ERROR : Has Already Voted!\");\n\n        projectVoters[_projectId][msg.sender].decision = _decision;\n        projectVoters[_projectId][msg.sender].hasVoted = true;\n\n        if(_decision) {\n            projectCountVotes[_projectId].yesVotes +=1;\n        }\n        else {\n            projectCountVotes[_projectId].noVotes +=1;\n        }\n        emit Voted(_projectId, msg.sender);\n    }\n\n    function tallyVote(uint _projectId) public onlyOwner isValidProjId(_projectId) \n    {\n        require(projectInfoContract.getVoteValidationStatus(_projectId) == ProjectInfo.VoteValidationStatus.VotingSessionClose, \"Voting Session not Closed yet !\");\n\n        uint totalVotes = projectCountVotes[_projectId].yesVotes + projectCountVotes[_projectId].noVotes; // TODO pondr poids invest.\n        // uint quorum = totalCommunity * 10 / 100; // quorum is 10% of the total number of voters possessing the governance token\n\n        if (totalVotes == 0 ) {\n            // No votes !\n            // projet non valid \n            projectInfoContract.setVoteValidationStatus(_projectId, ProjectInfo.VoteValidationStatus.ProjectRejected);\n            emit ProjectRejected(_projectId);\n        }\n\n        uint yesPercentage = (projectCountVotes[_projectId].yesVotes * 100) / totalVotes;\n        if (yesPercentage > 66) \n        {\n            // if(projectCountVotes[_projectId].yesVotes > quorum ) // TODO \n            // projet valid  ==> passe  l'tapde crowfunding \n            projectInfoContract.setVoteValidationStatus(_projectId, ProjectInfo.VoteValidationStatus.ProjectAccepted);\n            emit ProjectAccepted(_projectId);\n        }\n        else {\n            // projet non valid \n            projectInfoContract.setVoteValidationStatus(_projectId, ProjectInfo.VoteValidationStatus.ProjectRejected);\n            emit ProjectRejected(_projectId);\n        }\n    }\n}",
  "sourcePath": "/Users/ilham_elbouloumi/Documents/WorkSpace_Blockchain_VSC/CommonSeedDAO/truffle/contracts/VoteProjectValidation.sol",
  "compiler": {
    "name": "solc",
    "version": "0.8.19+commit.7dd6d404.Emscripten.clang"
  },
  "schemaVersion": "3.4.12",
  "updatedAt": "2023-04-06T18:07:27.540Z",
  "devdoc": {
    "kind": "dev",
    "methods": {
      "owner()": {
        "details": "Returns the address of the current owner."
      },
      "renounceOwnership()": {
        "details": "Leaves the contract without owner. It will not be possible to call `onlyOwner` functions anymore. Can only be called by the current owner. NOTE: Renouncing ownership will leave the contract without an owner, thereby removing any functionality that is only available to the owner."
      },
      "transferOwnership(address)": {
        "details": "Transfers ownership of the contract to a new account (`newOwner`). Can only be called by the current owner."
      }
    },
    "version": 1
  },
  "userdoc": {
    "kind": "user",
    "methods": {},
    "version": 1
  }
}