{
  "contractName": "ProjectInfo",
  "abi": [
    {
      "anonymous": false,
      "inputs": [
        {
          "indexed": true,
          "internalType": "address",
          "name": "previousOwner",
          "type": "address"
        },
        {
          "indexed": true,
          "internalType": "address",
          "name": "newOwner",
          "type": "address"
        }
      ],
      "name": "OwnershipTransferred",
      "type": "event"
    },
    {
      "inputs": [],
      "name": "owner",
      "outputs": [
        {
          "internalType": "address",
          "name": "",
          "type": "address"
        }
      ],
      "stateMutability": "view",
      "type": "function",
      "constant": true
    },
    {
      "inputs": [
        {
          "internalType": "uint256",
          "name": "",
          "type": "uint256"
        }
      ],
      "name": "projectsGI",
      "outputs": [
        {
          "internalType": "address",
          "name": "projectOwner",
          "type": "address"
        },
        {
          "internalType": "string",
          "name": "projectTitle",
          "type": "string"
        },
        {
          "internalType": "uint256",
          "name": "goalAmount",
          "type": "uint256"
        },
        {
          "internalType": "uint256",
          "name": "currentPhase",
          "type": "uint256"
        },
        {
          "internalType": "uint256",
          "name": "totalPhases",
          "type": "uint256"
        },
        {
          "internalType": "uint256",
          "name": "fundraisingDeadline",
          "type": "uint256"
        },
        {
          "internalType": "uint256",
          "name": "minContributionPerInvestor",
          "type": "uint256"
        },
        {
          "internalType": "string",
          "name": "whitepaperLink",
          "type": "string"
        }
      ],
      "stateMutability": "view",
      "type": "function",
      "constant": true
    },
    {
      "inputs": [
        {
          "internalType": "uint256",
          "name": "",
          "type": "uint256"
        }
      ],
      "name": "projectsPI",
      "outputs": [
        {
          "internalType": "bool",
          "name": "isValidated",
          "type": "bool"
        },
        {
          "internalType": "uint256",
          "name": "totalRaised",
          "type": "uint256"
        },
        {
          "internalType": "uint256",
          "name": "totalUnlocked",
          "type": "uint256"
        },
        {
          "internalType": "uint256",
          "name": "remainingFunds",
          "type": "uint256"
        },
        {
          "internalType": "enum ProjectInfo.VoteValidationStatus",
          "name": "voteValidationStatus",
          "type": "uint8"
        },
        {
          "internalType": "enum ProjectInfo.FundraisingStatus",
          "name": "fundraisingStatus",
          "type": "uint8"
        },
        {
          "internalType": "uint256",
          "name": "numberOfInvestors",
          "type": "uint256"
        }
      ],
      "stateMutability": "view",
      "type": "function",
      "constant": true
    },
    {
      "inputs": [],
      "name": "renounceOwnership",
      "outputs": [],
      "stateMutability": "nonpayable",
      "type": "function"
    },
    {
      "inputs": [
        {
          "internalType": "address",
          "name": "newOwner",
          "type": "address"
        }
      ],
      "name": "transferOwnership",
      "outputs": [],
      "stateMutability": "nonpayable",
      "type": "function"
    },
    {
      "inputs": [
        {
          "internalType": "uint256",
          "name": "_projectId",
          "type": "uint256"
        }
      ],
      "name": "getProjectOwner",
      "outputs": [
        {
          "internalType": "address",
          "name": "",
          "type": "address"
        }
      ],
      "stateMutability": "view",
      "type": "function",
      "constant": true
    },
    {
      "inputs": [
        {
          "internalType": "address",
          "name": "_projectOwner",
          "type": "address"
        },
        {
          "internalType": "string",
          "name": "_projectTitle",
          "type": "string"
        },
        {
          "internalType": "uint256",
          "name": "_goalAmount",
          "type": "uint256"
        },
        {
          "internalType": "uint256",
          "name": "_totalPhases",
          "type": "uint256"
        },
        {
          "internalType": "uint256",
          "name": "_fundraisingDeadline",
          "type": "uint256"
        },
        {
          "internalType": "uint256",
          "name": "_minContribution",
          "type": "uint256"
        }
      ],
      "name": "addProject",
      "outputs": [],
      "stateMutability": "nonpayable",
      "type": "function"
    },
    {
      "inputs": [
        {
          "internalType": "string",
          "name": "_projectTitle",
          "type": "string"
        }
      ],
      "name": "getProjectIndexByTitle_2",
      "outputs": [
        {
          "internalType": "uint256",
          "name": "",
          "type": "uint256"
        }
      ],
      "stateMutability": "view",
      "type": "function",
      "constant": true
    },
    {
      "inputs": [],
      "name": "getLastProjectId",
      "outputs": [
        {
          "internalType": "uint256",
          "name": "",
          "type": "uint256"
        }
      ],
      "stateMutability": "view",
      "type": "function",
      "constant": true
    },
    {
      "inputs": [
        {
          "internalType": "uint256",
          "name": "_projectId",
          "type": "uint256"
        }
      ],
      "name": "getProjectCurrentPhase",
      "outputs": [
        {
          "internalType": "uint256",
          "name": "",
          "type": "uint256"
        }
      ],
      "stateMutability": "view",
      "type": "function",
      "constant": true
    },
    {
      "inputs": [
        {
          "internalType": "uint256",
          "name": "_projectId",
          "type": "uint256"
        }
      ],
      "name": "incrementProjectCurrentPhase",
      "outputs": [],
      "stateMutability": "nonpayable",
      "type": "function"
    },
    {
      "inputs": [
        {
          "internalType": "uint256",
          "name": "_projectId",
          "type": "uint256"
        },
        {
          "internalType": "uint256",
          "name": "_phaseId",
          "type": "uint256"
        }
      ],
      "name": "getProjectPhaseInfo",
      "outputs": [
        {
          "components": [
            {
              "internalType": "bool",
              "name": "isUnlockSubmittedToVote",
              "type": "bool"
            },
            {
              "internalType": "bool",
              "name": "isUnlockAccepted",
              "type": "bool"
            },
            {
              "internalType": "bool",
              "name": "isUnlockExecuted",
              "type": "bool"
            },
            {
              "internalType": "uint256",
              "name": "amountToUnlock",
              "type": "uint256"
            },
            {
              "internalType": "enum ProjectInfo.VoteUnlockStatus",
              "name": "voteUnlockStatus",
              "type": "uint8"
            }
          ],
          "internalType": "struct ProjectInfo.PhaseInfo",
          "name": "",
          "type": "tuple"
        }
      ],
      "stateMutability": "view",
      "type": "function",
      "constant": true
    },
    {
      "inputs": [
        {
          "internalType": "uint256",
          "name": "_projectId",
          "type": "uint256"
        },
        {
          "internalType": "uint256",
          "name": "_phaseId",
          "type": "uint256"
        }
      ],
      "name": "getUnlockSubmittedToVote",
      "outputs": [
        {
          "internalType": "bool",
          "name": "",
          "type": "bool"
        }
      ],
      "stateMutability": "view",
      "type": "function",
      "constant": true
    },
    {
      "inputs": [
        {
          "internalType": "uint256",
          "name": "_projectId",
          "type": "uint256"
        },
        {
          "internalType": "uint256",
          "name": "_phaseId",
          "type": "uint256"
        },
        {
          "internalType": "bool",
          "name": "_decision",
          "type": "bool"
        }
      ],
      "name": "setUnlockSubmittedToVote",
      "outputs": [],
      "stateMutability": "nonpayable",
      "type": "function"
    },
    {
      "inputs": [
        {
          "internalType": "uint256",
          "name": "_projectId",
          "type": "uint256"
        },
        {
          "internalType": "uint256",
          "name": "_phaseId",
          "type": "uint256"
        }
      ],
      "name": "getPhaseUnlockAccepted",
      "outputs": [
        {
          "internalType": "bool",
          "name": "",
          "type": "bool"
        }
      ],
      "stateMutability": "view",
      "type": "function",
      "constant": true
    },
    {
      "inputs": [
        {
          "internalType": "uint256",
          "name": "_projectId",
          "type": "uint256"
        },
        {
          "internalType": "uint256",
          "name": "_phaseId",
          "type": "uint256"
        },
        {
          "internalType": "bool",
          "name": "_decision",
          "type": "bool"
        }
      ],
      "name": "setPhaseUnlockAccepted",
      "outputs": [],
      "stateMutability": "nonpayable",
      "type": "function"
    },
    {
      "inputs": [
        {
          "internalType": "uint256",
          "name": "_projectId",
          "type": "uint256"
        },
        {
          "internalType": "uint256",
          "name": "_phaseId",
          "type": "uint256"
        }
      ],
      "name": "getPhaseUnlockExecuted",
      "outputs": [
        {
          "internalType": "bool",
          "name": "",
          "type": "bool"
        }
      ],
      "stateMutability": "view",
      "type": "function",
      "constant": true
    },
    {
      "inputs": [
        {
          "internalType": "uint256",
          "name": "_projectId",
          "type": "uint256"
        },
        {
          "internalType": "uint256",
          "name": "_phaseId",
          "type": "uint256"
        },
        {
          "internalType": "bool",
          "name": "_decision",
          "type": "bool"
        }
      ],
      "name": "setPhaseUnlockExecuted",
      "outputs": [],
      "stateMutability": "nonpayable",
      "type": "function"
    },
    {
      "inputs": [
        {
          "internalType": "uint256",
          "name": "_projectId",
          "type": "uint256"
        },
        {
          "internalType": "uint256",
          "name": "_phaseId",
          "type": "uint256"
        }
      ],
      "name": "getPhaseAmoutToUnlock",
      "outputs": [
        {
          "internalType": "uint256",
          "name": "",
          "type": "uint256"
        }
      ],
      "stateMutability": "view",
      "type": "function",
      "constant": true
    },
    {
      "inputs": [
        {
          "internalType": "uint256",
          "name": "_projectId",
          "type": "uint256"
        },
        {
          "internalType": "uint256",
          "name": "_phaseId",
          "type": "uint256"
        },
        {
          "internalType": "uint256",
          "name": "_amount",
          "type": "uint256"
        }
      ],
      "name": "setPhaseAmoutToUnlock",
      "outputs": [],
      "stateMutability": "nonpayable",
      "type": "function"
    },
    {
      "inputs": [
        {
          "internalType": "uint256",
          "name": "_projectId",
          "type": "uint256"
        }
      ],
      "name": "getProjectTotalPhases",
      "outputs": [
        {
          "internalType": "uint256",
          "name": "",
          "type": "uint256"
        }
      ],
      "stateMutability": "view",
      "type": "function",
      "constant": true
    },
    {
      "inputs": [],
      "name": "getNumProjects",
      "outputs": [
        {
          "internalType": "uint256",
          "name": "",
          "type": "uint256"
        }
      ],
      "stateMutability": "view",
      "type": "function",
      "constant": true
    },
    {
      "inputs": [
        {
          "internalType": "uint256",
          "name": "_projectId",
          "type": "uint256"
        }
      ],
      "name": "getVoteValidationStatus",
      "outputs": [
        {
          "internalType": "enum ProjectInfo.VoteValidationStatus",
          "name": "",
          "type": "uint8"
        }
      ],
      "stateMutability": "view",
      "type": "function",
      "constant": true
    },
    {
      "inputs": [
        {
          "internalType": "uint256",
          "name": "_projectId",
          "type": "uint256"
        },
        {
          "internalType": "enum ProjectInfo.VoteValidationStatus",
          "name": "_newStatus",
          "type": "uint8"
        }
      ],
      "name": "setVoteValidationStatus",
      "outputs": [],
      "stateMutability": "nonpayable",
      "type": "function"
    },
    {
      "inputs": [
        {
          "internalType": "uint256",
          "name": "_projectId",
          "type": "uint256"
        },
        {
          "internalType": "uint256",
          "name": "_phase",
          "type": "uint256"
        }
      ],
      "name": "getVoteUnlockStatus",
      "outputs": [
        {
          "internalType": "enum ProjectInfo.VoteUnlockStatus",
          "name": "",
          "type": "uint8"
        }
      ],
      "stateMutability": "view",
      "type": "function",
      "constant": true
    },
    {
      "inputs": [
        {
          "internalType": "uint256",
          "name": "_projectId",
          "type": "uint256"
        },
        {
          "internalType": "uint256",
          "name": "_phase",
          "type": "uint256"
        },
        {
          "internalType": "enum ProjectInfo.VoteUnlockStatus",
          "name": "_newStatus",
          "type": "uint8"
        }
      ],
      "name": "setVoteUnlockStatus",
      "outputs": [],
      "stateMutability": "nonpayable",
      "type": "function"
    },
    {
      "inputs": [
        {
          "internalType": "uint256",
          "name": "_projectId",
          "type": "uint256"
        }
      ],
      "name": "getTotalRaised",
      "outputs": [
        {
          "internalType": "uint256",
          "name": "",
          "type": "uint256"
        }
      ],
      "stateMutability": "view",
      "type": "function",
      "constant": true
    },
    {
      "inputs": [
        {
          "internalType": "uint256",
          "name": "_projectId",
          "type": "uint256"
        },
        {
          "internalType": "uint256",
          "name": "_amount",
          "type": "uint256"
        }
      ],
      "name": "incrementTotalRaised",
      "outputs": [],
      "stateMutability": "nonpayable",
      "type": "function"
    },
    {
      "inputs": [
        {
          "internalType": "uint256",
          "name": "_projectId",
          "type": "uint256"
        },
        {
          "internalType": "uint256",
          "name": "_amount",
          "type": "uint256"
        }
      ],
      "name": "decrementTotalRaised",
      "outputs": [],
      "stateMutability": "nonpayable",
      "type": "function"
    },
    {
      "inputs": [
        {
          "internalType": "uint256",
          "name": "_projectId",
          "type": "uint256"
        },
        {
          "internalType": "address",
          "name": "_addr",
          "type": "address"
        }
      ],
      "name": "getContributions",
      "outputs": [
        {
          "internalType": "uint256",
          "name": "",
          "type": "uint256"
        }
      ],
      "stateMutability": "view",
      "type": "function",
      "constant": true
    },
    {
      "inputs": [
        {
          "internalType": "uint256",
          "name": "_projectId",
          "type": "uint256"
        },
        {
          "internalType": "address",
          "name": "_addr",
          "type": "address"
        },
        {
          "internalType": "uint256",
          "name": "_amount",
          "type": "uint256"
        }
      ],
      "name": "incrementContributions",
      "outputs": [],
      "stateMutability": "nonpayable",
      "type": "function"
    },
    {
      "inputs": [
        {
          "internalType": "uint256",
          "name": "_projectId",
          "type": "uint256"
        }
      ],
      "name": "getNumInvestors",
      "outputs": [
        {
          "internalType": "uint256",
          "name": "",
          "type": "uint256"
        }
      ],
      "stateMutability": "view",
      "type": "function",
      "constant": true
    },
    {
      "inputs": [
        {
          "internalType": "uint256",
          "name": "_projectId",
          "type": "uint256"
        },
        {
          "internalType": "address",
          "name": "_investor",
          "type": "address"
        }
      ],
      "name": "hasContributed",
      "outputs": [
        {
          "internalType": "bool",
          "name": "",
          "type": "bool"
        }
      ],
      "stateMutability": "view",
      "type": "function",
      "constant": true
    },
    {
      "inputs": [
        {
          "internalType": "uint256",
          "name": "_projectId",
          "type": "uint256"
        },
        {
          "internalType": "address",
          "name": "_addr",
          "type": "address"
        },
        {
          "internalType": "uint256",
          "name": "_amount",
          "type": "uint256"
        }
      ],
      "name": "setContributions",
      "outputs": [],
      "stateMutability": "nonpayable",
      "type": "function"
    },
    {
      "inputs": [
        {
          "internalType": "uint256",
          "name": "_projectId",
          "type": "uint256"
        },
        {
          "internalType": "uint256",
          "name": "index",
          "type": "uint256"
        }
      ],
      "name": "getContributor",
      "outputs": [
        {
          "internalType": "address",
          "name": "",
          "type": "address"
        }
      ],
      "stateMutability": "view",
      "type": "function",
      "constant": true
    },
    {
      "inputs": [
        {
          "internalType": "uint256",
          "name": "_projectId",
          "type": "uint256"
        }
      ],
      "name": "calculatePercentageContribs",
      "outputs": [],
      "stateMutability": "nonpayable",
      "type": "function"
    },
    {
      "inputs": [
        {
          "internalType": "uint256",
          "name": "_projectId",
          "type": "uint256"
        },
        {
          "internalType": "address",
          "name": "_addr",
          "type": "address"
        }
      ],
      "name": "getVoteWeight",
      "outputs": [
        {
          "internalType": "uint256",
          "name": "",
          "type": "uint256"
        }
      ],
      "stateMutability": "view",
      "type": "function",
      "constant": true
    },
    {
      "inputs": [
        {
          "internalType": "uint256",
          "name": "_projectId",
          "type": "uint256"
        }
      ],
      "name": "getGoalAmount",
      "outputs": [
        {
          "internalType": "uint256",
          "name": "",
          "type": "uint256"
        }
      ],
      "stateMutability": "view",
      "type": "function",
      "constant": true
    },
    {
      "inputs": [
        {
          "internalType": "uint256",
          "name": "_projectId",
          "type": "uint256"
        }
      ],
      "name": "getFundraisingStatus",
      "outputs": [
        {
          "internalType": "enum ProjectInfo.FundraisingStatus",
          "name": "",
          "type": "uint8"
        }
      ],
      "stateMutability": "view",
      "type": "function",
      "constant": true
    },
    {
      "inputs": [
        {
          "internalType": "uint256",
          "name": "_projectId",
          "type": "uint256"
        },
        {
          "internalType": "enum ProjectInfo.FundraisingStatus",
          "name": "_newStatus",
          "type": "uint8"
        }
      ],
      "name": "setFundraisingStatus",
      "outputs": [],
      "stateMutability": "nonpayable",
      "type": "function"
    },
    {
      "inputs": [
        {
          "internalType": "uint256",
          "name": "_projectId",
          "type": "uint256"
        }
      ],
      "name": "getFundraisingDeadline",
      "outputs": [
        {
          "internalType": "uint256",
          "name": "",
          "type": "uint256"
        }
      ],
      "stateMutability": "view",
      "type": "function",
      "constant": true
    },
    {
      "inputs": [
        {
          "internalType": "uint256",
          "name": "_projectId",
          "type": "uint256"
        },
        {
          "internalType": "uint256",
          "name": "deadline",
          "type": "uint256"
        }
      ],
      "name": "setFundraisingDeadline",
      "outputs": [],
      "stateMutability": "nonpayable",
      "type": "function"
    },
    {
      "inputs": [
        {
          "internalType": "uint256",
          "name": "_projectId",
          "type": "uint256"
        }
      ],
      "name": "getMinContributionPerInvestor",
      "outputs": [
        {
          "internalType": "uint256",
          "name": "",
          "type": "uint256"
        }
      ],
      "stateMutability": "view",
      "type": "function",
      "constant": true
    },
    {
      "inputs": [
        {
          "internalType": "uint256",
          "name": "_projectId",
          "type": "uint256"
        }
      ],
      "name": "getRemainingFunds",
      "outputs": [
        {
          "internalType": "uint256",
          "name": "",
          "type": "uint256"
        }
      ],
      "stateMutability": "view",
      "type": "function",
      "constant": true
    },
    {
      "inputs": [
        {
          "internalType": "uint256",
          "name": "_projectId",
          "type": "uint256"
        }
      ],
      "name": "getTotalUnlocked",
      "outputs": [
        {
          "internalType": "uint256",
          "name": "",
          "type": "uint256"
        }
      ],
      "stateMutability": "view",
      "type": "function",
      "constant": true
    },
    {
      "inputs": [
        {
          "internalType": "uint256",
          "name": "_projectId",
          "type": "uint256"
        },
        {
          "internalType": "uint256",
          "name": "_amount",
          "type": "uint256"
        }
      ],
      "name": "decrementRemainingFunds",
      "outputs": [],
      "stateMutability": "nonpayable",
      "type": "function"
    },
    {
      "inputs": [
        {
          "internalType": "uint256",
          "name": "_projectId",
          "type": "uint256"
        },
        {
          "internalType": "uint256",
          "name": "_amount",
          "type": "uint256"
        }
      ],
      "name": "incrementTotalUnlocked",
      "outputs": [],
      "stateMutability": "nonpayable",
      "type": "function"
    },
    {
      "inputs": [],
      "name": "IncrementNumProjects",
      "outputs": [],
      "stateMutability": "nonpayable",
      "type": "function"
    }
  ],
  "bytecode": "0x608060405234801561001057600080fd5b5061001a3361001f565b61006f565b600080546001600160a01b038381166001600160a01b0319831681178455604051919092169283917f8be0079c531659141344cd1fd0a4f28419497f9722a3daafe3b4186f6b6457e09190a35050565b6119708061007e6000396000f3fe608060405234801561001057600080fd5b50600436106102a05760003560e01c8063715018a6116101675780639d762ede116100ce578063b5b96ae011610087578063b5b96ae01461084e578063c04c15c71461088a578063f2fde38b146108c2578063f39572f6146108d5578063f7a9454314610906578063f801f6a21461036657600080fd5b80639d762ede1461073c5780639f1083ad14610781578063a6a9898c14610794578063aafc92d6146107c6578063ab2b6bab14610800578063ab49ed571461082b57600080fd5b8063873a839d11610120578063873a839d146106b25780638778c1e5146106ba5780638da5cb5b146106cd57806392256aec146106de57806392d4c4a5146106f15780639349bdf31461070457600080fd5b8063715018a614610603578063739d48a41461060b5780637875c60b1461062b5780637eba55731461063e5780637f8ec4b21461067b5780638487877f1461069f57600080fd5b80633c9fd8971161020b57806350fadbe0116101c457806350fadbe01461055f578063579a1c22146105835780636128e3cc146105a3578063638616a6146105ca57806367e2fc36146105dd5780636c4fd0fc146105f057600080fd5b80633c9fd897146104235780633d50e5a514610436578063429aeb1b1461049e57806344a982e7146104b157806346eb2620146104dc5780634b784aea1461051857600080fd5b80631e378b5c1161025d5780631e378b5c1461038157806320695edf146103a457806320eeddae146103c75780632a51119f146103da5780632b2156a4146103fd578063391cfce41461041057600080fd5b806305bb6326146102a55780630ffdb353146102db5780631126685e146103205780631610c42b1461034357806316ff5b87146103665780631dccbcde1461036e575b600080fd5b6102c86102b3366004611228565b60009081526002602052604090206003015490565b6040519081526020015b60405180910390f35b61031e6102e9366004611241565b600092835260036020908152604080852093855260089093019052912080549115156101000261ff0019909216919091179055565b005b6102c861032e366004611228565b60009081526003602052604090206005015490565b6102c8610351366004611228565b60009081526002602052604090206004015490565b6001546102c8565b61031e61037c36600461127f565b610929565b6102c861038f366004611228565b60009081526002602052604090206005015490565b6102c86103b2366004611228565b60009081526003602052604090206002015490565b6102c86103d536600461127f565b610953565b6102c86103e8366004611228565b60009081526002602052604090206006015490565b61031e61040b36600461127f565b61097a565b61031e61041e3660046112ae565b61099b565b61031e61043136600461127f565b6109ff565b61048b610444366004611228565b600360208190526000918252604090912080546001820154600283015493830154600484015460059094015460ff9384169592949293919280831692610100909104169087565b6040516102d29796959493929190611312565b61031e6104ac36600461141d565b610a20565b6104c46104bf36600461127f565b610a97565b6040516001600160a01b0390911681526020016102d2565b61031e6104ea366004611241565b6000928352600360209081526040808520938552600890930190529120805460ff1916911515919091179055565b61054f61052636600461127f565b600091825260036020908152604080842092845260089092019052902054610100900460ff1690565b60405190151581526020016102d2565b6102c861056d366004611228565b6000908152600360208190526040909120015490565b61059661059136600461127f565b610ad6565b6040516102d2919061148e565b6105b66105b1366004611228565b610b99565b6040516102d298979695949392919061151f565b61031e6105d836600461127f565b610cf4565b61031e6105eb366004611228565b610d15565b6102c86105fe366004611585565b610e09565b61031e610e70565b61061e61061936600461127f565b610e84565b6040516102d291906115c2565b61031e6106393660046115d5565b610ed2565b6102c861064c366004611603565b60008281526003602090815260408083206001600160a01b038516845260070190915290206001015492915050565b6102c8610689366004611228565b6000908152600260208190526040909120015490565b61031e6106ad3660046112ae565b610f3c565b61031e610f75565b61031e6106c836600461162f565b610f8e565b6000546001600160a01b03166104c4565b6104c46106ec366004611228565b611056565b61061e6106ff366004611228565b61109c565b61054f61071236600461127f565b60009182526003602090815260408084209284526008909201905290205462010000900460ff1690565b61031e61074a366004611241565b60009283526003602090815260408085209385526008909301905291208054911515620100000262ff000019909216919091179055565b61031e61078f366004611228565b6110db565b61054f6107a236600461127f565b60009182526003602090815260408084209284526008909201905290205460ff1690565b6102c86107d4366004611603565b60008281526003602090815260408083206001600160a01b038516845260070190915290205492915050565b61061e61080e366004611228565b600090815260036020526040902060040154610100900460ff1690565b6102c8610839366004611228565b60009081526003602052604090206001015490565b61054f61085c366004611603565b60009182526003602090815260408084206001600160a01b0393909316845260079092019052902054151590565b61031e61089836600461162f565b60009283526003602090815260408085206001600160a01b03909416855260079093019052912055565b61031e6108d0366004611664565b611105565b61031e6108e3366004611686565b600092835260036020908152604080852093855260089093019052912060010155565b61031e61091436600461127f565b60009182526002602052604090912060050155565b6000828152600360208190526040822001805483929061094a9084906116c8565b90915550505050565b60008281526003602090815260408083208484526008019091529020600101545b92915050565b6000828152600360205260408120600201805483929061094a9084906116db565b816001548111156109c75760405162461bcd60e51b81526004016109be906116ee565b60405180910390fd5b6000838152600360205260409020600401805483919060ff191660018360058111156109f5576109f56112de565b0217905550505050565b6000828152600360205260408120600101805483929061094a9084906116c8565b610a2861117e565b6001806000828254610a3a91906116db565b909155505060018054600090815260026020526040902080546001600160a01b0319166001600160a01b038916178155908101610a77878261179c565b506002810194909455600484019290925560058301556006909101555050565b6000828152600360205260408120600601805483908110610aba57610aba61185c565b6000918252602090912001546001600160a01b03169392505050565b610b056040805160a0810182526000808252602082018190529181018290526060810182905290608082015290565b6000838152600360209081526040808320858452600801825291829020825160a081018452815460ff8082161515835261010082048116151594830194909452620100009004831615159381019390935260018101546060840152600281015490916080840191166005811115610b7e57610b7e6112de565b6005811115610b8f57610b8f6112de565b9052509392505050565b600260205260009081526040902080546001820180546001600160a01b039092169291610bc590611719565b80601f0160208091040260200160405190810160405280929190818152602001828054610bf190611719565b8015610c3e5780601f10610c1357610100808354040283529160200191610c3e565b820191906000526020600020905b815481529060010190602001808311610c2157829003601f168201915b505050505090806002015490806003015490806004015490806005015490806006015490806007018054610c7190611719565b80601f0160208091040260200160405190810160405280929190818152602001828054610c9d90611719565b8015610cea5780601f10610cbf57610100808354040283529160200191610cea565b820191906000526020600020905b815481529060010190602001808311610ccd57829003601f168201915b5050505050905088565b6000828152600360205260408120600101805483929061094a9084906116db565b60005b600082815260036020526040902060050154811015610e05576000828152600360205260408120600601805483908110610d5457610d5461185c565b600091825260208083209091015485835260039091526040909120600101546001600160a01b03909116915015610df257600083815260036020908152604080832060018101546001600160a01b03861685526007909101909252822054610dbd906064611872565b610dc79190611889565b60008581526003602090815260408083206001600160a01b0387168452600701909152902060010155505b5080610dfd816118ab565b915050610d18565b5050565b6000805b600154811015610e6757828051906020012060026000838152602001908152602001600020600101604051610e4291906118c4565b604051809103902003610e555792915050565b80610e5f816118ab565b915050610e0d565b50600092915050565b610e7861117e565b610e8260006111d8565b565b600082600154811115610ea95760405162461bcd60e51b81526004016109be906116ee565b505060009182526003602090815260408084209284526008909201905290206002015460ff1690565b82600154811115610ef55760405162461bcd60e51b81526004016109be906116ee565b60008481526003602090815260408083208684526008019091529020600201805483919060ff19166001836005811115610f3157610f316112de565b021790555050505050565b6000828152600360205260409020600401805482919061ff001916610100836005811115610f6c57610f6c6112de565b02179055505050565b6001806000828254610f8791906116db565b9091555050565b60008381526003602090815260408083206001600160a01b03861684526007019091528120549003611017576000838152600360205260408120600501805491610fd7836118ab565b909155505060008381526003602090815260408220600601805460018101825590835291200180546001600160a01b0319166001600160a01b0384161790555b60008381526003602090815260408083206001600160a01b03861684526007019091528120805483929061104c9084906116db565b9091555050505050565b60008160015481111561107b5760405162461bcd60e51b81526004016109be906116ee565b6000838152600260205260409020546001600160a01b031691505b50919050565b6000816001548111156110c15760405162461bcd60e51b81526004016109be906116ee565b505060009081526003602052604090206004015460ff1690565b60008181526002602052604081206003018054600192906110fd9084906116db565b909155505050565b61110d61117e565b6001600160a01b0381166111725760405162461bcd60e51b815260206004820152602660248201527f4f776e61626c653a206e6577206f776e657220697320746865207a65726f206160448201526564647265737360d01b60648201526084016109be565b61117b816111d8565b50565b6000546001600160a01b03163314610e825760405162461bcd60e51b815260206004820181905260248201527f4f776e61626c653a2063616c6c6572206973206e6f7420746865206f776e657260448201526064016109be565b600080546001600160a01b038381166001600160a01b0319831681178455604051919092169283917f8be0079c531659141344cd1fd0a4f28419497f9722a3daafe3b4186f6b6457e09190a35050565b60006020828403121561123a57600080fd5b5035919050565b60008060006060848603121561125657600080fd5b83359250602084013591506040840135801515811461127457600080fd5b809150509250925092565b6000806040838503121561129257600080fd5b50508035926020909101359150565b6006811061117b57600080fd5b600080604083850312156112c157600080fd5b8235915060208301356112d3816112a1565b809150509250929050565b634e487b7160e01b600052602160045260246000fd5b6006811061117b57634e487b7160e01b600052602160045260246000fd5b600060e082019050881515825287602083015286604083015285606083015261133a856112f4565b846080830152611349846112f4565b60a082019390935260c0015295945050505050565b80356001600160a01b038116811461137557600080fd5b919050565b634e487b7160e01b600052604160045260246000fd5b600082601f8301126113a157600080fd5b813567ffffffffffffffff808211156113bc576113bc61137a565b604051601f8301601f19908116603f011681019082821181831017156113e4576113e461137a565b816040528381528660208588010111156113fd57600080fd5b836020870160208301376000602085830101528094505050505092915050565b60008060008060008060c0878903121561143657600080fd5b61143f8761135e565b9550602087013567ffffffffffffffff81111561145b57600080fd5b61146789828a01611390565b96999698505050506040850135946060810135946080820135945060a09091013592509050565b600060a0820190508251151582526020830151151560208301526040830151151560408301526060830151606083015260808301516114cc816112f4565b8060808401525092915050565b6000815180845260005b818110156114ff576020818501810151868301820152016114e3565b506000602082860101526020601f19601f83011685010191505092915050565b6001600160a01b0389168152610100602082018190526000906115448382018b6114d9565b90508860408401528760608401528660808401528560a08401528460c084015282810360e084015261157681856114d9565b9b9a5050505050505050505050565b60006020828403121561159757600080fd5b813567ffffffffffffffff8111156115ae57600080fd5b6115ba84828501611390565b949350505050565b602081016115cf836112f4565b91905290565b6000806000606084860312156115ea57600080fd5b83359250602084013591506040840135611274816112a1565b6000806040838503121561161657600080fd5b823591506116266020840161135e565b90509250929050565b60008060006060848603121561164457600080fd5b833592506116546020850161135e565b9150604084013590509250925092565b60006020828403121561167657600080fd5b61167f8261135e565b9392505050565b60008060006060848603121561169b57600080fd5b505081359360208301359350604090920135919050565b634e487b7160e01b600052601160045260246000fd5b81810381811115610974576109746116b2565b80820180821115610974576109746116b2565b602080825260119082015270125b9d985b1a5908141c9bda9958dd1251607a1b604082015260600190565b600181811c9082168061172d57607f821691505b60208210810361109657634e487b7160e01b600052602260045260246000fd5b601f82111561179757600081815260208120601f850160051c810160208610156117745750805b601f850160051c820191505b8181101561179357828155600101611780565b5050505b505050565b815167ffffffffffffffff8111156117b6576117b661137a565b6117ca816117c48454611719565b8461174d565b602080601f8311600181146117ff57600084156117e75750858301515b600019600386901b1c1916600185901b178555611793565b600085815260208120601f198616915b8281101561182e5788860151825594840194600190910190840161180f565b508582101561184c5787850151600019600388901b60f8161c191681555b5050505050600190811b01905550565b634e487b7160e01b600052603260045260246000fd5b8082028115828204841417610974576109746116b2565b6000826118a657634e487b7160e01b600052601260045260246000fd5b500490565b6000600182016118bd576118bd6116b2565b5060010190565b60008083546118d281611719565b600182811680156118ea57600181146118ff5761192e565b60ff198416875282151583028701945061192e565b8760005260208060002060005b858110156119255781548a82015290840190820161190c565b50505082870194505b5092969550505050505056fea2646970667358221220e8ab17b4939932e313cefcddd01ed1b7009aa33bf4f5ba98c382733bbee770c364736f6c63430008130033",
  "immutableReferences": {},
  "source": "// SPDX-License-Identifier: MIT\n\npragma solidity 0.8.19;\nimport \"../node_modules/@openzeppelin/contracts/token/ERC20/IERC20.sol\";\nimport \"../node_modules/@openzeppelin/contracts/access/Ownable.sol\";\n\n\ncontract ProjectInfo  is Ownable {\n\n        enum  FundraisingStatus {\n            FundraisingPhaseOpen,\n            FundraisingPhaseClosed,\n            FundraisingSuccessful,\n            FundraisingFailed,\n            WithdrawalPhaseOpen,\n            WithdrawalPhaseClosed\n        }\n\n        enum VoteValidationStatus\n        {\n            RegisterVotersOpen, // 0\n            RegisterVotersClose,\n            VotingSessionOpen,\n            VotingSessionClose,\n            ProjectAccepted, // 4\n            ProjectRejected // 5\n        }\n\n        enum  VoteUnlockStatus {\n            UnlockProposalOpen,\n            UnlockProposalClose,\n            VotingSessionOpen,\n            VotingSessionClose,\n            UnlockAccepted,\n            UnlockRejected\n        }\n        struct PhaseInfo {\n            bool             isUnlockSubmittedToVote;\n            bool             isUnlockAccepted;\n            bool             isUnlockExecuted;\n            uint256          amountToUnlock;\n            VoteUnlockStatus voteUnlockStatus; \n        }\n\n        struct Contributions {\n            uint256 amountInvested;\n            uint256 amountInvestedInPercentage;\n        }\n    struct ProjectProgressInfo { // validation fundraising // validation phase unlock\n            bool        isValidated;\n            uint256     totalRaised;\n            uint256     totalUnlocked;\n            uint256     remainingFunds;\n\n            VoteValidationStatus                      voteValidationStatus;\n            FundraisingStatus                         fundraisingStatus;\n\n            uint                                       numberOfInvestors; \n            address []                                 addressContributions;\n            mapping(address => Contributions)          contributions; // contributions[msg.sender] = amountInvested / amountInvestedInPercentage\n            \n            mapping(uint => PhaseInfo)                 phasesInfo; \n    } \n\n    struct ProjectGeneralInfo {     \n            address  projectOwner; // payable\n            string   projectTitle;\n            uint256  goalAmount;\n            uint     currentPhase;\n            uint     totalPhases;\n            uint     fundraisingDeadline;\n            uint     minContributionPerInvestor;\n            string   whitepaperLink;\n    }\n\n    uint numProjects;\n    mapping(uint => ProjectGeneralInfo)  public projectsGI;\n    mapping(uint => ProjectProgressInfo) public projectsPI;\n\n\n//////// Set projectOwner :\n    modifier isValidProjId(uint _projectId) {\n        require(_projectId <= numProjects, \"Invalid ProjectID\");\n        _;\n    }\n    // function setProjectOwner(address _projectOwner) public onlyOwner { // TODO : if not needed , to remove \n    //     require(_projectOwner != address(0), \"Invalid address\");\n    //     projectOwnersMap[_projectOwner] = true;\n    // }\n    function getProjectOwner(uint _projectId) external view isValidProjId(_projectId) returns(address){\n        return projectsGI[_projectId].projectOwner;\n    }\n///// Add Project \n\n    // remove if not needed TODO \n    // modifier onlyAdminOrProjectOwner() {\n    //     require(msg.sender == owner() , \"Unauthorized access\"); // || projectOwnersMap[msg.sender]\n    //     _;\n    // }\n\n    function addProject(address _projectOwner, string memory _projectTitle, uint _goalAmount, \n                     uint _totalPhases, uint256 _fundraisingDeadline, uint _minContribution) external onlyOwner \n   \n    {\n        numProjects += 1;\n        ProjectGeneralInfo storage newProject = projectsGI[numProjects];\n        \n        newProject.projectOwner     = _projectOwner;\n        newProject.projectTitle     = _projectTitle;\n        newProject.goalAmount       = _goalAmount;\n        newProject.totalPhases      = _totalPhases;\n        newProject.fundraisingDeadline        = _fundraisingDeadline; // Stack too deep\n        newProject.minContributionPerInvestor = _minContribution; // Stack too deep\n        //newProject.maxContributionPerInvestor = _maxContribution; // Stack too deep\n        //newProject.projectDeadline            = _projectDeadline; // Stack too deep\n        //newProject.startDate                  = _startDate; // Stack too deep\n        //newProject.endDate                    = _endDate; // Stack too deep\n        //newProject.whitepaperLink             = _whitepaperLink; // Stack too deep\n\n        //[_projectTitle]       = numProjects;\n    }\n\n//////// GETTERS & SETTERS \n\n    function getProjectIndexByTitle_2(string memory _projectTitle) public view returns (uint) {\n        for (uint i = 0; i < numProjects; i++) {\n            if (keccak256(bytes(projectsGI[i].projectTitle)) == keccak256(bytes(_projectTitle))) {\n                return i;\n            }\n        }\n        return 0; // if index = 0 ==> project not found \n    }\n\n    // function getProjectIdByTitle(string memory _projectTitle) public view returns (uint) {\n    //     return projectTitleToID[_projectTitle];\n    // }\n\n    function getLastProjectId() external view returns(uint)\n    {\n        return numProjects; \n    }\n    function getProjectCurrentPhase(uint _projectId) external view returns(uint) {\n        return projectsGI[_projectId].currentPhase;\n    }\n    function incrementProjectCurrentPhase(uint _projectId) external  {\n        projectsGI[_projectId].currentPhase +=1;\n    }\n    function getProjectPhaseInfo(uint _projectId, uint _phaseId) external view returns(PhaseInfo memory) {\n        return projectsPI[_projectId].phasesInfo[_phaseId];\n        //            mapping(uint => PhaseInfo) phasesInfo;  \n            // phasesInfo[phaseId]. isUnlockSubmittedToVote / isUnlockAccepted / isUnlockExecuted / amountToUnlock\n    \n    }\n    function getUnlockSubmittedToVote(uint _projectId, uint _phaseId) external view returns(bool) {\n        return projectsPI[_projectId].phasesInfo[_phaseId].isUnlockSubmittedToVote;\n    }\n    function setUnlockSubmittedToVote(uint _projectId, uint _phaseId, bool _decision) external {\n        projectsPI[_projectId].phasesInfo[_phaseId].isUnlockSubmittedToVote = _decision;\n    }\n    function getPhaseUnlockAccepted(uint _projectId, uint _phaseId) external view returns(bool) {\n        return projectsPI[_projectId].phasesInfo[_phaseId].isUnlockAccepted;\n    }\n    function setPhaseUnlockAccepted(uint _projectId, uint _phaseId, bool _decision) external {\n        projectsPI[_projectId].phasesInfo[_phaseId].isUnlockAccepted = _decision;\n    }\n    function getPhaseUnlockExecuted(uint _projectId, uint _phaseId) external view returns(bool) {\n        return projectsPI[_projectId].phasesInfo[_phaseId].isUnlockExecuted;\n    }\n    function setPhaseUnlockExecuted(uint _projectId, uint _phaseId, bool _decision) external {\n        projectsPI[_projectId].phasesInfo[_phaseId].isUnlockExecuted = _decision;\n    }\n    function getPhaseAmoutToUnlock(uint _projectId, uint _phaseId) external view returns(uint256) {\n        return projectsPI[_projectId].phasesInfo[_phaseId].amountToUnlock;\n    }\n    function setPhaseAmoutToUnlock(uint _projectId, uint _phaseId, uint256 _amount) external {\n        projectsPI[_projectId].phasesInfo[_phaseId].amountToUnlock = _amount;\n    }\n    function getProjectTotalPhases(uint _projectId) external view returns(uint) {\n        return projectsGI[_projectId].totalPhases;\n    }\n    // function getProjectIndexByOwner(address _projectOwner) public view returns (uint) {\n    //     return projectOwnerToIndex[_projectOwner];\n    // }\n\n    function getNumProjects() public view returns(uint)\n    {\n        return numProjects;\n    }\n\n\n\n    function getVoteValidationStatus(uint _projectId) public view isValidProjId(_projectId) returns (VoteValidationStatus) {\n        return projectsPI[_projectId].voteValidationStatus;\n    }\n\n    function setVoteValidationStatus(uint _projectId, VoteValidationStatus _newStatus) public isValidProjId(_projectId) \n    {\n        projectsPI[_projectId].voteValidationStatus = _newStatus;\n    }  \n    function getVoteUnlockStatus(uint _projectId, uint _phase) public view isValidProjId(_projectId) returns (VoteUnlockStatus) {\n        return projectsPI[_projectId].phasesInfo[_phase].voteUnlockStatus; \n    }\n    function setVoteUnlockStatus(uint _projectId, uint _phase, VoteUnlockStatus _newStatus) public isValidProjId(_projectId){\n        projectsPI[_projectId].phasesInfo[_phase].voteUnlockStatus = _newStatus; \n    }   \n\n    function getTotalRaised(uint _projectId) view external  returns(uint256) {\n        return projectsPI[_projectId].totalRaised;\n    }\n\n    function incrementTotalRaised(uint _projectId, uint256 _amount) external   {\n        projectsPI[_projectId].totalRaised += _amount;\n    }\n\n    function decrementTotalRaised(uint _projectId, uint256 _amount) external   {\n        projectsPI[_projectId].totalRaised -= _amount;\n    }\n    \n\n    function getContributions(uint _projectId,  address _addr) view public  returns(uint256) {\n        return projectsPI[_projectId].contributions[_addr].amountInvested;\n    }\n\n    function incrementContributions(uint _projectId, address _addr, uint256 _amount) external   {\n        if(projectsPI[_projectId].contributions[_addr].amountInvested == 0)\n        {\n            projectsPI[_projectId].numberOfInvestors ++; \n            projectsPI[_projectId].addressContributions.push(_addr);\n        }\n        projectsPI[_projectId].contributions[_addr].amountInvested += _amount;\n    }\n\n    function getNumInvestors(uint _projectId) external view returns(uint) {\n        return projectsPI[_projectId].numberOfInvestors;\n    }\n\n    function hasContributed(uint _projectId, address _investor) external view returns (bool) \n    {\n        return getContributions(_projectId, _investor) > 0;\n    }\n\n    function setContributions(uint _projectId,  address _addr,  uint256 _amount) public {\n        projectsPI[_projectId].contributions[_addr].amountInvested = _amount;\n    }\n\n    function getContributor(uint _projectId, uint index) external view returns(address) {\n        return projectsPI[_projectId].addressContributions[index];\n    }\n    function calculatePercentageContribs(uint _projectId) external \n    {\n        // Calculate the percentage of each investor's contribution\n        for (uint i = 0; i < projectsPI[_projectId].numberOfInvestors; i++) {\n            address investor = projectsPI[_projectId].addressContributions[i];\n            if(projectsPI[_projectId].totalRaised != 0)\n            {\n                uint256 contributionPercentage = (projectsPI[_projectId].contributions[investor].amountInvested * 100) / projectsPI[_projectId].totalRaised;\n                projectsPI[_projectId].contributions[investor].amountInvestedInPercentage = contributionPercentage;\n            }\n        }\n    }\n    function getVoteWeight(uint _projectId,  address _addr) external view returns(uint256) \n    {\n        return projectsPI[_projectId].contributions[_addr].amountInvestedInPercentage;\n    }\n    \n    function getGoalAmount(uint _projectId) view external  returns(uint256) {\n        return projectsGI[_projectId].goalAmount;\n    }\n\n    function getFundraisingStatus (uint _projectId) external view returns(FundraisingStatus){\n        return projectsPI[_projectId].fundraisingStatus;\n    }\n\n    function setFundraisingStatus (uint _projectId, FundraisingStatus _newStatus) external {\n        projectsPI[_projectId].fundraisingStatus = _newStatus;\n    }\n\n   // Stack too deep\n    function getFundraisingDeadline(uint _projectId)  external view returns (uint256) {\n        return projectsGI[_projectId].fundraisingDeadline;\n    }\n    function setFundraisingDeadline(uint _projectId, uint256 deadline)  external {\n        projectsGI[_projectId].fundraisingDeadline = deadline;\n   }\n\n   // Stack too deep\n   function getMinContributionPerInvestor(uint _projectId) external view returns (uint256) {\n       return projectsGI[_projectId].minContributionPerInvestor; \n   }\n\n    function getRemainingFunds(uint _projectId) external view returns(uint256){\n        return projectsPI[_projectId].remainingFunds;     \n    }\n\n    function getTotalUnlocked(uint _projectId) external view returns(uint256){\n        return projectsPI[_projectId].totalUnlocked;     \n    }\n\n    function decrementRemainingFunds(uint _projectId, uint256 _amount) external {\n        projectsPI[_projectId].remainingFunds -= _amount;     \n    }\n    function incrementTotalUnlocked(uint _projectId, uint256 _amount) external  {\n        projectsPI[_projectId].totalUnlocked += _amount;     \n    }\n\n    function IncrementNumProjects() external { // TODO to remove if not used \n                numProjects += 1;\n    }\n \n\n//////////////\n\n }\n",
  "sourcePath": "/Users/ilham_elbouloumi/Documents/WorkSpace_Blockchain_VSC/CommonSeedDAO/truffle/contracts/ProjectInfo.sol",
  "compiler": {
    "name": "solc",
    "version": "0.8.19+commit.7dd6d404.Emscripten.clang"
  },
  "schemaVersion": "3.4.12",
  "updatedAt": "2023-04-07T22:12:48.577Z",
  "networkType": "ethereum",
  "devdoc": {
    "kind": "dev",
    "methods": {
      "owner()": {
        "details": "Returns the address of the current owner."
      },
      "renounceOwnership()": {
        "details": "Leaves the contract without owner. It will not be possible to call `onlyOwner` functions anymore. Can only be called by the current owner. NOTE: Renouncing ownership will leave the contract without an owner, thereby removing any functionality that is only available to the owner."
      },
      "transferOwnership(address)": {
        "details": "Transfers ownership of the contract to a new account (`newOwner`). Can only be called by the current owner."
      }
    },
    "version": 1
  },
  "userdoc": {
    "kind": "user",
    "methods": {},
    "version": 1
  }
}