{
  "contractName": "SeedToken",
  "abi": [
    {
      "inputs": [],
      "stateMutability": "nonpayable",
      "type": "constructor"
    },
    {
      "anonymous": false,
      "inputs": [
        {
          "indexed": true,
          "internalType": "address",
          "name": "owner",
          "type": "address"
        },
        {
          "indexed": true,
          "internalType": "address",
          "name": "spender",
          "type": "address"
        },
        {
          "indexed": false,
          "internalType": "uint256",
          "name": "value",
          "type": "uint256"
        }
      ],
      "name": "Approval",
      "type": "event"
    },
    {
      "anonymous": false,
      "inputs": [
        {
          "indexed": true,
          "internalType": "address",
          "name": "previousOwner",
          "type": "address"
        },
        {
          "indexed": true,
          "internalType": "address",
          "name": "newOwner",
          "type": "address"
        }
      ],
      "name": "OwnershipTransferred",
      "type": "event"
    },
    {
      "anonymous": false,
      "inputs": [
        {
          "indexed": true,
          "internalType": "address",
          "name": "from",
          "type": "address"
        },
        {
          "indexed": true,
          "internalType": "address",
          "name": "to",
          "type": "address"
        },
        {
          "indexed": false,
          "internalType": "uint256",
          "name": "value",
          "type": "uint256"
        }
      ],
      "name": "Transfer",
      "type": "event"
    },
    {
      "inputs": [
        {
          "internalType": "address",
          "name": "owner",
          "type": "address"
        },
        {
          "internalType": "address",
          "name": "spender",
          "type": "address"
        }
      ],
      "name": "allowance",
      "outputs": [
        {
          "internalType": "uint256",
          "name": "",
          "type": "uint256"
        }
      ],
      "stateMutability": "view",
      "type": "function",
      "constant": true
    },
    {
      "inputs": [
        {
          "internalType": "address",
          "name": "spender",
          "type": "address"
        },
        {
          "internalType": "uint256",
          "name": "amount",
          "type": "uint256"
        }
      ],
      "name": "approve",
      "outputs": [
        {
          "internalType": "bool",
          "name": "",
          "type": "bool"
        }
      ],
      "stateMutability": "nonpayable",
      "type": "function"
    },
    {
      "inputs": [
        {
          "internalType": "address",
          "name": "account",
          "type": "address"
        }
      ],
      "name": "balanceOf",
      "outputs": [
        {
          "internalType": "uint256",
          "name": "",
          "type": "uint256"
        }
      ],
      "stateMutability": "view",
      "type": "function",
      "constant": true
    },
    {
      "inputs": [],
      "name": "decimals",
      "outputs": [
        {
          "internalType": "uint8",
          "name": "",
          "type": "uint8"
        }
      ],
      "stateMutability": "view",
      "type": "function",
      "constant": true
    },
    {
      "inputs": [
        {
          "internalType": "address",
          "name": "spender",
          "type": "address"
        },
        {
          "internalType": "uint256",
          "name": "subtractedValue",
          "type": "uint256"
        }
      ],
      "name": "decreaseAllowance",
      "outputs": [
        {
          "internalType": "bool",
          "name": "",
          "type": "bool"
        }
      ],
      "stateMutability": "nonpayable",
      "type": "function"
    },
    {
      "inputs": [],
      "name": "holdersCount",
      "outputs": [
        {
          "internalType": "uint256",
          "name": "",
          "type": "uint256"
        }
      ],
      "stateMutability": "view",
      "type": "function",
      "constant": true
    },
    {
      "inputs": [
        {
          "internalType": "address",
          "name": "spender",
          "type": "address"
        },
        {
          "internalType": "uint256",
          "name": "addedValue",
          "type": "uint256"
        }
      ],
      "name": "increaseAllowance",
      "outputs": [
        {
          "internalType": "bool",
          "name": "",
          "type": "bool"
        }
      ],
      "stateMutability": "nonpayable",
      "type": "function"
    },
    {
      "inputs": [],
      "name": "name",
      "outputs": [
        {
          "internalType": "string",
          "name": "",
          "type": "string"
        }
      ],
      "stateMutability": "view",
      "type": "function",
      "constant": true
    },
    {
      "inputs": [],
      "name": "owner",
      "outputs": [
        {
          "internalType": "address",
          "name": "",
          "type": "address"
        }
      ],
      "stateMutability": "view",
      "type": "function",
      "constant": true
    },
    {
      "inputs": [],
      "name": "renounceOwnership",
      "outputs": [],
      "stateMutability": "nonpayable",
      "type": "function"
    },
    {
      "inputs": [],
      "name": "symbol",
      "outputs": [
        {
          "internalType": "string",
          "name": "",
          "type": "string"
        }
      ],
      "stateMutability": "view",
      "type": "function",
      "constant": true
    },
    {
      "inputs": [],
      "name": "totalSupply",
      "outputs": [
        {
          "internalType": "uint256",
          "name": "",
          "type": "uint256"
        }
      ],
      "stateMutability": "view",
      "type": "function",
      "constant": true
    },
    {
      "inputs": [
        {
          "internalType": "address",
          "name": "to",
          "type": "address"
        },
        {
          "internalType": "uint256",
          "name": "amount",
          "type": "uint256"
        }
      ],
      "name": "transfer",
      "outputs": [
        {
          "internalType": "bool",
          "name": "",
          "type": "bool"
        }
      ],
      "stateMutability": "nonpayable",
      "type": "function"
    },
    {
      "inputs": [
        {
          "internalType": "address",
          "name": "from",
          "type": "address"
        },
        {
          "internalType": "address",
          "name": "to",
          "type": "address"
        },
        {
          "internalType": "uint256",
          "name": "amount",
          "type": "uint256"
        }
      ],
      "name": "transferFrom",
      "outputs": [
        {
          "internalType": "bool",
          "name": "",
          "type": "bool"
        }
      ],
      "stateMutability": "nonpayable",
      "type": "function"
    },
    {
      "inputs": [
        {
          "internalType": "address",
          "name": "newOwner",
          "type": "address"
        }
      ],
      "name": "transferOwnership",
      "outputs": [],
      "stateMutability": "nonpayable",
      "type": "function"
    }
  ],
  "bytecode": "0x60806040523480156200001157600080fd5b506040518060400160405280600481526020016314d1515160e21b8152506040518060400160405280600381526020016253444360e81b81525081600390816200005c9190620004e6565b5060046200006b8282620004e6565b5050506200008862000082620000b760201b60201c565b620000bb565b620000b1336200009b6012600a620006c7565b620000ab90633b9aca00620006df565b6200010d565b6200075b565b3390565b600580546001600160a01b038381166001600160a01b0319831681179093556040519116919082907f8be0079c531659141344cd1fd0a4f28419497f9722a3daafe3b4186f6b6457e090600090a35050565b6001600160a01b038216620001695760405162461bcd60e51b815260206004820152601f60248201527f45524332303a206d696e7420746f20746865207a65726f20616464726573730060448201526064015b60405180910390fd5b6200017760008383620001f0565b80600260008282546200018b9190620006f9565b90915550506001600160a01b038216600081815260208181526040808320805486019055518481527fddf252ad1be2c89b69c2b068fc378daa952ba7f163c4a11628f55a4df523b3ef910160405180910390a3620001ec60008383620003ee565b5050565b60008111620002315760405162461bcd60e51b8152602060048201819052602482015260008051602062001428833981519152604482015260640162000160565b6001600160a01b03831660009081526007602052604090205460ff161580156200027c57506103e862000279846001600160a01b031660009081526020819052604090205490565b10155b15620002c0576001600160a01b0383166000908152600760205260408120805460ff191660011790556006805491620002b5836200070f565b919050555062000352565b6001600160a01b03831660009081526007602052604090205460ff1680156200031657506103e88162000308856001600160a01b031660009081526020819052604090205490565b6200031491906200072b565b105b1562000352576001600160a01b0383166000908152600760205260408120805460ff1916905560068054916200034c8362000741565b91905055505b6001600160a01b03821660009081526007602052604090205460ff16158015620003aa57506103e8816200039b846001600160a01b031660009081526020819052604090205490565b620003a79190620006f9565b10155b15620003e9576001600160a01b0382166000908152600760205260408120805460ff191660011790556006805491620003e3836200070f565b91905055505b505050565b600081116200042f5760405162461bcd60e51b8152602060048201819052602482015260008051602062001428833981519152604482015260640162000160565b620003e98383836001600160e01b038416565b634e487b7160e01b600052604160045260246000fd5b600181811c908216806200046d57607f821691505b6020821081036200048e57634e487b7160e01b600052602260045260246000fd5b50919050565b601f821115620003e957600081815260208120601f850160051c81016020861015620004bd5750805b601f850160051c820191505b81811015620004de57828155600101620004c9565b505050505050565b81516001600160401b0381111562000502576200050262000442565b6200051a8162000513845462000458565b8462000494565b602080601f831160018114620005525760008415620005395750858301515b600019600386901b1c1916600185901b178555620004de565b600085815260208120601f198616915b82811015620005835788860151825594840194600190910190840162000562565b5085821015620005a25787850151600019600388901b60f8161c191681555b5050505050600190811b01905550565b634e487b7160e01b600052601160045260246000fd5b600181815b8085111562000609578160001904821115620005ed57620005ed620005b2565b80851615620005fb57918102915b93841c9390800290620005cd565b509250929050565b6000826200062257506001620006c1565b816200063157506000620006c1565b81600181146200064a5760028114620006555762000675565b6001915050620006c1565b60ff841115620006695762000669620005b2565b50506001821b620006c1565b5060208310610133831016604e8410600b84101617156200069a575081810a620006c1565b620006a68383620005c8565b8060001904821115620006bd57620006bd620005b2565b0290505b92915050565b6000620006d860ff84168362000611565b9392505050565b8082028115828204841417620006c157620006c1620005b2565b80820180821115620006c157620006c1620005b2565b600060018201620007245762000724620005b2565b5060010190565b81810381811115620006c157620006c1620005b2565b600081620007535762000753620005b2565b506000190190565b610cbd806200076b6000396000f3fe608060405234801561001057600080fd5b50600436106100f55760003560e01c806370a0823111610097578063a457c2d711610066578063a457c2d7146101e1578063a9059cbb146101f4578063dd62ed3e14610207578063f2fde38b1461021a57600080fd5b806370a082311461018b578063715018a6146101b45780638da5cb5b146101be57806395d89b41146101d957600080fd5b806323b872dd116100d357806323b872dd1461014d578063313ce56714610160578063395093511461016f5780636b4ed21b1461018257600080fd5b806306fdde03146100fa578063095ea7b31461011857806318160ddd1461013b575b600080fd5b61010261022d565b60405161010f9190610abc565b60405180910390f35b61012b610126366004610b26565b6102bf565b604051901515815260200161010f565b6002545b60405190815260200161010f565b61012b61015b366004610b50565b6102d9565b6040516012815260200161010f565b61012b61017d366004610b26565b6102fd565b61013f60065481565b61013f610199366004610b8c565b6001600160a01b031660009081526020819052604090205490565b6101bc61031f565b005b6005546040516001600160a01b03909116815260200161010f565b610102610333565b61012b6101ef366004610b26565b610342565b61012b610202366004610b26565b6103c2565b61013f610215366004610bae565b6103d0565b6101bc610228366004610b8c565b6103fb565b60606003805461023c90610be1565b80601f016020809104026020016040519081016040528092919081815260200182805461026890610be1565b80156102b55780601f1061028a576101008083540402835291602001916102b5565b820191906000526020600020905b81548152906001019060200180831161029857829003601f168201915b5050505050905090565b6000336102cd818585610474565b60019150505b92915050565b6000336102e7858285610598565b6102f2858585610612565b506001949350505050565b6000336102cd81858561031083836103d0565b61031a9190610c31565b610474565b6103276107c7565b6103316000610821565b565b60606004805461023c90610be1565b6000338161035082866103d0565b9050838110156103b55760405162461bcd60e51b815260206004820152602560248201527f45524332303a2064656372656173656420616c6c6f77616e63652062656c6f77604482015264207a65726f60d81b60648201526084015b60405180910390fd5b6102f28286868403610474565b6000336102cd818585610612565b6001600160a01b03918216600090815260016020908152604080832093909416825291909152205490565b6104036107c7565b6001600160a01b0381166104685760405162461bcd60e51b815260206004820152602660248201527f4f776e61626c653a206e6577206f776e657220697320746865207a65726f206160448201526564647265737360d01b60648201526084016103ac565b61047181610821565b50565b6001600160a01b0383166104d65760405162461bcd60e51b8152602060048201526024808201527f45524332303a20617070726f76652066726f6d20746865207a65726f206164646044820152637265737360e01b60648201526084016103ac565b6001600160a01b0382166105375760405162461bcd60e51b815260206004820152602260248201527f45524332303a20617070726f766520746f20746865207a65726f206164647265604482015261737360f01b60648201526084016103ac565b6001600160a01b0383811660008181526001602090815260408083209487168084529482529182902085905590518481527f8c5be1e5ebec7d5bd14f71427d1e84f3dd0314c0f7b2291e5b200ac8c7c3b925910160405180910390a3505050565b60006105a484846103d0565b9050600019811461060c57818110156105ff5760405162461bcd60e51b815260206004820152601d60248201527f45524332303a20696e73756666696369656e7420616c6c6f77616e636500000060448201526064016103ac565b61060c8484848403610474565b50505050565b6001600160a01b0383166106765760405162461bcd60e51b815260206004820152602560248201527f45524332303a207472616e736665722066726f6d20746865207a65726f206164604482015264647265737360d81b60648201526084016103ac565b6001600160a01b0382166106d85760405162461bcd60e51b815260206004820152602360248201527f45524332303a207472616e7366657220746f20746865207a65726f206164647260448201526265737360e81b60648201526084016103ac565b6106e3838383610873565b6001600160a01b0383166000908152602081905260409020548181101561075b5760405162461bcd60e51b815260206004820152602660248201527f45524332303a207472616e7366657220616d6f756e7420657863656564732062604482015265616c616e636560d01b60648201526084016103ac565b6001600160a01b03848116600081815260208181526040808320878703905593871680835291849020805487019055925185815290927fddf252ad1be2c89b69c2b068fc378daa952ba7f163c4a11628f55a4df523b3ef910160405180910390a361060c848484610a6c565b6005546001600160a01b031633146103315760405162461bcd60e51b815260206004820181905260248201527f4f776e61626c653a2063616c6c6572206973206e6f7420746865206f776e657260448201526064016103ac565b600580546001600160a01b038381166001600160a01b0319831681179093556040519116919082907f8be0079c531659141344cd1fd0a4f28419497f9722a3daafe3b4186f6b6457e090600090a35050565b600081116108c35760405162461bcd60e51b815260206004820181905260248201527f5345454420546f6b656e3a20616d6f756e74206d757374206265203e2030202160448201526064016103ac565b6001600160a01b03831660009081526007602052604090205460ff1615801561090c57506103e8610909846001600160a01b031660009081526020819052604090205490565b10155b1561094c576001600160a01b0383166000908152600760205260408120805460ff19166001179055600680549161094283610c44565b91905055506109d7565b6001600160a01b03831660009081526007602052604090205460ff16801561099e57506103e881610992856001600160a01b031660009081526020819052604090205490565b61099c9190610c5d565b105b156109d7576001600160a01b0383166000908152600760205260408120805460ff1916905560068054916109d183610c70565b91905055505b6001600160a01b03821660009081526007602052604090205460ff16158015610a2b57506103e881610a1e846001600160a01b031660009081526020819052604090205490565b610a289190610c31565b10155b15610a67576001600160a01b0382166000908152600760205260408120805460ff191660011790556006805491610a6183610c44565b91905055505b505050565b60008111610a675760405162461bcd60e51b815260206004820181905260248201527f5345454420546f6b656e3a20616d6f756e74206d757374206265203e2030202160448201526064016103ac565b600060208083528351808285015260005b81811015610ae957858101830151858201604001528201610acd565b506000604082860101526040601f19601f8301168501019250505092915050565b80356001600160a01b0381168114610b2157600080fd5b919050565b60008060408385031215610b3957600080fd5b610b4283610b0a565b946020939093013593505050565b600080600060608486031215610b6557600080fd5b610b6e84610b0a565b9250610b7c60208501610b0a565b9150604084013590509250925092565b600060208284031215610b9e57600080fd5b610ba782610b0a565b9392505050565b60008060408385031215610bc157600080fd5b610bca83610b0a565b9150610bd860208401610b0a565b90509250929050565b600181811c90821680610bf557607f821691505b602082108103610c1557634e487b7160e01b600052602260045260246000fd5b50919050565b634e487b7160e01b600052601160045260246000fd5b808201808211156102d3576102d3610c1b565b600060018201610c5657610c56610c1b565b5060010190565b818103818111156102d3576102d3610c1b565b600081610c7f57610c7f610c1b565b50600019019056fea2646970667358221220064cdc09e00339f6842b6e5788f0fbef14ef77ae954167c35067c0a4c1b68a1a64736f6c634300081300335345454420546f6b656e3a20616d6f756e74206d757374206265203e20302021",
  "immutableReferences": {},
  "source": "// SPDX-License-Identifier: MIT\npragma solidity 0.8.19;\nimport \"../node_modules/@openzeppelin/contracts/token/ERC20/ERC20.sol\";\nimport \"../node_modules/@openzeppelin/contracts/access/Ownable.sol\";\n\ncontract SeedToken is ERC20, Ownable {\n\n    uint256 constant MIN_GOVERNANCE_TOKENS = 1000;\n    uint256 public holdersCount;\n    mapping(address => bool) private _holders;\n\n\n    constructor() ERC20(\"SEED\", \"SDC\") {\n        _mint(msg.sender, 1000000000 * 10 ** decimals()); // Mint 1 Billion of Seed tokens | 10^18 \n    }\n\n    function _beforeTokenTransfer(address from, address to, uint256 amount) internal virtual override \n    {\n        require(amount > 0, \"SEED Token: amount must be > 0 !\");\n        super._beforeTokenTransfer(from, to, amount);\n\n        if (!_holders[from] && balanceOf(from) >= MIN_GOVERNANCE_TOKENS)  // TODO : remove restriction \n        {\n            _holders[from] = true;\n            holdersCount++;\n        } else if (_holders[from] && (balanceOf(from) - amount ) < MIN_GOVERNANCE_TOKENS) \n        {\n            _holders[from] = false;\n            holdersCount--;\n        }\n\n        if (!_holders[to] && (balanceOf(to) + amount) >= MIN_GOVERNANCE_TOKENS) \n        {\n            _holders[to] = true;\n            holdersCount++;\n        } \n    }\n\n    function _afterTokenTransfer(\n        address from,\n        address to,\n        uint256 amount\n    ) internal virtual override {\n        require(amount > 0, \"SEED Token: amount must be > 0 !\");\n        super._afterTokenTransfer(from, to, amount);\n    }\n}",
  "sourcePath": "/Users/ilham_elbouloumi/Documents/WorkSpace_Blockchain_VSC/CommonSeedDAO/truffle/contracts/SeedToken.sol",
  "compiler": {
    "name": "solc",
    "version": "0.8.19+commit.7dd6d404.Emscripten.clang"
  },
  "schemaVersion": "3.4.12",
  "updatedAt": "2023-04-11T05:33:35.473Z",
  "networkType": "ethereum",
  "devdoc": {
    "events": {
      "Approval(address,address,uint256)": {
        "details": "Emitted when the allowance of a `spender` for an `owner` is set by a call to {approve}. `value` is the new allowance."
      },
      "Transfer(address,address,uint256)": {
        "details": "Emitted when `value` tokens are moved from one account (`from`) to another (`to`). Note that `value` may be zero."
      }
    },
    "kind": "dev",
    "methods": {
      "allowance(address,address)": {
        "details": "See {IERC20-allowance}."
      },
      "approve(address,uint256)": {
        "details": "See {IERC20-approve}. NOTE: If `amount` is the maximum `uint256`, the allowance is not updated on `transferFrom`. This is semantically equivalent to an infinite approval. Requirements: - `spender` cannot be the zero address."
      },
      "balanceOf(address)": {
        "details": "See {IERC20-balanceOf}."
      },
      "decimals()": {
        "details": "Returns the number of decimals used to get its user representation. For example, if `decimals` equals `2`, a balance of `505` tokens should be displayed to a user as `5.05` (`505 / 10 ** 2`). Tokens usually opt for a value of 18, imitating the relationship between Ether and Wei. This is the value {ERC20} uses, unless this function is overridden; NOTE: This information is only used for _display_ purposes: it in no way affects any of the arithmetic of the contract, including {IERC20-balanceOf} and {IERC20-transfer}."
      },
      "decreaseAllowance(address,uint256)": {
        "details": "Atomically decreases the allowance granted to `spender` by the caller. This is an alternative to {approve} that can be used as a mitigation for problems described in {IERC20-approve}. Emits an {Approval} event indicating the updated allowance. Requirements: - `spender` cannot be the zero address. - `spender` must have allowance for the caller of at least `subtractedValue`."
      },
      "increaseAllowance(address,uint256)": {
        "details": "Atomically increases the allowance granted to `spender` by the caller. This is an alternative to {approve} that can be used as a mitigation for problems described in {IERC20-approve}. Emits an {Approval} event indicating the updated allowance. Requirements: - `spender` cannot be the zero address."
      },
      "name()": {
        "details": "Returns the name of the token."
      },
      "owner()": {
        "details": "Returns the address of the current owner."
      },
      "renounceOwnership()": {
        "details": "Leaves the contract without owner. It will not be possible to call `onlyOwner` functions anymore. Can only be called by the current owner. NOTE: Renouncing ownership will leave the contract without an owner, thereby removing any functionality that is only available to the owner."
      },
      "symbol()": {
        "details": "Returns the symbol of the token, usually a shorter version of the name."
      },
      "totalSupply()": {
        "details": "See {IERC20-totalSupply}."
      },
      "transfer(address,uint256)": {
        "details": "See {IERC20-transfer}. Requirements: - `to` cannot be the zero address. - the caller must have a balance of at least `amount`."
      },
      "transferFrom(address,address,uint256)": {
        "details": "See {IERC20-transferFrom}. Emits an {Approval} event indicating the updated allowance. This is not required by the EIP. See the note at the beginning of {ERC20}. NOTE: Does not update the allowance if the current allowance is the maximum `uint256`. Requirements: - `from` and `to` cannot be the zero address. - `from` must have a balance of at least `amount`. - the caller must have allowance for ``from``'s tokens of at least `amount`."
      },
      "transferOwnership(address)": {
        "details": "Transfers ownership of the contract to a new account (`newOwner`). Can only be called by the current owner."
      }
    },
    "version": 1
  },
  "userdoc": {
    "kind": "user",
    "methods": {},
    "version": 1
  }
}