{
  "contractName": "SeedToken",
  "abi": [
    {
      "inputs": [],
      "stateMutability": "nonpayable",
      "type": "constructor"
    },
    {
      "anonymous": false,
      "inputs": [
        {
          "indexed": true,
          "internalType": "address",
          "name": "owner",
          "type": "address"
        },
        {
          "indexed": true,
          "internalType": "address",
          "name": "spender",
          "type": "address"
        },
        {
          "indexed": false,
          "internalType": "uint256",
          "name": "value",
          "type": "uint256"
        }
      ],
      "name": "Approval",
      "type": "event"
    },
    {
      "anonymous": false,
      "inputs": [
        {
          "indexed": true,
          "internalType": "address",
          "name": "from",
          "type": "address"
        },
        {
          "indexed": true,
          "internalType": "address",
          "name": "to",
          "type": "address"
        },
        {
          "indexed": false,
          "internalType": "uint256",
          "name": "value",
          "type": "uint256"
        }
      ],
      "name": "Transfer",
      "type": "event"
    },
    {
      "inputs": [
        {
          "internalType": "address",
          "name": "owner",
          "type": "address"
        },
        {
          "internalType": "address",
          "name": "spender",
          "type": "address"
        }
      ],
      "name": "allowance",
      "outputs": [
        {
          "internalType": "uint256",
          "name": "",
          "type": "uint256"
        }
      ],
      "stateMutability": "view",
      "type": "function",
      "constant": true
    },
    {
      "inputs": [
        {
          "internalType": "address",
          "name": "spender",
          "type": "address"
        },
        {
          "internalType": "uint256",
          "name": "amount",
          "type": "uint256"
        }
      ],
      "name": "approve",
      "outputs": [
        {
          "internalType": "bool",
          "name": "",
          "type": "bool"
        }
      ],
      "stateMutability": "nonpayable",
      "type": "function"
    },
    {
      "inputs": [
        {
          "internalType": "address",
          "name": "account",
          "type": "address"
        }
      ],
      "name": "balanceOf",
      "outputs": [
        {
          "internalType": "uint256",
          "name": "",
          "type": "uint256"
        }
      ],
      "stateMutability": "view",
      "type": "function",
      "constant": true
    },
    {
      "inputs": [],
      "name": "decimals",
      "outputs": [
        {
          "internalType": "uint8",
          "name": "",
          "type": "uint8"
        }
      ],
      "stateMutability": "view",
      "type": "function",
      "constant": true
    },
    {
      "inputs": [
        {
          "internalType": "address",
          "name": "spender",
          "type": "address"
        },
        {
          "internalType": "uint256",
          "name": "subtractedValue",
          "type": "uint256"
        }
      ],
      "name": "decreaseAllowance",
      "outputs": [
        {
          "internalType": "bool",
          "name": "",
          "type": "bool"
        }
      ],
      "stateMutability": "nonpayable",
      "type": "function"
    },
    {
      "inputs": [],
      "name": "holdersCount",
      "outputs": [
        {
          "internalType": "uint256",
          "name": "",
          "type": "uint256"
        }
      ],
      "stateMutability": "view",
      "type": "function",
      "constant": true
    },
    {
      "inputs": [
        {
          "internalType": "address",
          "name": "spender",
          "type": "address"
        },
        {
          "internalType": "uint256",
          "name": "addedValue",
          "type": "uint256"
        }
      ],
      "name": "increaseAllowance",
      "outputs": [
        {
          "internalType": "bool",
          "name": "",
          "type": "bool"
        }
      ],
      "stateMutability": "nonpayable",
      "type": "function"
    },
    {
      "inputs": [],
      "name": "name",
      "outputs": [
        {
          "internalType": "string",
          "name": "",
          "type": "string"
        }
      ],
      "stateMutability": "view",
      "type": "function",
      "constant": true
    },
    {
      "inputs": [],
      "name": "symbol",
      "outputs": [
        {
          "internalType": "string",
          "name": "",
          "type": "string"
        }
      ],
      "stateMutability": "view",
      "type": "function",
      "constant": true
    },
    {
      "inputs": [],
      "name": "totalSupply",
      "outputs": [
        {
          "internalType": "uint256",
          "name": "",
          "type": "uint256"
        }
      ],
      "stateMutability": "view",
      "type": "function",
      "constant": true
    },
    {
      "inputs": [
        {
          "internalType": "address",
          "name": "to",
          "type": "address"
        },
        {
          "internalType": "uint256",
          "name": "amount",
          "type": "uint256"
        }
      ],
      "name": "transfer",
      "outputs": [
        {
          "internalType": "bool",
          "name": "",
          "type": "bool"
        }
      ],
      "stateMutability": "nonpayable",
      "type": "function"
    },
    {
      "inputs": [
        {
          "internalType": "address",
          "name": "from",
          "type": "address"
        },
        {
          "internalType": "address",
          "name": "to",
          "type": "address"
        },
        {
          "internalType": "uint256",
          "name": "amount",
          "type": "uint256"
        }
      ],
      "name": "transferFrom",
      "outputs": [
        {
          "internalType": "bool",
          "name": "",
          "type": "bool"
        }
      ],
      "stateMutability": "nonpayable",
      "type": "function"
    }
  ],
  "bytecode": "0x60806040523480156200001157600080fd5b506040518060400160405280600481526020016314d1515160e21b8152506040518060400160405280600381526020016253444360e81b81525081600390816200005c91906200048a565b5060046200006b82826200048a565b505050620000a63362000083620000ac60201b60201c565b6200009090600a6200066b565b620000a090633b9aca0062000683565b620000b1565b620006ff565b601290565b6001600160a01b0382166200010d5760405162461bcd60e51b815260206004820152601f60248201527f45524332303a206d696e7420746f20746865207a65726f20616464726573730060448201526064015b60405180910390fd5b6200011b6000838362000194565b80600260008282546200012f91906200069d565b90915550506001600160a01b038216600081815260208181526040808320805486019055518481527fddf252ad1be2c89b69c2b068fc378daa952ba7f163c4a11628f55a4df523b3ef910160405180910390a3620001906000838362000392565b5050565b60008111620001d55760405162461bcd60e51b815260206004820181905260248201526000805160206200121a833981519152604482015260640162000104565b6001600160a01b03831660009081526006602052604090205460ff161580156200022057506103e86200021d846001600160a01b031660009081526020819052604090205490565b10155b1562000264576001600160a01b0383166000908152600660205260408120805460ff1916600117905560058054916200025983620006b3565b9190505550620002f6565b6001600160a01b03831660009081526006602052604090205460ff168015620002ba57506103e881620002ac856001600160a01b031660009081526020819052604090205490565b620002b89190620006cf565b105b15620002f6576001600160a01b0383166000908152600660205260408120805460ff191690556005805491620002f083620006e5565b91905055505b6001600160a01b03821660009081526006602052604090205460ff161580156200034e57506103e8816200033f846001600160a01b031660009081526020819052604090205490565b6200034b91906200069d565b10155b156200038d576001600160a01b0382166000908152600660205260408120805460ff1916600117905560058054916200038783620006b3565b91905055505b505050565b60008111620003d35760405162461bcd60e51b815260206004820181905260248201526000805160206200121a833981519152604482015260640162000104565b6200038d8383836001600160e01b038416565b634e487b7160e01b600052604160045260246000fd5b600181811c908216806200041157607f821691505b6020821081036200043257634e487b7160e01b600052602260045260246000fd5b50919050565b601f8211156200038d57600081815260208120601f850160051c81016020861015620004615750805b601f850160051c820191505b8181101562000482578281556001016200046d565b505050505050565b81516001600160401b03811115620004a657620004a6620003e6565b620004be81620004b78454620003fc565b8462000438565b602080601f831160018114620004f65760008415620004dd5750858301515b600019600386901b1c1916600185901b17855562000482565b600085815260208120601f198616915b82811015620005275788860151825594840194600190910190840162000506565b5085821015620005465787850151600019600388901b60f8161c191681555b5050505050600190811b01905550565b634e487b7160e01b600052601160045260246000fd5b600181815b80851115620005ad57816000190482111562000591576200059162000556565b808516156200059f57918102915b93841c939080029062000571565b509250929050565b600082620005c65750600162000665565b81620005d55750600062000665565b8160018114620005ee5760028114620005f95762000619565b600191505062000665565b60ff8411156200060d576200060d62000556565b50506001821b62000665565b5060208310610133831016604e8410600b84101617156200063e575081810a62000665565b6200064a83836200056c565b806000190482111562000661576200066162000556565b0290505b92915050565b60006200067c60ff841683620005b5565b9392505050565b808202811582820484141762000665576200066562000556565b8082018082111562000665576200066562000556565b600060018201620006c857620006c862000556565b5060010190565b8181038181111562000665576200066562000556565b600081620006f757620006f762000556565b506000190190565b610b0b806200070f6000396000f3fe608060405234801561001057600080fd5b50600436106100b45760003560e01c80636b4ed21b116100715780636b4ed21b1461014157806370a082311461014a57806395d89b4114610173578063a457c2d71461017b578063a9059cbb1461018e578063dd62ed3e146101a157600080fd5b806306fdde03146100b9578063095ea7b3146100d757806318160ddd146100fa57806323b872dd1461010c578063313ce5671461011f578063395093511461012e575b600080fd5b6100c16101b4565b6040516100ce919061090a565b60405180910390f35b6100ea6100e5366004610974565b610246565b60405190151581526020016100ce565b6002545b6040519081526020016100ce565b6100ea61011a36600461099e565b610260565b604051601281526020016100ce565b6100ea61013c366004610974565b610284565b6100fe60055481565b6100fe6101583660046109da565b6001600160a01b031660009081526020819052604090205490565b6100c16102a6565b6100ea610189366004610974565b6102b5565b6100ea61019c366004610974565b610335565b6100fe6101af3660046109fc565b610343565b6060600380546101c390610a2f565b80601f01602080910402602001604051908101604052809291908181526020018280546101ef90610a2f565b801561023c5780601f106102115761010080835404028352916020019161023c565b820191906000526020600020905b81548152906001019060200180831161021f57829003601f168201915b5050505050905090565b60003361025481858561036e565b60019150505b92915050565b60003361026e858285610492565b61027985858561050c565b506001949350505050565b6000336102548185856102978383610343565b6102a19190610a7f565b61036e565b6060600480546101c390610a2f565b600033816102c38286610343565b9050838110156103285760405162461bcd60e51b815260206004820152602560248201527f45524332303a2064656372656173656420616c6c6f77616e63652062656c6f77604482015264207a65726f60d81b60648201526084015b60405180910390fd5b610279828686840361036e565b60003361025481858561050c565b6001600160a01b03918216600090815260016020908152604080832093909416825291909152205490565b6001600160a01b0383166103d05760405162461bcd60e51b8152602060048201526024808201527f45524332303a20617070726f76652066726f6d20746865207a65726f206164646044820152637265737360e01b606482015260840161031f565b6001600160a01b0382166104315760405162461bcd60e51b815260206004820152602260248201527f45524332303a20617070726f766520746f20746865207a65726f206164647265604482015261737360f01b606482015260840161031f565b6001600160a01b0383811660008181526001602090815260408083209487168084529482529182902085905590518481527f8c5be1e5ebec7d5bd14f71427d1e84f3dd0314c0f7b2291e5b200ac8c7c3b925910160405180910390a3505050565b600061049e8484610343565b9050600019811461050657818110156104f95760405162461bcd60e51b815260206004820152601d60248201527f45524332303a20696e73756666696369656e7420616c6c6f77616e6365000000604482015260640161031f565b610506848484840361036e565b50505050565b6001600160a01b0383166105705760405162461bcd60e51b815260206004820152602560248201527f45524332303a207472616e736665722066726f6d20746865207a65726f206164604482015264647265737360d81b606482015260840161031f565b6001600160a01b0382166105d25760405162461bcd60e51b815260206004820152602360248201527f45524332303a207472616e7366657220746f20746865207a65726f206164647260448201526265737360e81b606482015260840161031f565b6105dd8383836106c1565b6001600160a01b038316600090815260208190526040902054818110156106555760405162461bcd60e51b815260206004820152602660248201527f45524332303a207472616e7366657220616d6f756e7420657863656564732062604482015265616c616e636560d01b606482015260840161031f565b6001600160a01b03848116600081815260208181526040808320878703905593871680835291849020805487019055925185815290927fddf252ad1be2c89b69c2b068fc378daa952ba7f163c4a11628f55a4df523b3ef910160405180910390a36105068484846108ba565b600081116107115760405162461bcd60e51b815260206004820181905260248201527f5345454420546f6b656e3a20616d6f756e74206d757374206265203e20302021604482015260640161031f565b6001600160a01b03831660009081526006602052604090205460ff1615801561075a57506103e8610757846001600160a01b031660009081526020819052604090205490565b10155b1561079a576001600160a01b0383166000908152600660205260408120805460ff19166001179055600580549161079083610a92565b9190505550610825565b6001600160a01b03831660009081526006602052604090205460ff1680156107ec57506103e8816107e0856001600160a01b031660009081526020819052604090205490565b6107ea9190610aab565b105b15610825576001600160a01b0383166000908152600660205260408120805460ff19169055600580549161081f83610abe565b91905055505b6001600160a01b03821660009081526006602052604090205460ff1615801561087957506103e88161086c846001600160a01b031660009081526020819052604090205490565b6108769190610a7f565b10155b156108b5576001600160a01b0382166000908152600660205260408120805460ff1916600117905560058054916108af83610a92565b91905055505b505050565b600081116108b55760405162461bcd60e51b815260206004820181905260248201527f5345454420546f6b656e3a20616d6f756e74206d757374206265203e20302021604482015260640161031f565b600060208083528351808285015260005b818110156109375785810183015185820160400152820161091b565b506000604082860101526040601f19601f8301168501019250505092915050565b80356001600160a01b038116811461096f57600080fd5b919050565b6000806040838503121561098757600080fd5b61099083610958565b946020939093013593505050565b6000806000606084860312156109b357600080fd5b6109bc84610958565b92506109ca60208501610958565b9150604084013590509250925092565b6000602082840312156109ec57600080fd5b6109f582610958565b9392505050565b60008060408385031215610a0f57600080fd5b610a1883610958565b9150610a2660208401610958565b90509250929050565b600181811c90821680610a4357607f821691505b602082108103610a6357634e487b7160e01b600052602260045260246000fd5b50919050565b634e487b7160e01b600052601160045260246000fd5b8082018082111561025a5761025a610a69565b600060018201610aa457610aa4610a69565b5060010190565b8181038181111561025a5761025a610a69565b600081610acd57610acd610a69565b50600019019056fea2646970667358221220dab1d4f2a7450ce521d1205c3881b0c7a78915399f899890a4418984d2ff12e964736f6c634300081300335345454420546f6b656e3a20616d6f756e74206d757374206265203e20302021",
  "immutableReferences": {},
  "source": "// SPDX-License-Identifier: MIT\npragma solidity 0.8.19;\nimport \"../node_modules/@openzeppelin/contracts/token/ERC20/ERC20.sol\";\n\ncontract SeedToken is ERC20 {\n\n    uint256 constant MIN_GOVERNANCE_TOKENS = 1000;\n    uint256 public holdersCount;\n    mapping(address => bool) private _holders; // TODO : if not needed, to remove\n\n\n    constructor() ERC20(\"SEED\", \"SDC\") {\n        _mint(msg.sender, 1000000000 * 10 ** decimals()); // Mint 1 Billion of Seed tokens | 10^18 \n    }\n\n    function _beforeTokenTransfer(address from, address to, uint256 amount) internal virtual override \n    {\n        require(amount > 0, \"SEED Token: amount must be > 0 !\");\n        super._beforeTokenTransfer(from, to, amount);\n\n        if (!_holders[from] && balanceOf(from) >= MIN_GOVERNANCE_TOKENS) \n        {\n            _holders[from] = true;\n            holdersCount++;\n        } else if (_holders[from] && (balanceOf(from) - amount ) < MIN_GOVERNANCE_TOKENS) \n        {\n            _holders[from] = false;\n            holdersCount--;\n        }\n\n        if (!_holders[to] && (balanceOf(to) + amount) >= MIN_GOVERNANCE_TOKENS) \n        {\n            _holders[to] = true;\n            holdersCount++;\n        } \n    }\n\n    function _afterTokenTransfer(\n        address from,\n        address to,\n        uint256 amount\n    ) internal virtual override {\n        require(amount > 0, \"SEED Token: amount must be > 0 !\");\n        super._afterTokenTransfer(from, to, amount);\n    }\n}",
  "sourcePath": "/Users/ilham_elbouloumi/Documents/WorkSpace_Blockchain_VSC/CommonSeedDAO/truffle/contracts/SeedToken.sol",
  "compiler": {
    "name": "solc",
    "version": "0.8.19+commit.7dd6d404.Emscripten.clang"
  },
  "schemaVersion": "3.4.12",
  "updatedAt": "2023-04-07T22:12:48.560Z",
  "networkType": "ethereum",
  "devdoc": {
    "events": {
      "Approval(address,address,uint256)": {
        "details": "Emitted when the allowance of a `spender` for an `owner` is set by a call to {approve}. `value` is the new allowance."
      },
      "Transfer(address,address,uint256)": {
        "details": "Emitted when `value` tokens are moved from one account (`from`) to another (`to`). Note that `value` may be zero."
      }
    },
    "kind": "dev",
    "methods": {
      "allowance(address,address)": {
        "details": "See {IERC20-allowance}."
      },
      "approve(address,uint256)": {
        "details": "See {IERC20-approve}. NOTE: If `amount` is the maximum `uint256`, the allowance is not updated on `transferFrom`. This is semantically equivalent to an infinite approval. Requirements: - `spender` cannot be the zero address."
      },
      "balanceOf(address)": {
        "details": "See {IERC20-balanceOf}."
      },
      "decimals()": {
        "details": "Returns the number of decimals used to get its user representation. For example, if `decimals` equals `2`, a balance of `505` tokens should be displayed to a user as `5.05` (`505 / 10 ** 2`). Tokens usually opt for a value of 18, imitating the relationship between Ether and Wei. This is the value {ERC20} uses, unless this function is overridden; NOTE: This information is only used for _display_ purposes: it in no way affects any of the arithmetic of the contract, including {IERC20-balanceOf} and {IERC20-transfer}."
      },
      "decreaseAllowance(address,uint256)": {
        "details": "Atomically decreases the allowance granted to `spender` by the caller. This is an alternative to {approve} that can be used as a mitigation for problems described in {IERC20-approve}. Emits an {Approval} event indicating the updated allowance. Requirements: - `spender` cannot be the zero address. - `spender` must have allowance for the caller of at least `subtractedValue`."
      },
      "increaseAllowance(address,uint256)": {
        "details": "Atomically increases the allowance granted to `spender` by the caller. This is an alternative to {approve} that can be used as a mitigation for problems described in {IERC20-approve}. Emits an {Approval} event indicating the updated allowance. Requirements: - `spender` cannot be the zero address."
      },
      "name()": {
        "details": "Returns the name of the token."
      },
      "symbol()": {
        "details": "Returns the symbol of the token, usually a shorter version of the name."
      },
      "totalSupply()": {
        "details": "See {IERC20-totalSupply}."
      },
      "transfer(address,uint256)": {
        "details": "See {IERC20-transfer}. Requirements: - `to` cannot be the zero address. - the caller must have a balance of at least `amount`."
      },
      "transferFrom(address,address,uint256)": {
        "details": "See {IERC20-transferFrom}. Emits an {Approval} event indicating the updated allowance. This is not required by the EIP. See the note at the beginning of {ERC20}. NOTE: Does not update the allowance if the current allowance is the maximum `uint256`. Requirements: - `from` and `to` cannot be the zero address. - `from` must have a balance of at least `amount`. - the caller must have allowance for ``from``'s tokens of at least `amount`."
      }
    },
    "version": 1
  },
  "userdoc": {
    "kind": "user",
    "methods": {},
    "version": 1
  }
}