{
  "contractName": "VoteUnlockFunds",
  "abi": [
    {
      "inputs": [
        {
          "internalType": "address",
          "name": "_projectInfoContractAddress",
          "type": "address"
        },
        {
          "internalType": "address",
          "name": "_fundraisingProjectsAddress",
          "type": "address"
        }
      ],
      "stateMutability": "nonpayable",
      "type": "constructor"
    },
    {
      "anonymous": false,
      "inputs": [
        {
          "indexed": true,
          "internalType": "address",
          "name": "previousOwner",
          "type": "address"
        },
        {
          "indexed": true,
          "internalType": "address",
          "name": "newOwner",
          "type": "address"
        }
      ],
      "name": "OwnershipTransferred",
      "type": "event"
    },
    {
      "anonymous": false,
      "inputs": [
        {
          "indexed": false,
          "internalType": "uint256",
          "name": "_projectId",
          "type": "uint256"
        },
        {
          "indexed": false,
          "internalType": "uint256",
          "name": "_phase",
          "type": "uint256"
        }
      ],
      "name": "UnlockAccepted",
      "type": "event"
    },
    {
      "anonymous": false,
      "inputs": [
        {
          "indexed": false,
          "internalType": "uint256",
          "name": "_projectId",
          "type": "uint256"
        },
        {
          "indexed": false,
          "internalType": "uint256",
          "name": "_phase",
          "type": "uint256"
        },
        {
          "indexed": false,
          "internalType": "uint256",
          "name": "_amount",
          "type": "uint256"
        }
      ],
      "name": "UnlockExecuted",
      "type": "event"
    },
    {
      "anonymous": false,
      "inputs": [
        {
          "indexed": false,
          "internalType": "uint256",
          "name": "_projectId",
          "type": "uint256"
        },
        {
          "indexed": false,
          "internalType": "uint256",
          "name": "_phase",
          "type": "uint256"
        }
      ],
      "name": "UnlockProposalAdded",
      "type": "event"
    },
    {
      "anonymous": false,
      "inputs": [
        {
          "indexed": false,
          "internalType": "uint256",
          "name": "_projectId",
          "type": "uint256"
        },
        {
          "indexed": false,
          "internalType": "uint256",
          "name": "_phase",
          "type": "uint256"
        }
      ],
      "name": "UnlockProposalClose",
      "type": "event"
    },
    {
      "anonymous": false,
      "inputs": [
        {
          "indexed": false,
          "internalType": "uint256",
          "name": "_projectId",
          "type": "uint256"
        },
        {
          "indexed": false,
          "internalType": "uint256",
          "name": "_phase",
          "type": "uint256"
        }
      ],
      "name": "UnlockProposalOpen",
      "type": "event"
    },
    {
      "anonymous": false,
      "inputs": [
        {
          "indexed": false,
          "internalType": "uint256",
          "name": "_projectId",
          "type": "uint256"
        },
        {
          "indexed": false,
          "internalType": "uint256",
          "name": "_phase",
          "type": "uint256"
        }
      ],
      "name": "UnlockRejected",
      "type": "event"
    },
    {
      "anonymous": false,
      "inputs": [
        {
          "indexed": false,
          "internalType": "uint256",
          "name": "_projectId",
          "type": "uint256"
        },
        {
          "indexed": false,
          "internalType": "uint256",
          "name": "_phase",
          "type": "uint256"
        },
        {
          "indexed": false,
          "internalType": "address",
          "name": "_addr",
          "type": "address"
        },
        {
          "indexed": false,
          "internalType": "bool",
          "name": "_decision",
          "type": "bool"
        }
      ],
      "name": "Voted",
      "type": "event"
    },
    {
      "anonymous": false,
      "inputs": [
        {
          "indexed": false,
          "internalType": "uint256",
          "name": "_projectId",
          "type": "uint256"
        },
        {
          "indexed": false,
          "internalType": "uint256",
          "name": "_phase",
          "type": "uint256"
        }
      ],
      "name": "VotingSessionClose",
      "type": "event"
    },
    {
      "anonymous": false,
      "inputs": [
        {
          "indexed": false,
          "internalType": "uint256",
          "name": "_projectId",
          "type": "uint256"
        },
        {
          "indexed": false,
          "internalType": "uint256",
          "name": "_phase",
          "type": "uint256"
        }
      ],
      "name": "VotingSessionOpen",
      "type": "event"
    },
    {
      "inputs": [
        {
          "internalType": "uint256",
          "name": "",
          "type": "uint256"
        },
        {
          "internalType": "uint256",
          "name": "",
          "type": "uint256"
        },
        {
          "internalType": "address",
          "name": "",
          "type": "address"
        }
      ],
      "name": "investorVoters",
      "outputs": [
        {
          "internalType": "bool",
          "name": "isEligible",
          "type": "bool"
        },
        {
          "internalType": "bool",
          "name": "hasVoted",
          "type": "bool"
        },
        {
          "internalType": "bool",
          "name": "decision",
          "type": "bool"
        }
      ],
      "stateMutability": "view",
      "type": "function",
      "constant": true
    },
    {
      "inputs": [],
      "name": "owner",
      "outputs": [
        {
          "internalType": "address",
          "name": "",
          "type": "address"
        }
      ],
      "stateMutability": "view",
      "type": "function",
      "constant": true
    },
    {
      "inputs": [],
      "name": "renounceOwnership",
      "outputs": [],
      "stateMutability": "nonpayable",
      "type": "function"
    },
    {
      "inputs": [
        {
          "internalType": "address",
          "name": "newOwner",
          "type": "address"
        }
      ],
      "name": "transferOwnership",
      "outputs": [],
      "stateMutability": "nonpayable",
      "type": "function"
    },
    {
      "inputs": [
        {
          "internalType": "uint256",
          "name": "",
          "type": "uint256"
        },
        {
          "internalType": "uint256",
          "name": "",
          "type": "uint256"
        }
      ],
      "name": "unlockProposals",
      "outputs": [
        {
          "internalType": "uint256",
          "name": "amountToUnlockPercentage",
          "type": "uint256"
        },
        {
          "internalType": "uint256",
          "name": "deadline",
          "type": "uint256"
        },
        {
          "internalType": "uint256",
          "name": "yesVotes",
          "type": "uint256"
        },
        {
          "internalType": "uint256",
          "name": "noVotes",
          "type": "uint256"
        },
        {
          "internalType": "bool",
          "name": "isAccepted",
          "type": "bool"
        },
        {
          "internalType": "bool",
          "name": "executed",
          "type": "bool"
        }
      ],
      "stateMutability": "view",
      "type": "function",
      "constant": true
    },
    {
      "inputs": [
        {
          "internalType": "uint256",
          "name": "_projectId",
          "type": "uint256"
        },
        {
          "internalType": "uint256",
          "name": "_phase",
          "type": "uint256"
        }
      ],
      "name": "unlockProposalOpening",
      "outputs": [],
      "stateMutability": "nonpayable",
      "type": "function"
    },
    {
      "inputs": [
        {
          "internalType": "uint256",
          "name": "_projectId",
          "type": "uint256"
        },
        {
          "internalType": "uint256",
          "name": "_phase",
          "type": "uint256"
        }
      ],
      "name": "UnlockProposalClosing",
      "outputs": [],
      "stateMutability": "nonpayable",
      "type": "function"
    },
    {
      "inputs": [
        {
          "internalType": "uint256",
          "name": "_projectId",
          "type": "uint256"
        },
        {
          "internalType": "uint256",
          "name": "_phase",
          "type": "uint256"
        }
      ],
      "name": "VotingSessionOpening",
      "outputs": [],
      "stateMutability": "nonpayable",
      "type": "function"
    },
    {
      "inputs": [
        {
          "internalType": "uint256",
          "name": "_projectId",
          "type": "uint256"
        },
        {
          "internalType": "uint256",
          "name": "_phase",
          "type": "uint256"
        }
      ],
      "name": "VotingSessionClosing",
      "outputs": [],
      "stateMutability": "nonpayable",
      "type": "function"
    },
    {
      "inputs": [
        {
          "internalType": "uint256",
          "name": "_projectId",
          "type": "uint256"
        },
        {
          "internalType": "uint256",
          "name": "_phase",
          "type": "uint256"
        },
        {
          "internalType": "uint256",
          "name": "_amountToUnlockPercentage",
          "type": "uint256"
        },
        {
          "internalType": "uint256",
          "name": "_deadline",
          "type": "uint256"
        }
      ],
      "name": "addUnlockProposal",
      "outputs": [],
      "stateMutability": "nonpayable",
      "type": "function"
    },
    {
      "inputs": [
        {
          "internalType": "uint256",
          "name": "_projectId",
          "type": "uint256"
        },
        {
          "internalType": "uint256",
          "name": "_phase",
          "type": "uint256"
        },
        {
          "internalType": "address",
          "name": "_addr",
          "type": "address"
        }
      ],
      "name": "setIfEligibleVoter",
      "outputs": [],
      "stateMutability": "nonpayable",
      "type": "function"
    },
    {
      "inputs": [
        {
          "internalType": "uint256",
          "name": "_projectId",
          "type": "uint256"
        },
        {
          "internalType": "uint256",
          "name": "_phase",
          "type": "uint256"
        },
        {
          "internalType": "address",
          "name": "_addr",
          "type": "address"
        }
      ],
      "name": "getIfEligibleVoter",
      "outputs": [
        {
          "internalType": "bool",
          "name": "",
          "type": "bool"
        }
      ],
      "stateMutability": "view",
      "type": "function",
      "constant": true
    },
    {
      "inputs": [
        {
          "internalType": "uint256",
          "name": "_projectId",
          "type": "uint256"
        },
        {
          "internalType": "uint256",
          "name": "_phase",
          "type": "uint256"
        },
        {
          "internalType": "bool",
          "name": "_decision",
          "type": "bool"
        }
      ],
      "name": "setVote",
      "outputs": [],
      "stateMutability": "nonpayable",
      "type": "function"
    },
    {
      "inputs": [
        {
          "internalType": "uint256",
          "name": "_projectId",
          "type": "uint256"
        },
        {
          "internalType": "uint256",
          "name": "_phase",
          "type": "uint256"
        }
      ],
      "name": "tallyVotes",
      "outputs": [],
      "stateMutability": "nonpayable",
      "type": "function"
    },
    {
      "inputs": [
        {
          "internalType": "uint256",
          "name": "totalRaised",
          "type": "uint256"
        },
        {
          "internalType": "uint256",
          "name": "amountToUnblockInPer",
          "type": "uint256"
        }
      ],
      "name": "calculateAmountToUnblock",
      "outputs": [
        {
          "internalType": "uint256",
          "name": "",
          "type": "uint256"
        }
      ],
      "stateMutability": "pure",
      "type": "function",
      "constant": true
    },
    {
      "inputs": [
        {
          "internalType": "uint256",
          "name": "_projectId",
          "type": "uint256"
        },
        {
          "internalType": "uint256",
          "name": "_phase",
          "type": "uint256"
        }
      ],
      "name": "unblockFunds",
      "outputs": [],
      "stateMutability": "nonpayable",
      "type": "function"
    }
  ],
  "bytecode": "0x60806040523480156200001157600080fd5b5060405162002c9338038062002c938339810160408190526200003491620000de565b6200003f3362000071565b600180546001600160a01b039384166001600160a01b0319918216179091556002805492909316911617905562000116565b600080546001600160a01b038381166001600160a01b0319831681178455604051919092169283917f8be0079c531659141344cd1fd0a4f28419497f9722a3daafe3b4186f6b6457e09190a35050565b80516001600160a01b0381168114620000d957600080fd5b919050565b60008060408385031215620000f257600080fd5b620000fd83620000c1565b91506200010d60208401620000c1565b90509250929050565b612b6d80620001266000396000f3fe608060405234801561001057600080fd5b50600436106100ff5760003560e01c8063a7212c7411610097578063e857ac8a11610066578063e857ac8a146102bf578063f2fde38b146102e0578063f92e95c3146102f3578063fd4032ea1461030657600080fd5b8063a7212c74146101f3578063a998954a14610206578063bcd80e7314610289578063df474d72146102ac57600080fd5b80637e72cdfb116100d35780637e72cdfb1461019f5780638da5cb5b146101b257806395cb277d146101cd57806397068d85146101e057600080fd5b80625a709f146101045780633a5d022d1461011957806357b8ddc91461012c578063715018a614610197575b600080fd5b6101176101123660046127a0565b610319565b005b6101176101273660046127d9565b61069d565b61017361013a3660046127a0565b600460209081526000938452604080852082529284528284209052825290205460ff808216916101008104821691620100009091041683565b60408051931515845291151560208401521515908201526060015b60405180910390f35b610117610ca4565b6101176101ad36600461280b565b610cb8565b6000546040516001600160a01b03909116815260200161018e565b6101176101db36600461280b565b611453565b6101176101ee36600461280b565b611568565b61011761020136600461283b565b6119c7565b61025861021436600461280b565b600360208181526000938452604080852090915291835291208054600182015460028301549383015460049093015491939092909160ff8082169161010090041686565b60408051968752602087019590955293850192909252606084015215156080830152151560a082015260c00161018e565b61029c6102973660046127a0565b611e19565b604051901515815260200161018e565b6101176102ba36600461280b565b61205a565b6102d26102cd36600461280b565b6121cf565b60405190815260200161018e565b6101176102ee366004612869565b6121f1565b61011761030136600461280b565b61226a565b61011761031436600461280b565b6123de565b8282600160009054906101000a90046001600160a01b03166001600160a01b03166316ff5b876040518163ffffffff1660e01b8152600401602060405180830381865afa15801561036e573d6000803e3d6000fd5b505050506040513d601f19601f820116820180604052508101906103929190612886565b8211156103ba5760405162461bcd60e51b81526004016103b19061289f565b60405180910390fd5b60015460405163ab2b6bab60e01b8152600481018490526002916001600160a01b03169063ab2b6bab90602401602060405180830381865afa158015610404573d6000803e3d6000fd5b505050506040513d601f19601f8201168201806040525081019061042891906128f9565b6005811115610439576104396128d6565b146104565760405162461bcd60e51b81526004016103b190612916565b6001546040516302ddb19360e11b8152600481018490526000916001600160a01b0316906305bb632690602401602060405180830381865afa1580156104a0573d6000803e3d6000fd5b505050506040513d601f19601f820116820180604052508101906104c49190612886565b905060006104d182612557565b6104da84612557565b6040516020016104eb929190612982565b6040516020818303038152906040529050828214819061051e5760405162461bcd60e51b81526004016103b191906129ff565b506001546040516305adcb5760e51b8152600481018990526001600160a01b0387811660248301529091169063b5b96ae090604401602060405180830381865afa158015610570573d6000803e3d6000fd5b505050506040513d601f19601f820116820180604052508101906105949190612a32565b801561061657506001546040516324895abb60e21b8152600481018990526001600160a01b038781169216906392256aec90602401602060405180830381865afa1580156105e6573d6000803e3d6000fd5b505050506040513d601f19601f8201168201806040525081019061060a9190612a4f565b6001600160a01b031614155b6106625760405162461bcd60e51b815260206004820152601d60248201527f41646472657373206e6f7420456c696769626c6520666f7220766f746500000060448201526064016103b1565b5050506000938452506004602090815260408085209385529281528284206001600160a01b039092168452529020805460ff19166001179055565b6001546040516324895abb60e21b815260048101869052859133916001600160a01b03909116906392256aec90602401602060405180830381865afa1580156106ea573d6000803e3d6000fd5b505050506040513d601f19601f8201168201806040525081019061070e9190612a4f565b6001600160a01b0316148061073c5750336107316000546001600160a01b031690565b6001600160a01b0316145b6107975760405162461bcd60e51b815260206004820152602660248201527f4f6e6c792070726f6a656374204f776e6572206f722041646d696e20697320416044820152651b1b1bddd95960d21b60648201526084016103b1565b8484600160009054906101000a90046001600160a01b03166001600160a01b03166316ff5b876040518163ffffffff1660e01b8152600401602060405180830381865afa1580156107ec573d6000803e3d6000fd5b505050506040513d601f19601f820116820180604052508101906108109190612886565b82111561082f5760405162461bcd60e51b81526004016103b19061289f565b60015460405163ab2b6bab60e01b8152600481018490526002916001600160a01b03169063ab2b6bab90602401602060405180830381865afa158015610879573d6000803e3d6000fd5b505050506040513d601f19601f8201168201806040525081019061089d91906128f9565b60058111156108ae576108ae6128d6565b146108cb5760405162461bcd60e51b81526004016103b190612916565b6001546040516302ddb19360e11b8152600481018490526000916001600160a01b0316906305bb632690602401602060405180830381865afa158015610915573d6000803e3d6000fd5b505050506040513d601f19601f820116820180604052508101906109399190612886565b9050600061094682612557565b61094f84612557565b604051602001610960929190612982565b604051602081830303815290604052905082821481906109935760405162461bcd60e51b81526004016103b191906129ff565b50600154604051631ce7522960e21b8152600481018b9052602481018a90526000916001600160a01b03169063739d48a490604401602060405180830381865afa1580156109e5573d6000803e3d6000fd5b505050506040513d601f19601f82011682018060405250810190610a0991906128f9565b6005811115610a1a57610a1a6128d6565b14610a675760405162461bcd60e51b815260206004820152601b60248201527f556e6c6f636b2050726f706f73616c20206e6f74206f70656e2021000000000060448201526064016103b1565b6001546040516302ddb19360e11b8152600481018b905289916001600160a01b0316906305bb632690602401602060405180830381865afa158015610ab0573d6000803e3d6000fd5b505050506040513d601f19601f82011682018060405250810190610ad49190612886565b14610b215760405162461bcd60e51b815260206004820152601a60248201527f4552524f52203a20496e76616c6964205068617365204944202100000000000060448201526064016103b1565b60008981526003602090815260408083208b8452909152902060040154610100900460ff1615610b935760405162461bcd60e51b815260206004820181905260248201527f556e6c6f636b2070726f706f73616c20616c726561647920657865637574656460448201526064016103b1565b6040518060c00160405280888152602001878152602001600081526020016000815260200160001515815260200160001515815250600360008b815260200190815260200160002060008a81526020019081526020016000206000820151816000015560208201518160010155604082015181600201556060820151816003015560808201518160040160006101000a81548160ff02191690831515021790555060a08201518160040160016101000a81548160ff0219169083151502179055509050507fbe805dcf48ec587c2e0828a330f6279f930162144daba608214ad40068ce11c68989604051610c91929190918252602082015260400190565b60405180910390a1505050505050505050565b610cac6125ea565b610cb66000612644565b565b610cc06125ea565b8181600160009054906101000a90046001600160a01b03166001600160a01b03166316ff5b876040518163ffffffff1660e01b8152600401602060405180830381865afa158015610d15573d6000803e3d6000fd5b505050506040513d601f19601f82011682018060405250810190610d399190612886565b821115610d585760405162461bcd60e51b81526004016103b19061289f565b60015460405163ab2b6bab60e01b8152600481018490526002916001600160a01b03169063ab2b6bab90602401602060405180830381865afa158015610da2573d6000803e3d6000fd5b505050506040513d601f19601f82011682018060405250810190610dc691906128f9565b6005811115610dd757610dd76128d6565b14610df45760405162461bcd60e51b81526004016103b190612916565b6001546040516302ddb19360e11b8152600481018490526000916001600160a01b0316906305bb632690602401602060405180830381865afa158015610e3e573d6000803e3d6000fd5b505050506040513d601f19601f82011682018060405250810190610e629190612886565b90506000610e6f82612557565b610e7884612557565b604051602001610e89929190612982565b60405160208183030381529060405290508282148190610ebc5760405162461bcd60e51b81526004016103b191906129ff565b506001546040516325bc257560e11b815260048101889052602481018790526001600160a01b0390911690634b784aea90604401602060405180830381865afa158015610f0d573d6000803e3d6000fd5b505050506040513d601f19601f82011682018060405250810190610f319190612a32565b610f755760405162461bcd60e51b8152602060048201526015602482015274556e6c6f636b204e6f74204163636570746564202160581b60448201526064016103b1565b600154604051639349bdf360e01b815260048101889052602481018790526001600160a01b0390911690639349bdf390604401602060405180830381865afa158015610fc5573d6000803e3d6000fd5b505050506040513d601f19601f82011682018060405250810190610fe99190612a32565b156110365760405162461bcd60e51b815260206004820152601960248201527f556e6c6f636b20416c726561647920457865637574656420210000000000000060448201526064016103b1565b6000868152600360209081526040808320888452909152808220600154915163ab49ed5760e01b8152600481018a90529092916110ca916001600160a01b039091169063ab49ed5790602401602060405180830381865afa15801561109f573d6000803e3d6000fd5b505050506040513d601f19601f820116820180604052508101906110c39190612886565b83546121cf565b600154604051630287d6df60e51b8152600481018b90529192506001600160a01b0316906350fadbe090602401602060405180830381865afa158015611114573d6000803e3d6000fd5b505050506040513d601f19601f820116820180604052508101906111389190612886565b8111156111875760405162461bcd60e51b815260206004820152601c60248201527f496e73756666696369656e742072656d61696e696e672066756e64730000000060448201526064016103b1565b6001546040516379cab97b60e11b8152600481018a905260248101899052604481018390526001600160a01b039091169063f39572f690606401600060405180830381600087803b1580156111db57600080fd5b505af11580156111ef573d6000803e3d6000fd5b5050600154604051630ee65e6f60e11b8152600481018c9052602481018590526001600160a01b039091169250631dccbcde9150604401600060405180830381600087803b15801561124057600080fd5b505af1158015611254573d6000803e3d6000fd5b5050600154604051630ac855a960e21b8152600481018c9052602481018590526001600160a01b039091169250632b2156a49150604401600060405180830381600087803b1580156112a557600080fd5b505af11580156112b9573d6000803e3d6000fd5b5050506004808401805461ff001916610100179055600254604051637e1a189760e11b8152600093506001600160a01b039091169163fc34312e9161130b918d91879101918252602082015260400190565b6020604051808303816000875af115801561132a573d6000803e3d6000fd5b505050506040513d601f19601f8201168201806040525081019061134e9190612a32565b9050806113b65760405162461bcd60e51b815260206004820152603060248201527f556e6c6f636b2046756e6473203a205472616e7366657220746f2050726f6a6560448201526f63744f776e6572204661696c6564202160801b60648201526084016103b1565b600154604051639f1083ad60e01b8152600481018b90526001600160a01b0390911690639f1083ad90602401600060405180830381600087803b1580156113fc57600080fd5b505af1158015611410573d6000803e3d6000fd5b5050604080518c8152602081018c90529081018590527f1c6d1b7fcd71d13ffdb47d154e002c31ecb1a7a0c74b57ccc077f79cb96628a692506060019050610c91565b61145b6125ea565b600154604051631ce7522960e21b815260048101849052602481018390526000916001600160a01b03169063739d48a490604401602060405180830381865afa1580156114ac573d6000803e3d6000fd5b505050506040513d601f19601f820116820180604052508101906114d091906128f9565b60058111156114e1576114e16128d6565b1461152a5760405162461bcd60e51b8152602060048201526019602482015278556e6c6f636b50726f706f73616c206e6f74206f70656e202160381b60448201526064016103b1565b60408051838152602081018390527f9139119221e6eefd28c0f1ecf7ea2fb2d230d779eae70dcfe784225fe305744791015b60405180910390a15050565b6115706125ea565b600154604051631ce7522960e21b815260048101849052602481018390526003916001600160a01b03169063739d48a490604401602060405180830381865afa1580156115c1573d6000803e3d6000fd5b505050506040513d601f19601f820116820180604052508101906115e591906128f9565b60058111156115f6576115f66128d6565b146116435760405162461bcd60e51b815260206004820152601b60248201527f566f74696e672053657373696f6e206e6f7420436c6f7365642021000000000060448201526064016103b1565b6000828152600360209081526040808320848452909152812090805b600154604051630893342f60e11b8152600481018790526001600160a01b0390911690631126685e90602401602060405180830381865afa1580156116a8573d6000803e3d6000fd5b505050506040513d601f19601f820116820180604052508101906116cc9190612886565b811015611863576001546040516344a982e760e01b815260048101879052602481018390526000916001600160a01b0316906344a982e790604401602060405180830381865afa158015611724573d6000803e3d6000fd5b505050506040513d601f19601f820116820180604052508101906117489190612a4f565b600087815260046020908152604080832089845282528083206001600160a01b0385168452909152902054909150610100900460ff161561185057600154604051637eba557360e01b8152600481018890526001600160a01b0383811660248301526000921690637eba557390604401602060405180830381865afa1580156117d5573d6000803e3d6000fd5b505050506040513d601f19601f820116820180604052508101906117f99190612886565b60008881526004602090815260408083208a845282528083206001600160a01b038716845290915290205490915062010000900460ff161515600114611840576000611842565b805b61184c9085612a82565b9350505b508061185b81612a95565b91505061165f565b50604260008290036118ba5760048301805460ff1916905560408051868152602081018690527f367f923cb86c4bd17649617a81750f646fb5834269abd267c0961fb355b7e08891015b60405180910390a161194c565b8082106119065760048301805460ff1916600117905560408051868152602081018690527f893402f25b30485516d3c904a79984288293742b65063b73eae836feda7aaf8e91016118ad565b60048301805460ff1916905560408051868152602081018690527f367f923cb86c4bd17649617a81750f646fb5834269abd267c0961fb355b7e088910160405180910390a15b600154600484810154604051630ffdb35360e01b81529182018890526024820187905260ff16151560448201526001600160a01b0390911690630ffdb35390606401600060405180830381600087803b1580156119a857600080fd5b505af11580156119bc573d6000803e3d6000fd5b505050505050505050565b8282600160009054906101000a90046001600160a01b03166001600160a01b03166316ff5b876040518163ffffffff1660e01b8152600401602060405180830381865afa158015611a1c573d6000803e3d6000fd5b505050506040513d601f19601f82011682018060405250810190611a409190612886565b821115611a5f5760405162461bcd60e51b81526004016103b19061289f565b60015460405163ab2b6bab60e01b8152600481018490526002916001600160a01b03169063ab2b6bab90602401602060405180830381865afa158015611aa9573d6000803e3d6000fd5b505050506040513d601f19601f82011682018060405250810190611acd91906128f9565b6005811115611ade57611ade6128d6565b14611afb5760405162461bcd60e51b81526004016103b190612916565b6001546040516302ddb19360e11b8152600481018490526000916001600160a01b0316906305bb632690602401602060405180830381865afa158015611b45573d6000803e3d6000fd5b505050506040513d601f19601f82011682018060405250810190611b699190612886565b90506000611b7682612557565b611b7f84612557565b604051602001611b90929190612982565b60405160208183030381529060405290508282148190611bc35760405162461bcd60e51b81526004016103b191906129ff565b50611bcf878733610319565b600154604051631ce7522960e21b815260048101899052602481018890526002916001600160a01b03169063739d48a490604401602060405180830381865afa158015611c20573d6000803e3d6000fd5b505050506040513d601f19601f82011682018060405250810190611c4491906128f9565b6005811115611c5557611c556128d6565b14611c9e5760405162461bcd60e51b8152602060048201526019602482015278566f74696e672053657373696f6e206e6f74206f70656e202160381b60448201526064016103b1565b60008781526004602090815260408083208984528252808320338452909152902054610100900460ff1615611d155760405162461bcd60e51b815260206004820152601860248201527f596f75206861766520416c726561647920566f7465642021000000000000000060448201526064016103b1565b600087815260046020908152604080832089845282528083203384529091529020805461ff00198715801562010000029190911662ffff00199092169190911761010017909155611d985760008781526003602090815260408083208984529091528120600201805460019290611d8d908490612a82565b90915550611dc99050565b60008781526003602081815260408084208a8552909152822001805460019290611dc3908490612a82565b90915550505b60408051888152602081018890523381830152861515606082015290517f46bbf92d95e2261f204899a3f9e286bfa35000a850157ae8e1311dd0f461d4889181900360800190a150505050505050565b6000611e236125ea565b8383600160009054906101000a90046001600160a01b03166001600160a01b03166316ff5b876040518163ffffffff1660e01b8152600401602060405180830381865afa158015611e78573d6000803e3d6000fd5b505050506040513d601f19601f82011682018060405250810190611e9c9190612886565b821115611ebb5760405162461bcd60e51b81526004016103b19061289f565b60015460405163ab2b6bab60e01b8152600481018490526002916001600160a01b03169063ab2b6bab90602401602060405180830381865afa158015611f05573d6000803e3d6000fd5b505050506040513d601f19601f82011682018060405250810190611f2991906128f9565b6005811115611f3a57611f3a6128d6565b14611f575760405162461bcd60e51b81526004016103b190612916565b6001546040516302ddb19360e11b8152600481018490526000916001600160a01b0316906305bb632690602401602060405180830381865afa158015611fa1573d6000803e3d6000fd5b505050506040513d601f19601f82011682018060405250810190611fc59190612886565b90506000611fd282612557565b611fdb84612557565b604051602001611fec929190612982565b6040516020818303038152906040529050828214819061201f5760405162461bcd60e51b81526004016103b191906129ff565b505050600095865250506004602090815260408086209486529381528385206001600160a01b03939093168552919091525090205460ff1690565b6120626125ea565b600154604051631ce7522960e21b815260048101849052602481018390526002916001600160a01b03169063739d48a490604401602060405180830381865afa1580156120b3573d6000803e3d6000fd5b505050506040513d601f19601f820116820180604052508101906120d791906128f9565b60058111156120e8576120e86128d6565b146121315760405162461bcd60e51b8152602060048201526019602482015278566f74696e672053657373696f6e206e6f74206f70656e202160381b60448201526064016103b1565b600154604051637875c60b60e01b81526001600160a01b0390911690637875c60b906121669085908590600390600401612aae565b600060405180830381600087803b15801561218057600080fd5b505af1158015612194573d6000803e3d6000fd5b505060408051858152602081018590527f2c3ebbaf9eee2cd241b84530984d68477f58208110aeaffe9d72c70fed7d71f0935001905061155c565b6000806121e760646121e18686612694565b906126a7565b9150505b92915050565b6121f96125ea565b6001600160a01b03811661225e5760405162461bcd60e51b815260206004820152602660248201527f4f776e61626c653a206e6577206f776e657220697320746865207a65726f206160448201526564647265737360d01b60648201526084016103b1565b61226781612644565b50565b6122726125ea565b600154604051631ce7522960e21b815260048101849052602481018390526000916001600160a01b03169063739d48a490604401602060405180830381865afa1580156122c3573d6000803e3d6000fd5b505050506040513d601f19601f820116820180604052508101906122e791906128f9565b60058111156122f8576122f86128d6565b146123415760405162461bcd60e51b8152602060048201526019602482015278556e6c6f636b50726f706f73616c206e6f74206f70656e202160381b60448201526064016103b1565b60018054604051637875c60b60e01b81526001600160a01b0390911691637875c60b91612375918691869190600401612aae565b600060405180830381600087803b15801561238f57600080fd5b505af11580156123a3573d6000803e3d6000fd5b505060408051858152602081018590527f6868984e37f35127b7163dd225bc82d228364deccfb448676162228ebb93068e935001905061155c565b6123e66125ea565b60018054604051631ce7522960e21b815260048101859052602481018490526001600160a01b039091169063739d48a490604401602060405180830381865afa158015612437573d6000803e3d6000fd5b505050506040513d601f19601f8201168201806040525081019061245b91906128f9565b600581111561246c5761246c6128d6565b146124b95760405162461bcd60e51b815260206004820152601b60248201527f556e6c6f636b50726f706f73616c206e6f7420636c6f7365642021000000000060448201526064016103b1565b600154604051637875c60b60e01b81526001600160a01b0390911690637875c60b906124ee9085908590600290600401612aae565b600060405180830381600087803b15801561250857600080fd5b505af115801561251c573d6000803e3d6000fd5b505060408051858152602081018590527f80d1deb5fe3ec894481e96766ffdc40a4a27925e91ca1a8dab2f228bddb34308935001905061155c565b60606000612564836126b3565b600101905060008167ffffffffffffffff81111561258457612584612ae8565b6040519080825280601f01601f1916602001820160405280156125ae576020820181803683370190505b5090508181016020015b600019016f181899199a1a9b1b9c1cb0b131b232b360811b600a86061a8153600a85049450846125b857509392505050565b6000546001600160a01b03163314610cb65760405162461bcd60e51b815260206004820181905260248201527f4f776e61626c653a2063616c6c6572206973206e6f7420746865206f776e657260448201526064016103b1565b600080546001600160a01b038381166001600160a01b0319831681178455604051919092169283917f8be0079c531659141344cd1fd0a4f28419497f9722a3daafe3b4186f6b6457e09190a35050565b60006126a08284612afe565b9392505050565b60006126a08284612b15565b60008072184f03e93ff9f4daa797ed6e38ed64bf6a1f0160401b83106126f25772184f03e93ff9f4daa797ed6e38ed64bf6a1f0160401b830492506040015b6d04ee2d6d415b85acef8100000000831061271e576d04ee2d6d415b85acef8100000000830492506020015b662386f26fc10000831061273c57662386f26fc10000830492506010015b6305f5e1008310612754576305f5e100830492506008015b612710831061276857612710830492506004015b6064831061277a576064830492506002015b600a83106121eb5760010192915050565b6001600160a01b038116811461226757600080fd5b6000806000606084860312156127b557600080fd5b833592506020840135915060408401356127ce8161278b565b809150509250925092565b600080600080608085870312156127ef57600080fd5b5050823594602084013594506040840135936060013592509050565b6000806040838503121561281e57600080fd5b50508035926020909101359150565b801515811461226757600080fd5b60008060006060848603121561285057600080fd5b833592506020840135915060408401356127ce8161282d565b60006020828403121561287b57600080fd5b81356126a08161278b565b60006020828403121561289857600080fd5b5051919050565b60208082526019908201527f4552524f52203a20496e76616c69642050726f6a656374494400000000000000604082015260600190565b634e487b7160e01b600052602160045260246000fd5b6006811061226757600080fd5b60006020828403121561290b57600080fd5b81516126a0816128ec565b60208082526028908201527f4552524f52203a2050726f6a656374204e6f742046756e646564205375636365604082015267737366756c6c792160c01b606082015260800190565b60005b83811015612979578181015183820152602001612961565b50506000910152565b7f4552524f523a20496e76616c6964205068617365204964212063757272656e748152660283430b9b29d160cd1b6020820152600083516129ca81602785016020880161295e565b680102fb83430b9b29d160bd1b60279184019182015283516129f381603084016020880161295e565b01603001949350505050565b6020815260008251806020840152612a1e81604085016020870161295e565b601f01601f19169190910160400192915050565b600060208284031215612a4457600080fd5b81516126a08161282d565b600060208284031215612a6157600080fd5b81516126a08161278b565b634e487b7160e01b600052601160045260246000fd5b808201808211156121eb576121eb612a6c565b600060018201612aa757612aa7612a6c565b5060010190565b838152602081018390526060810160068310612ada57634e487b7160e01b600052602160045260246000fd5b826040830152949350505050565b634e487b7160e01b600052604160045260246000fd5b80820281158282048414176121eb576121eb612a6c565b600082612b3257634e487b7160e01b600052601260045260246000fd5b50049056fea2646970667358221220ebed88b68b6f3e29c50cabbf81d4f3c2c8b4913cfcb63b8e0db465026428281d64736f6c63430008130033",
  "immutableReferences": {},
  "source": "// SPDX-License-Identifier: MIT\n\npragma solidity 0.8.19;\nimport \"../node_modules/@openzeppelin/contracts/access/Ownable.sol\";\nimport \"../node_modules/@openzeppelin/contracts/token/ERC20/IERC20.sol\";\n\nimport \"../node_modules/@openzeppelin/contracts/utils/math/SafeMath.sol\";\nimport \"../node_modules/@openzeppelin/contracts/utils/Strings.sol\";\n\n\nimport \"./FundraisingProject.sol\";\nimport \"./ProjectInfo.sol\";\n\n\ncontract VoteUnlockFunds  is Ownable {\n    \n    ProjectInfo         projectInfoContract;\n    FundraisingProject  fundraisingProjects;\n\n\n    // Structure pour stocker les rsultats du vote pour une proposition de dblocage de fonds\n    struct UnlockProposal {\n        uint amountToUnlockPercentage;\n        uint deadline; // in days \n        uint yesVotes;\n        uint noVotes;\n        bool isAccepted;\n        bool executed;\n    }\n\n    struct InvestorVoter {\n        bool isEligible;\n        bool hasVoted;\n        bool decision;\n    }\n    mapping(uint => mapping(uint => UnlockProposal)) public unlockProposals;\n    // unlockProposals[projectId][phase] = proposal;\n\n    mapping(uint => mapping(uint => mapping(address => InvestorVoter))) public investorVoters; \n    // investorVoters[projectId][phase][addr_investor].isEligible = true / false;\n\n/// events \n        event UnlockProposalOpen(uint _projectId, uint _phase);\n        event UnlockProposalAdded(uint _projectId, uint _phase);\n        event UnlockProposalClose(uint _projectId, uint _phase);\n        event VotingSessionOpen(uint _projectId, uint _phase);\n        event VotingSessionClose(uint _projectId, uint _phase);\n        event Voted(uint _projectId, uint _phase, address _addr, bool _decision);\n        event UnlockAccepted(uint _projectId, uint _phase);\n        event UnlockRejected(uint _projectId, uint _phase);\n        event UnlockExecuted(uint _projectId, uint _phase, uint256 _amount);\n\n//// \n    \n    constructor(address _projectInfoContractAddress, address _fundraisingProjectsAddress) {   \n        projectInfoContract = ProjectInfo(_projectInfoContractAddress);\n        fundraisingProjects = FundraisingProject(_fundraisingProjectsAddress);\n    }\n\n    modifier isValidProject(uint _projectId, uint _phase) {\n        require(_projectId <= projectInfoContract.getNumProjects(), \"ERROR : Invalid ProjectID\");\n        require(projectInfoContract.getFundraisingStatus(_projectId) == ProjectInfo.FundraisingStatus.FundraisingSuccessful, \"ERROR : Project Not Funded Successfully!\");\n        \n        uint currentPhase = projectInfoContract.getProjectCurrentPhase(_projectId); \n\n        string memory errorMessage = string(abi.encodePacked(\n            \"ERROR: Invalid Phase Id! currentPhase: \",\n            Strings.toString(currentPhase),\n            \" _phase: \",\n            Strings.toString(_phase)\n        ));\n        require(currentPhase == _phase, errorMessage);\n        //require( currentPhase !=  _phase, \"ERROR : Invalid Phase Id !\");\n        // require( currentPhase !=  _phase,\n        // string(abi.encodePacked(\n        // \"ERROR: Invalid Phase Id! currentPhase: \", currentPhase, \" _phase: \", _phase)));\n        _;\n    }\n\n    modifier onlyAdminOrProjectOwner(uint _projectId) {\n        require(projectInfoContract.getProjectOwner(_projectId) == msg.sender || owner() == msg.sender , \"Only project Owner or Admin is Allowed\");\n        _;\n    }\n\n    function unlockProposalOpening(uint _projectId, uint _phase) external onlyOwner  { // TODO isValidProjId(projectId)\n        require(projectInfoContract.getVoteUnlockStatus(_projectId, _phase) == ProjectInfo.VoteUnlockStatus.UnlockProposalOpen, \"UnlockProposal not open !\");\n        emit UnlockProposalOpen(_projectId, _phase);\n    }\n\n    function UnlockProposalClosing(uint _projectId, uint _phase) external onlyOwner  { // TODO isValidProjId(projectId)\n        require(projectInfoContract.getVoteUnlockStatus(_projectId, _phase) == ProjectInfo.VoteUnlockStatus.UnlockProposalOpen, \"UnlockProposal not open !\");\n        projectInfoContract.setVoteUnlockStatus(_projectId, _phase, ProjectInfo.VoteUnlockStatus.UnlockProposalClose);\n        emit UnlockProposalClose(_projectId, _phase);\n    }\n\n    function VotingSessionOpening(uint _projectId, uint _phase) external onlyOwner  { // TODO isValidProjId(projectId)\n        require(projectInfoContract.getVoteUnlockStatus(_projectId, _phase) == ProjectInfo.VoteUnlockStatus.UnlockProposalClose, \"UnlockProposal not closed !\");\n        projectInfoContract.setVoteUnlockStatus(_projectId, _phase, ProjectInfo.VoteUnlockStatus.VotingSessionOpen);\n        emit VotingSessionOpen(_projectId, _phase);\n    }\n\n    function VotingSessionClosing(uint _projectId, uint _phase) external onlyOwner  { // TODO isValidProjId(projectId)\n        require(projectInfoContract.getVoteUnlockStatus(_projectId, _phase) == ProjectInfo.VoteUnlockStatus.VotingSessionOpen, \"Voting Session not open !\");\n        projectInfoContract.setVoteUnlockStatus(_projectId, _phase, ProjectInfo.VoteUnlockStatus.VotingSessionClose);\n        emit VotingSessionClose(_projectId, _phase);\n    }\n\n    // Phase d'ajout de proposal\n    function addUnlockProposal(uint _projectId, uint _phase, uint _amountToUnlockPercentage, uint _deadline) onlyAdminOrProjectOwner(_projectId) isValidProject(_projectId, _phase) public {\n        require(projectInfoContract.getVoteUnlockStatus(_projectId, _phase) == ProjectInfo.VoteUnlockStatus.UnlockProposalOpen, \"Unlock Proposal  not open !\");\n        require(projectInfoContract.getProjectCurrentPhase(_projectId) == _phase, \"ERROR : Invalid Phase ID !\");\n        require(!unlockProposals[_projectId][_phase].executed, \"Unlock proposal already executed\");\n\n        unlockProposals[_projectId][_phase] = UnlockProposal(_amountToUnlockPercentage, _deadline, 0, 0, false, false);\n        emit UnlockProposalAdded(_projectId, _phase);\n    }\n\n    // Phase de Vote\n\n    function setIfEligibleVoter(uint _projectId, uint _phase, address _addr) public isValidProject(_projectId, _phase)\n    {\n        require(projectInfoContract.hasContributed(_projectId, _addr) && projectInfoContract.getProjectOwner(_projectId) != _addr, \"Address not Eligible for vote\");\n        investorVoters[_projectId][_phase][_addr].isEligible = true; \n    }\n\n    function getIfEligibleVoter(uint _projectId, uint _phase, address _addr) external view  onlyOwner isValidProject(_projectId, _phase) returns(bool)\n    {\n        return investorVoters[_projectId][_phase][_addr].isEligible; \n    }\n\n    modifier onlyInvestorVoters(uint _projectId, uint _phase)\n    {\n        require(investorVoters[_projectId][_phase][msg.sender].isEligible, \"Not Allowed to participate\");\n        _;\n    }\n    // onlyInvestorVoters(_projectId, _phase) : no list voters , when clicking on button, check if eligible or not \n    function setVote(uint _projectId, uint _phase, bool _decision) isValidProject(_projectId, _phase) public \n    {\n        setIfEligibleVoter(_projectId, _phase, msg.sender); // TODO : to refactor \n        require(projectInfoContract.getVoteUnlockStatus(_projectId, _phase) == ProjectInfo.VoteUnlockStatus.VotingSessionOpen, \"Voting Session not open !\");\n        require(!investorVoters[_projectId][_phase][msg.sender].hasVoted, \"You have Already Voted !\");\n\n        investorVoters[_projectId][_phase][msg.sender].decision = _decision;\n        investorVoters[_projectId][_phase][msg.sender].hasVoted = true;\n\n        if(_decision) {\n            unlockProposals[_projectId][_phase].yesVotes +=1;\n        }\n        else {\n            unlockProposals[_projectId][_phase].noVotes +=1;         \n        }\n        emit Voted(_projectId, _phase, msg.sender, _decision);\n    }\n\n    function tallyVotes(uint _projectId, uint _phase) public onlyOwner \n    {\n        require(projectInfoContract.getVoteUnlockStatus(_projectId, _phase) == ProjectInfo.VoteUnlockStatus.VotingSessionClose, \"Voting Session not Closed !\");\n\n        UnlockProposal storage proposal = unlockProposals[_projectId][_phase];\n        uint totalVotesWeighted;\n        // Calculate the total weighted votes for this proposal\n        for (uint i = 0; i < projectInfoContract.getNumInvestors(_projectId); i++) \n        {\n            address investor = projectInfoContract.getContributor(_projectId, i);\n            if(investorVoters[_projectId][_phase][investor].hasVoted)\n            {\n                uint256 voteWeight = projectInfoContract.getVoteWeight(_projectId, investor);\n                totalVotesWeighted += investorVoters[_projectId][_phase][investor].decision == true ? voteWeight : 0;\n            }\n        }\n        uint MinYesVotesToValidate = 66; //minimum de 66% des fonds doivent voter ok  \n        if (totalVotesWeighted == 0) {\n            // No votes!\n            proposal.isAccepted = false;\n            emit UnlockRejected( _projectId, _phase);\n        } else if (totalVotesWeighted >= MinYesVotesToValidate) {\n                proposal.isAccepted = true;\n                emit UnlockAccepted( _projectId,  _phase);\n        }\n        else {\n                proposal.isAccepted = false;\n                emit UnlockRejected( _projectId, _phase);\n\n        }\n        projectInfoContract.setPhaseUnlockAccepted(_projectId, _phase, proposal.isAccepted);\n\n    }\n\n    using SafeMath for uint256;\n    function calculateAmountToUnblock(uint256 totalRaised, uint256 amountToUnblockInPer) public pure returns (uint256) \n    {\n        // TODO verify in which unit it is : wei or token unit\n        uint256 amountToUnblock = totalRaised.mul(amountToUnblockInPer).div(100);\n        return amountToUnblock;\n    }\n    function unblockFunds(uint _projectId, uint _phase) external onlyOwner isValidProject(_projectId,  _phase) \n    {\n        require(projectInfoContract.getPhaseUnlockAccepted(_projectId, _phase), \"Unlock Not Accepted !\");\n        require(!projectInfoContract.getPhaseUnlockExecuted(_projectId, _phase), \"Unlock Already Executed !\");\n\n        UnlockProposal storage proposal = unlockProposals[_projectId][_phase];\n\n        uint amountToUnlock = calculateAmountToUnblock(projectInfoContract.getTotalRaised(_projectId), proposal.amountToUnlockPercentage);\n\n        // total to unlock < remainingFunds \n        require(amountToUnlock <= projectInfoContract.getRemainingFunds(_projectId), \"Insufficient remaining funds\");\n\n        projectInfoContract.setPhaseAmoutToUnlock(_projectId, _phase, amountToUnlock);\n        projectInfoContract.decrementRemainingFunds(_projectId, amountToUnlock);\n        projectInfoContract.incrementTotalUnlocked(_projectId, amountToUnlock);\n        proposal.executed = true;\n\n        // TODO: call the escrow contract to unlock the funds\n        bool result = fundraisingProjects.unlockFunds(_projectId, amountToUnlock);\n        require(result, \"Unlock Funds : Transfer to ProjectOwner Failed !\");\n\n        projectInfoContract.incrementProjectCurrentPhase(_projectId); // currentphase is validated & unblocked => move to the next phase\n\n        emit UnlockExecuted(_projectId,  _phase,  amountToUnlock);\n    }\n}\n",
  "sourcePath": "/Users/ilham_elbouloumi/Documents/WorkSpace_Blockchain_VSC/CommonSeedDAO/truffle/contracts/VoteUnlockFunds.sol",
  "compiler": {
    "name": "solc",
    "version": "0.8.19+commit.7dd6d404.Emscripten.clang"
  },
  "schemaVersion": "3.4.12",
  "updatedAt": "2023-04-10T20:45:36.111Z",
  "networkType": "ethereum",
  "devdoc": {
    "kind": "dev",
    "methods": {
      "owner()": {
        "details": "Returns the address of the current owner."
      },
      "renounceOwnership()": {
        "details": "Leaves the contract without owner. It will not be possible to call `onlyOwner` functions anymore. Can only be called by the current owner. NOTE: Renouncing ownership will leave the contract without an owner, thereby removing any functionality that is only available to the owner."
      },
      "transferOwnership(address)": {
        "details": "Transfers ownership of the contract to a new account (`newOwner`). Can only be called by the current owner."
      }
    },
    "version": 1
  },
  "userdoc": {
    "events": {
      "UnlockProposalOpen(uint256,uint256)": {
        "notice": "events "
      }
    },
    "kind": "user",
    "methods": {},
    "version": 1
  }
}