{
  "contractName": "VoteUnlockFunds",
  "abi": [
    {
      "inputs": [
        {
          "internalType": "address",
          "name": "_projectInfoContractAddress",
          "type": "address"
        },
        {
          "internalType": "address",
          "name": "_fundraisingProjects",
          "type": "address"
        }
      ],
      "stateMutability": "nonpayable",
      "type": "constructor"
    },
    {
      "anonymous": false,
      "inputs": [
        {
          "indexed": true,
          "internalType": "address",
          "name": "previousOwner",
          "type": "address"
        },
        {
          "indexed": true,
          "internalType": "address",
          "name": "newOwner",
          "type": "address"
        }
      ],
      "name": "OwnershipTransferred",
      "type": "event"
    },
    {
      "anonymous": false,
      "inputs": [
        {
          "indexed": false,
          "internalType": "uint256",
          "name": "_projectId",
          "type": "uint256"
        },
        {
          "indexed": false,
          "internalType": "uint256",
          "name": "_phase",
          "type": "uint256"
        }
      ],
      "name": "UnlockAccepted",
      "type": "event"
    },
    {
      "anonymous": false,
      "inputs": [
        {
          "indexed": false,
          "internalType": "uint256",
          "name": "_projectId",
          "type": "uint256"
        },
        {
          "indexed": false,
          "internalType": "uint256",
          "name": "_phase",
          "type": "uint256"
        },
        {
          "indexed": false,
          "internalType": "uint256",
          "name": "_amount",
          "type": "uint256"
        }
      ],
      "name": "UnlockExecuted",
      "type": "event"
    },
    {
      "anonymous": false,
      "inputs": [
        {
          "indexed": false,
          "internalType": "uint256",
          "name": "_projectId",
          "type": "uint256"
        },
        {
          "indexed": false,
          "internalType": "uint256",
          "name": "_phase",
          "type": "uint256"
        }
      ],
      "name": "UnlockProposalAdded",
      "type": "event"
    },
    {
      "anonymous": false,
      "inputs": [
        {
          "indexed": false,
          "internalType": "uint256",
          "name": "_projectId",
          "type": "uint256"
        },
        {
          "indexed": false,
          "internalType": "uint256",
          "name": "_phase",
          "type": "uint256"
        }
      ],
      "name": "UnlockProposalClose",
      "type": "event"
    },
    {
      "anonymous": false,
      "inputs": [
        {
          "indexed": false,
          "internalType": "uint256",
          "name": "_projectId",
          "type": "uint256"
        },
        {
          "indexed": false,
          "internalType": "uint256",
          "name": "_phase",
          "type": "uint256"
        }
      ],
      "name": "UnlockProposalOpen",
      "type": "event"
    },
    {
      "anonymous": false,
      "inputs": [
        {
          "indexed": false,
          "internalType": "uint256",
          "name": "_projectId",
          "type": "uint256"
        },
        {
          "indexed": false,
          "internalType": "uint256",
          "name": "_phase",
          "type": "uint256"
        }
      ],
      "name": "UnlockRejected",
      "type": "event"
    },
    {
      "anonymous": false,
      "inputs": [
        {
          "indexed": false,
          "internalType": "uint256",
          "name": "_projectId",
          "type": "uint256"
        },
        {
          "indexed": false,
          "internalType": "uint256",
          "name": "_phase",
          "type": "uint256"
        },
        {
          "indexed": false,
          "internalType": "address",
          "name": "_addr",
          "type": "address"
        }
      ],
      "name": "Voted",
      "type": "event"
    },
    {
      "anonymous": false,
      "inputs": [
        {
          "indexed": false,
          "internalType": "uint256",
          "name": "_projectId",
          "type": "uint256"
        },
        {
          "indexed": false,
          "internalType": "uint256",
          "name": "_phase",
          "type": "uint256"
        }
      ],
      "name": "VotingSessionClose",
      "type": "event"
    },
    {
      "anonymous": false,
      "inputs": [
        {
          "indexed": false,
          "internalType": "uint256",
          "name": "_projectId",
          "type": "uint256"
        },
        {
          "indexed": false,
          "internalType": "uint256",
          "name": "_phase",
          "type": "uint256"
        }
      ],
      "name": "VotingSessionOpen",
      "type": "event"
    },
    {
      "inputs": [],
      "name": "fundraisingProjects",
      "outputs": [
        {
          "internalType": "contract FundraisingProject",
          "name": "",
          "type": "address"
        }
      ],
      "stateMutability": "view",
      "type": "function",
      "constant": true
    },
    {
      "inputs": [
        {
          "internalType": "uint256",
          "name": "",
          "type": "uint256"
        },
        {
          "internalType": "uint256",
          "name": "",
          "type": "uint256"
        },
        {
          "internalType": "address",
          "name": "",
          "type": "address"
        }
      ],
      "name": "investorVoters",
      "outputs": [
        {
          "internalType": "bool",
          "name": "isEligible",
          "type": "bool"
        },
        {
          "internalType": "bool",
          "name": "hasVoted",
          "type": "bool"
        },
        {
          "internalType": "bool",
          "name": "decision",
          "type": "bool"
        }
      ],
      "stateMutability": "view",
      "type": "function",
      "constant": true
    },
    {
      "inputs": [],
      "name": "owner",
      "outputs": [
        {
          "internalType": "address",
          "name": "",
          "type": "address"
        }
      ],
      "stateMutability": "view",
      "type": "function",
      "constant": true
    },
    {
      "inputs": [],
      "name": "renounceOwnership",
      "outputs": [],
      "stateMutability": "nonpayable",
      "type": "function"
    },
    {
      "inputs": [
        {
          "internalType": "address",
          "name": "newOwner",
          "type": "address"
        }
      ],
      "name": "transferOwnership",
      "outputs": [],
      "stateMutability": "nonpayable",
      "type": "function"
    },
    {
      "inputs": [
        {
          "internalType": "uint256",
          "name": "",
          "type": "uint256"
        },
        {
          "internalType": "uint256",
          "name": "",
          "type": "uint256"
        }
      ],
      "name": "unlockProposals",
      "outputs": [
        {
          "internalType": "uint256",
          "name": "amountToUnlockPercentage",
          "type": "uint256"
        },
        {
          "internalType": "uint256",
          "name": "deadline",
          "type": "uint256"
        },
        {
          "internalType": "uint256",
          "name": "yesVotes",
          "type": "uint256"
        },
        {
          "internalType": "uint256",
          "name": "noVotes",
          "type": "uint256"
        },
        {
          "internalType": "bool",
          "name": "isAccepted",
          "type": "bool"
        },
        {
          "internalType": "bool",
          "name": "executed",
          "type": "bool"
        }
      ],
      "stateMutability": "view",
      "type": "function",
      "constant": true
    },
    {
      "inputs": [
        {
          "internalType": "uint256",
          "name": "_projectId",
          "type": "uint256"
        },
        {
          "internalType": "uint256",
          "name": "_phase",
          "type": "uint256"
        }
      ],
      "name": "unlockProposalOpening",
      "outputs": [],
      "stateMutability": "nonpayable",
      "type": "function"
    },
    {
      "inputs": [
        {
          "internalType": "uint256",
          "name": "_projectId",
          "type": "uint256"
        },
        {
          "internalType": "uint256",
          "name": "_phase",
          "type": "uint256"
        }
      ],
      "name": "UnlockProposalClosing",
      "outputs": [],
      "stateMutability": "nonpayable",
      "type": "function"
    },
    {
      "inputs": [
        {
          "internalType": "uint256",
          "name": "_projectId",
          "type": "uint256"
        },
        {
          "internalType": "uint256",
          "name": "_phase",
          "type": "uint256"
        }
      ],
      "name": "VotingSessionOpening",
      "outputs": [],
      "stateMutability": "nonpayable",
      "type": "function"
    },
    {
      "inputs": [
        {
          "internalType": "uint256",
          "name": "_projectId",
          "type": "uint256"
        },
        {
          "internalType": "uint256",
          "name": "_phase",
          "type": "uint256"
        }
      ],
      "name": "VotingSessionClosing",
      "outputs": [],
      "stateMutability": "nonpayable",
      "type": "function"
    },
    {
      "inputs": [
        {
          "internalType": "uint256",
          "name": "_projectId",
          "type": "uint256"
        },
        {
          "internalType": "uint256",
          "name": "_phase",
          "type": "uint256"
        },
        {
          "internalType": "uint256",
          "name": "_amountToUnlockPercentage",
          "type": "uint256"
        },
        {
          "internalType": "uint256",
          "name": "_deadline",
          "type": "uint256"
        }
      ],
      "name": "addUnlockProposal",
      "outputs": [],
      "stateMutability": "nonpayable",
      "type": "function"
    },
    {
      "inputs": [
        {
          "internalType": "uint256",
          "name": "_projectId",
          "type": "uint256"
        },
        {
          "internalType": "uint256",
          "name": "_phase",
          "type": "uint256"
        },
        {
          "internalType": "address",
          "name": "_addr",
          "type": "address"
        }
      ],
      "name": "isEligibleVoter",
      "outputs": [
        {
          "internalType": "bool",
          "name": "",
          "type": "bool"
        }
      ],
      "stateMutability": "nonpayable",
      "type": "function"
    },
    {
      "inputs": [
        {
          "internalType": "uint256",
          "name": "_projectId",
          "type": "uint256"
        },
        {
          "internalType": "uint256",
          "name": "_phase",
          "type": "uint256"
        },
        {
          "internalType": "bool",
          "name": "_decision",
          "type": "bool"
        }
      ],
      "name": "setVote",
      "outputs": [],
      "stateMutability": "nonpayable",
      "type": "function"
    },
    {
      "inputs": [
        {
          "internalType": "uint256",
          "name": "_projectId",
          "type": "uint256"
        },
        {
          "internalType": "uint256",
          "name": "_phase",
          "type": "uint256"
        }
      ],
      "name": "tallyVotes",
      "outputs": [],
      "stateMutability": "nonpayable",
      "type": "function"
    },
    {
      "inputs": [
        {
          "internalType": "uint256",
          "name": "totalRaised",
          "type": "uint256"
        },
        {
          "internalType": "uint256",
          "name": "amountToUnblockInPer",
          "type": "uint256"
        }
      ],
      "name": "calculateAmountToUnblock",
      "outputs": [
        {
          "internalType": "uint256",
          "name": "",
          "type": "uint256"
        }
      ],
      "stateMutability": "pure",
      "type": "function",
      "constant": true
    },
    {
      "inputs": [
        {
          "internalType": "uint256",
          "name": "_projectId",
          "type": "uint256"
        },
        {
          "internalType": "uint256",
          "name": "_phase",
          "type": "uint256"
        }
      ],
      "name": "unblockFunds",
      "outputs": [],
      "stateMutability": "nonpayable",
      "type": "function"
    }
  ],
  "bytecode": "0x60806040523480156200001157600080fd5b506040516200265e3803806200265e8339810160408190526200003491620000de565b6200003f3362000071565b600280546001600160a01b039384166001600160a01b0319918216179091556001805492909316911617905562000116565b600080546001600160a01b038381166001600160a01b0319831681178455604051919092169283917f8be0079c531659141344cd1fd0a4f28419497f9722a3daafe3b4186f6b6457e09190a35050565b80516001600160a01b0381168114620000d957600080fd5b919050565b60008060408385031215620000f257600080fd5b620000fd83620000c1565b91506200010d60208401620000c1565b90509250929050565b61253880620001266000396000f3fe608060405234801561001057600080fd5b50600436106101005760003560e01c806397068d8511610097578063e857ac8a11610066578063e857ac8a146102ce578063f2fde38b146102ef578063f92e95c314610302578063fd4032ea1461031557600080fd5b806397068d8514610212578063a7212c7414610225578063a998954a14610238578063df474d72146102bb57600080fd5b80637d9b3e7c116100d35780637d9b3e7c146101b05780637e72cdfb146101db5780638da5cb5b146101ee57806395cb277d146101ff57600080fd5b80633a5d022d1461010557806357b8ddc91461011a578063715018a614610185578063791c0c421461018d575b600080fd5b6101186101133660046121d2565b610328565b005b610161610128366004612219565b600460209081526000938452604080852082529284528284209052825290205460ff808216916101008104821691620100009091041683565b60408051931515845291151560208401521515908201526060015b60405180910390f35b6101186108c9565b6101a061019b366004612219565b6108dd565b604051901515815260200161017c565b6001546101c3906001600160a01b031681565b6040516001600160a01b03909116815260200161017c565b6101186101e9366004612252565b610bec565b6000546001600160a01b03166101c3565b61011861020d366004612252565b61134d565b610118610220366004612252565b611436565b610118610233366004612282565b611865565b61028a610246366004612252565b600360208181526000938452604080852090915291835291208054600182015460028301549383015460049093015491939092909160ff8082169161010090041686565b60408051968752602087019590955293850192909252606084015215156080830152151560a082015260c00161017c565b6101186102c9366004612252565b611c94565b6102e16102dc366004612252565b611ddd565b60405190815260200161017c565b6101186102fd3660046122b0565b611dff565b610118610310366004612252565b611e78565b610118610323366004612252565b611fc1565b6002546040516324895abb60e21b815260048101869052859133916001600160a01b03909116906392256aec90602401602060405180830381865afa158015610375573d6000803e3d6000fd5b505050506040513d601f19601f8201168201806040525081019061039991906122cd565b6001600160a01b031614806103c75750336103bc6000546001600160a01b031690565b6001600160a01b0316145b6104275760405162461bcd60e51b815260206004820152602660248201527f4f6e6c792070726f6a656374204f776e6572206f722041646d696e20697320416044820152651b1b1bddd95960d21b60648201526084015b60405180910390fd5b8484600260009054906101000a90046001600160a01b03166001600160a01b03166316ff5b876040518163ffffffff1660e01b8152600401602060405180830381865afa15801561047c573d6000803e3d6000fd5b505050506040513d601f19601f820116820180604052508101906104a091906122ea565b8211156104bf5760405162461bcd60e51b815260040161041e90612303565b6002805460405163ab2b6bab60e01b8152600481018590526001600160a01b039091169063ab2b6bab90602401602060405180830381865afa158015610509573d6000803e3d6000fd5b505050506040513d601f19601f8201168201806040525081019061052d919061235d565b600581111561053e5761053e61233a565b1461055b5760405162461bcd60e51b815260040161041e9061237a565b6002546040516302ddb19360e11b8152600481018490526000916001600160a01b0316906305bb632690602401602060405180830381865afa1580156105a5573d6000803e3d6000fd5b505050506040513d601f19601f820116820180604052508101906105c991906122ea565b90508181036105ea5760405162461bcd60e51b815260040161041e906123c2565b600254604051631ce7522960e21b8152600481018a9052602481018990526000916001600160a01b03169063739d48a490604401602060405180830381865afa15801561063b573d6000803e3d6000fd5b505050506040513d601f19601f8201168201806040525081019061065f919061235d565b60058111156106705761067061233a565b1461068d5760405162461bcd60e51b815260040161041e906123f9565b6002546040516302ddb19360e11b8152600481018a905288916001600160a01b0316906305bb632690602401602060405180830381865afa1580156106d6573d6000803e3d6000fd5b505050506040513d601f19601f820116820180604052508101906106fa91906122ea565b146107475760405162461bcd60e51b815260206004820152601a60248201527f4552524f52203a20496e76616c69642050686173652049442021000000000000604482015260640161041e565b60008881526003602090815260408083208a8452909152902060040154610100900460ff16156107b95760405162461bcd60e51b815260206004820181905260248201527f556e6c6f636b2070726f706f73616c20616c7265616479206578656375746564604482015260640161041e565b6040518060c00160405280878152602001868152602001600081526020016000815260200160001515815260200160001515815250600360008a815260200190815260200160002060008981526020019081526020016000206000820151816000015560208201518160010155604082015181600201556060820151816003015560808201518160040160006101000a81548160ff02191690831515021790555060a08201518160040160016101000a81548160ff0219169083151502179055509050507fbe805dcf48ec587c2e0828a330f6279f930162144daba608214ad40068ce11c688886040516108b7929190918252602082015260400190565b60405180910390a15050505050505050565b6108d1612109565b6108db6000612163565b565b60008383600260009054906101000a90046001600160a01b03166001600160a01b03166316ff5b876040518163ffffffff1660e01b8152600401602060405180830381865afa158015610934573d6000803e3d6000fd5b505050506040513d601f19601f8201168201806040525081019061095891906122ea565b8211156109775760405162461bcd60e51b815260040161041e90612303565b6002805460405163ab2b6bab60e01b8152600481018590526001600160a01b039091169063ab2b6bab90602401602060405180830381865afa1580156109c1573d6000803e3d6000fd5b505050506040513d601f19601f820116820180604052508101906109e5919061235d565b60058111156109f6576109f661233a565b14610a135760405162461bcd60e51b815260040161041e9061237a565b6002546040516302ddb19360e11b8152600481018490526000916001600160a01b0316906305bb632690602401602060405180830381865afa158015610a5d573d6000803e3d6000fd5b505050506040513d601f19601f82011682018060405250810190610a8191906122ea565b9050818103610aa25760405162461bcd60e51b815260040161041e906123c2565b6002546040516305adcb5760e51b8152600481018990526001600160a01b0387811660248301529091169063b5b96ae090604401602060405180830381865afa158015610af3573d6000803e3d6000fd5b505050506040513d601f19601f82011682018060405250810190610b179190612430565b8015610b9957506002546040516324895abb60e21b8152600481018990526001600160a01b038781169216906392256aec90602401602060405180830381865afa158015610b69573d6000803e3d6000fd5b505050506040513d601f19601f82011682018060405250810190610b8d91906122cd565b6001600160a01b031614155b15610bdd57600087815260046020908152604080832089845282528083206001600160a01b03891684529091529020805460ff191660019081179091559350610be2565b600093505b5050509392505050565b610bf4612109565b8181600260009054906101000a90046001600160a01b03166001600160a01b03166316ff5b876040518163ffffffff1660e01b8152600401602060405180830381865afa158015610c49573d6000803e3d6000fd5b505050506040513d601f19601f82011682018060405250810190610c6d91906122ea565b821115610c8c5760405162461bcd60e51b815260040161041e90612303565b6002805460405163ab2b6bab60e01b8152600481018590526001600160a01b039091169063ab2b6bab90602401602060405180830381865afa158015610cd6573d6000803e3d6000fd5b505050506040513d601f19601f82011682018060405250810190610cfa919061235d565b6005811115610d0b57610d0b61233a565b14610d285760405162461bcd60e51b815260040161041e9061237a565b6002546040516302ddb19360e11b8152600481018490526000916001600160a01b0316906305bb632690602401602060405180830381865afa158015610d72573d6000803e3d6000fd5b505050506040513d601f19601f82011682018060405250810190610d9691906122ea565b9050818103610db75760405162461bcd60e51b815260040161041e906123c2565b6002546040516325bc257560e11b815260048101879052602481018690526001600160a01b0390911690634b784aea90604401602060405180830381865afa158015610e07573d6000803e3d6000fd5b505050506040513d601f19601f82011682018060405250810190610e2b9190612430565b610e6f5760405162461bcd60e51b8152602060048201526015602482015274556e6c6f636b204e6f74204163636570746564202160581b604482015260640161041e565b600254604051639349bdf360e01b815260048101879052602481018690526001600160a01b0390911690639349bdf390604401602060405180830381865afa158015610ebf573d6000803e3d6000fd5b505050506040513d601f19601f82011682018060405250810190610ee39190612430565b15610f305760405162461bcd60e51b815260206004820152601960248201527f556e6c6f636b20416c7265616479204578656375746564202100000000000000604482015260640161041e565b6000858152600360209081526040808320878452909152808220600254915163ab49ed5760e01b815260048101899052909291610fc4916001600160a01b039091169063ab49ed5790602401602060405180830381865afa158015610f99573d6000803e3d6000fd5b505050506040513d601f19601f82011682018060405250810190610fbd91906122ea565b8354611ddd565b600254604051630287d6df60e51b8152600481018a90529192506001600160a01b0316906350fadbe090602401602060405180830381865afa15801561100e573d6000803e3d6000fd5b505050506040513d601f19601f8201168201806040525081019061103291906122ea565b8111156110815760405162461bcd60e51b815260206004820152601c60248201527f496e73756666696369656e742072656d61696e696e672066756e647300000000604482015260640161041e565b6002546040516379cab97b60e11b81526004810189905260248101889052604481018390526001600160a01b039091169063f39572f690606401600060405180830381600087803b1580156110d557600080fd5b505af11580156110e9573d6000803e3d6000fd5b5050600254604051630ee65e6f60e11b8152600481018b9052602481018590526001600160a01b039091169250631dccbcde9150604401600060405180830381600087803b15801561113a57600080fd5b505af115801561114e573d6000803e3d6000fd5b5050600254604051630ac855a960e21b8152600481018b9052602481018590526001600160a01b039091169250632b2156a49150604401600060405180830381600087803b15801561119f57600080fd5b505af11580156111b3573d6000803e3d6000fd5b5050506004808401805461ff001916610100179055600154604051637e1a189760e11b8152600093506001600160a01b039091169163fc34312e91611205918c91879101918252602082015260400190565b6020604051808303816000875af1158015611224573d6000803e3d6000fd5b505050506040513d601f19601f820116820180604052508101906112489190612430565b9050806112b05760405162461bcd60e51b815260206004820152603060248201527f556e6c6f636b2046756e6473203a205472616e7366657220746f2050726f6a6560448201526f63744f776e6572204661696c6564202160801b606482015260840161041e565b600254604051639f1083ad60e01b8152600481018a90526001600160a01b0390911690639f1083ad90602401600060405180830381600087803b1580156112f657600080fd5b505af115801561130a573d6000803e3d6000fd5b5050604080518b8152602081018b90529081018590527f1c6d1b7fcd71d13ffdb47d154e002c31ecb1a7a0c74b57ccc077f79cb96628a6925060600190506108b7565b611355612109565b600254604051631ce7522960e21b815260048101849052602481018390526000916001600160a01b03169063739d48a490604401602060405180830381865afa1580156113a6573d6000803e3d6000fd5b505050506040513d601f19601f820116820180604052508101906113ca919061235d565b60058111156113db576113db61233a565b146113f85760405162461bcd60e51b815260040161041e906123f9565b60408051838152602081018390527f9139119221e6eefd28c0f1ecf7ea2fb2d230d779eae70dcfe784225fe305744791015b60405180910390a15050565b61143e612109565b600254604051631ce7522960e21b815260048101849052602481018390526003916001600160a01b03169063739d48a490604401602060405180830381865afa15801561148f573d6000803e3d6000fd5b505050506040513d601f19601f820116820180604052508101906114b3919061235d565b60058111156114c4576114c461233a565b146114e15760405162461bcd60e51b815260040161041e906123f9565b6000828152600360209081526040808320848452909152812090805b600254604051630893342f60e11b8152600481018790526001600160a01b0390911690631126685e90602401602060405180830381865afa158015611546573d6000803e3d6000fd5b505050506040513d601f19601f8201168201806040525081019061156a91906122ea565b811015611701576002546040516344a982e760e01b815260048101879052602481018390526000916001600160a01b0316906344a982e790604401602060405180830381865afa1580156115c2573d6000803e3d6000fd5b505050506040513d601f19601f820116820180604052508101906115e691906122cd565b600087815260046020908152604080832089845282528083206001600160a01b0385168452909152902054909150610100900460ff16156116ee57600254604051637eba557360e01b8152600481018890526001600160a01b0383811660248301526000921690637eba557390604401602060405180830381865afa158015611673573d6000803e3d6000fd5b505050506040513d601f19601f8201168201806040525081019061169791906122ea565b60008881526004602090815260408083208a845282528083206001600160a01b038716845290915290205490915062010000900460ff1615156001146116de5760006116e0565b805b6116ea9085612463565b9350505b50806116f981612476565b9150506114fd565b50604260008290036117585760048301805460ff1916905560408051868152602081018690527f367f923cb86c4bd17649617a81750f646fb5834269abd267c0961fb355b7e08891015b60405180910390a16117ea565b8082106117a45760048301805460ff1916600117905560408051868152602081018690527f893402f25b30485516d3c904a79984288293742b65063b73eae836feda7aaf8e910161174b565b60048301805460ff1916905560408051868152602081018690527f367f923cb86c4bd17649617a81750f646fb5834269abd267c0961fb355b7e088910160405180910390a15b600254600484810154604051630ffdb35360e01b81529182018890526024820187905260ff16151560448201526001600160a01b0390911690630ffdb35390606401600060405180830381600087803b15801561184657600080fd5b505af115801561185a573d6000803e3d6000fd5b505050505050505050565b8282600260009054906101000a90046001600160a01b03166001600160a01b03166316ff5b876040518163ffffffff1660e01b8152600401602060405180830381865afa1580156118ba573d6000803e3d6000fd5b505050506040513d601f19601f820116820180604052508101906118de91906122ea565b8211156118fd5760405162461bcd60e51b815260040161041e90612303565b6002805460405163ab2b6bab60e01b8152600481018590526001600160a01b039091169063ab2b6bab90602401602060405180830381865afa158015611947573d6000803e3d6000fd5b505050506040513d601f19601f8201168201806040525081019061196b919061235d565b600581111561197c5761197c61233a565b146119995760405162461bcd60e51b815260040161041e9061237a565b6002546040516302ddb19360e11b8152600481018490526000916001600160a01b0316906305bb632690602401602060405180830381865afa1580156119e3573d6000803e3d6000fd5b505050506040513d601f19601f82011682018060405250810190611a0791906122ea565b9050818103611a285760405162461bcd60e51b815260040161041e906123c2565b611a338686336108dd565b611a7f5760405162461bcd60e51b815260206004820152601a60248201527f4e6f7420416c6c6f77656420746f207061727469636970617465000000000000604482015260640161041e565b60028054604051631ce7522960e21b815260048101899052602481018890526001600160a01b039091169063739d48a490604401602060405180830381865afa158015611ad0573d6000803e3d6000fd5b505050506040513d601f19601f82011682018060405250810190611af4919061235d565b6005811115611b0557611b0561233a565b14611b225760405162461bcd60e51b815260040161041e906123f9565b60008681526004602090815260408083208884528252808320338452909152902054610100900460ff1615611b995760405162461bcd60e51b815260206004820152601860248201527f596f75206861766520416c726561647920566f74656420210000000000000000604482015260640161041e565b600086815260046020908152604080832088845282528083203384529091529020805461ff00198615801562010000029190911662ffff00199092169190911761010017909155611c1c5760008681526003602090815260408083208884529091528120600201805460019290611c11908490612463565b90915550611c4d9050565b6000868152600360208181526040808420898552909152822001805460019290611c47908490612463565b90915550505b6040805187815260208101879052338183015290517fd91ecafccf238642dccd41161308b3eebe62a12bc5819daf5164780c221ec95b9181900360600190a1505050505050565b611c9c612109565b60028054604051631ce7522960e21b815260048101859052602481018490526001600160a01b039091169063739d48a490604401602060405180830381865afa158015611ced573d6000803e3d6000fd5b505050506040513d601f19601f82011682018060405250810190611d11919061235d565b6005811115611d2257611d2261233a565b14611d3f5760405162461bcd60e51b815260040161041e906123f9565b600254604051637875c60b60e01b81526001600160a01b0390911690637875c60b90611d74908590859060039060040161248f565b600060405180830381600087803b158015611d8e57600080fd5b505af1158015611da2573d6000803e3d6000fd5b505060408051858152602081018590527f2c3ebbaf9eee2cd241b84530984d68477f58208110aeaffe9d72c70fed7d71f0935001905061142a565b600080611df56064611def86866121b3565b906121c6565b9150505b92915050565b611e07612109565b6001600160a01b038116611e6c5760405162461bcd60e51b815260206004820152602660248201527f4f776e61626c653a206e6577206f776e657220697320746865207a65726f206160448201526564647265737360d01b606482015260840161041e565b611e7581612163565b50565b611e80612109565b600254604051631ce7522960e21b815260048101849052602481018390526000916001600160a01b03169063739d48a490604401602060405180830381865afa158015611ed1573d6000803e3d6000fd5b505050506040513d601f19601f82011682018060405250810190611ef5919061235d565b6005811115611f0657611f0661233a565b14611f235760405162461bcd60e51b815260040161041e906123f9565b600254604051637875c60b60e01b81526001600160a01b0390911690637875c60b90611f58908590859060019060040161248f565b600060405180830381600087803b158015611f7257600080fd5b505af1158015611f86573d6000803e3d6000fd5b505060408051858152602081018590527f6868984e37f35127b7163dd225bc82d228364deccfb448676162228ebb93068e935001905061142a565b611fc9612109565b600254604051631ce7522960e21b815260048101849052602481018390526001916001600160a01b03169063739d48a490604401602060405180830381865afa15801561201a573d6000803e3d6000fd5b505050506040513d601f19601f8201168201806040525081019061203e919061235d565b600581111561204f5761204f61233a565b1461206c5760405162461bcd60e51b815260040161041e906123f9565b60028054604051637875c60b60e01b81526001600160a01b0390911691637875c60b916120a091869186919060040161248f565b600060405180830381600087803b1580156120ba57600080fd5b505af11580156120ce573d6000803e3d6000fd5b505060408051858152602081018590527f80d1deb5fe3ec894481e96766ffdc40a4a27925e91ca1a8dab2f228bddb34308935001905061142a565b6000546001600160a01b031633146108db5760405162461bcd60e51b815260206004820181905260248201527f4f776e61626c653a2063616c6c6572206973206e6f7420746865206f776e6572604482015260640161041e565b600080546001600160a01b038381166001600160a01b0319831681178455604051919092169283917f8be0079c531659141344cd1fd0a4f28419497f9722a3daafe3b4186f6b6457e09190a35050565b60006121bf82846124c9565b9392505050565b60006121bf82846124e0565b600080600080608085870312156121e857600080fd5b5050823594602084013594506040840135936060013592509050565b6001600160a01b0381168114611e7557600080fd5b60008060006060848603121561222e57600080fd5b8335925060208401359150604084013561224781612204565b809150509250925092565b6000806040838503121561226557600080fd5b50508035926020909101359150565b8015158114611e7557600080fd5b60008060006060848603121561229757600080fd5b8335925060208401359150604084013561224781612274565b6000602082840312156122c257600080fd5b81356121bf81612204565b6000602082840312156122df57600080fd5b81516121bf81612204565b6000602082840312156122fc57600080fd5b5051919050565b60208082526019908201527f4552524f52203a20496e76616c69642050726f6a656374494400000000000000604082015260600190565b634e487b7160e01b600052602160045260246000fd5b60068110611e7557600080fd5b60006020828403121561236f57600080fd5b81516121bf81612350565b60208082526028908201527f4552524f52203a2050726f6a656374204e6f742046756e646564205375636365604082015267737366756c6c792160c01b606082015260800190565b6020808252601a908201527f4552524f52203a20496e76616c69642050686173652049642021000000000000604082015260600190565b6020808252601e908201527f566f7465727320526567697374726174696f6e206e6f74206f70656e20210000604082015260600190565b60006020828403121561244257600080fd5b81516121bf81612274565b634e487b7160e01b600052601160045260246000fd5b80820180821115611df957611df961244d565b6000600182016124885761248861244d565b5060010190565b8381526020810183905260608101600683106124bb57634e487b7160e01b600052602160045260246000fd5b826040830152949350505050565b8082028115828204841417611df957611df961244d565b6000826124fd57634e487b7160e01b600052601260045260246000fd5b50049056fea2646970667358221220f36246a1f7600bd521eb14ad72b85368ba8a755bc6c07d784acc9fece4418dda64736f6c63430008130033",
  "immutableReferences": {},
  "source": "// SPDX-License-Identifier: MIT\n\npragma solidity 0.8.19;\nimport \"../node_modules/@openzeppelin/contracts/access/Ownable.sol\";\nimport \"../node_modules/@openzeppelin/contracts/token/ERC20/IERC20.sol\";\n\nimport \"../node_modules/@openzeppelin/contracts/utils/math/SafeMath.sol\";\n\nimport \"./FundraisingProject.sol\";\nimport \"./ProjectInfo.sol\";\n\n\ncontract VoteUnlockFunds  is Ownable {\n\n    FundraisingProject public fundraisingProjects;\n    ProjectInfo projectInfoContract;\n\n\n    // Structure pour stocker les rsultats du vote pour une proposition de dblocage de fonds\n    struct UnlockProposal {\n        uint amountToUnlockPercentage;\n        uint deadline; // in days \n        uint yesVotes;\n        uint noVotes;\n        bool isAccepted;\n        bool executed;\n    }\n\n    struct InvestorVoter {\n        bool isEligible;\n        bool hasVoted;\n        bool decision;\n    }\n    mapping(uint => mapping(uint => UnlockProposal)) public unlockProposals;\n    // unlockProposals[projectId][phase] = proposal;\n\n    mapping(uint => mapping(uint => mapping(address => InvestorVoter))) public investorVoters; \n    // investorVoters[projectId][phase][addr_investor].isEligible = true / false;\n\n/// events \n        event UnlockProposalOpen(uint _projectId, uint _phase);\n        event UnlockProposalAdded(uint _projectId, uint _phase);\n        event UnlockProposalClose(uint _projectId, uint _phase);\n        event VotingSessionOpen(uint _projectId, uint _phase);\n        event VotingSessionClose(uint _projectId, uint _phase);\n        event Voted(uint _projectId, uint _phase, address _addr);\n        event UnlockAccepted(uint _projectId, uint _phase);\n        event UnlockRejected(uint _projectId, uint _phase);\n        event UnlockExecuted(uint _projectId, uint _phase, uint256 _amount);\n\n//// \n    \n    constructor(address _projectInfoContractAddress, address _fundraisingProjects) {   \n        projectInfoContract = ProjectInfo(_projectInfoContractAddress);\n        fundraisingProjects = FundraisingProject(_fundraisingProjects);\n\n\n    }\n\n    modifier isValidProject(uint _projectId, uint _phase) {\n        require(_projectId <= projectInfoContract.getNumProjects(), \"ERROR : Invalid ProjectID\");\n        require(projectInfoContract.getFundraisingStatus(_projectId) == ProjectInfo.FundraisingStatus.FundraisingSuccessful, \"ERROR : Project Not Funded Successfully!\");\n        \n        uint currentPhase = projectInfoContract.getProjectCurrentPhase(_projectId); \n        require( currentPhase !=  _phase, \"ERROR : Invalid Phase Id !\");\n        _;\n    }\n\n    modifier onlyAdminOrProjectOwner(uint _projectId) {\n        require(projectInfoContract.getProjectOwner(_projectId) == msg.sender || owner() == msg.sender , \"Only project Owner or Admin is Allowed\");\n        _;\n    }\n\n    function unlockProposalOpening(uint _projectId, uint _phase) external onlyOwner  { // TODO isValidProjId(projectId)\n        require(projectInfoContract.getVoteUnlockStatus(_projectId, _phase) == ProjectInfo.VoteUnlockStatus.UnlockProposalOpen, \"Voters Registration not open !\");\n        emit UnlockProposalOpen(_projectId, _phase);\n    }\n\n    function UnlockProposalClosing(uint _projectId, uint _phase) external onlyOwner  { // TODO isValidProjId(projectId)\n        require(projectInfoContract.getVoteUnlockStatus(_projectId, _phase) == ProjectInfo.VoteUnlockStatus.UnlockProposalOpen, \"Voters Registration not open !\");\n        projectInfoContract.setVoteUnlockStatus(_projectId, _phase, ProjectInfo.VoteUnlockStatus.UnlockProposalClose);\n        emit UnlockProposalClose(_projectId, _phase);\n    }\n\n    function VotingSessionOpening(uint _projectId, uint _phase) external onlyOwner  { // TODO isValidProjId(projectId)\n        require(projectInfoContract.getVoteUnlockStatus(_projectId, _phase) == ProjectInfo.VoteUnlockStatus.UnlockProposalClose, \"Voters Registration not open !\");\n        projectInfoContract.setVoteUnlockStatus(_projectId, _phase, ProjectInfo.VoteUnlockStatus.VotingSessionOpen);\n        emit VotingSessionOpen(_projectId, _phase);\n    }\n\n    function VotingSessionClosing(uint _projectId, uint _phase) external onlyOwner  { // TODO isValidProjId(projectId)\n        require(projectInfoContract.getVoteUnlockStatus(_projectId, _phase) == ProjectInfo.VoteUnlockStatus.VotingSessionOpen, \"Voters Registration not open !\");\n        projectInfoContract.setVoteUnlockStatus(_projectId, _phase, ProjectInfo.VoteUnlockStatus.VotingSessionClose);\n        emit VotingSessionClose(_projectId, _phase);\n    }\n\n    // Phase d'ajout de proposal\n    function addUnlockProposal(uint _projectId, uint _phase, uint _amountToUnlockPercentage, uint _deadline) onlyAdminOrProjectOwner(_projectId) isValidProject(_projectId, _phase) public {\n        require(projectInfoContract.getVoteUnlockStatus(_projectId, _phase) == ProjectInfo.VoteUnlockStatus.UnlockProposalOpen, \"Voters Registration not open !\");\n        require(projectInfoContract.getProjectCurrentPhase(_projectId) == _phase, \"ERROR : Invalid Phase ID !\");\n        require(!unlockProposals[_projectId][_phase].executed, \"Unlock proposal already executed\");\n\n        unlockProposals[_projectId][_phase] = UnlockProposal(_amountToUnlockPercentage, _deadline, 0, 0, false, false);\n        emit UnlockProposalAdded(_projectId, _phase);\n    }\n\n    // Phase de Vote\n\n    function isEligibleVoter(uint _projectId, uint _phase, address _addr) public isValidProject(_projectId, _phase) returns(bool)\n    {\n        if(projectInfoContract.hasContributed(_projectId, _addr) && projectInfoContract.getProjectOwner(_projectId) != _addr)\n        {\n            investorVoters[_projectId][_phase][_addr].isEligible = true;\n            return true;\n        }\n        return false;\n    }\n\n    modifier onlyInvestorVoters(uint _projectId, uint _phase)\n    {\n        require(investorVoters[_projectId][_phase][msg.sender].isEligible, \"Not Allowed to participate\");\n        _;\n    }\n    // onlyInvestorVoters(_projectId, _phase) : no list voters , when clocking on button, check if eligible or not \n    function setVote(uint _projectId, uint _phase, bool _decision) isValidProject(_projectId, _phase) public \n    {\n        require(isEligibleVoter(_projectId, _phase, msg.sender),\"Not Allowed to participate\");\n        require(projectInfoContract.getVoteUnlockStatus(_projectId, _phase) == ProjectInfo.VoteUnlockStatus.VotingSessionOpen, \"Voters Registration not open !\");\n        require(!investorVoters[_projectId][_phase][msg.sender].hasVoted, \"You have Already Voted !\");\n\n        investorVoters[_projectId][_phase][msg.sender].decision = _decision;\n        investorVoters[_projectId][_phase][msg.sender].hasVoted = true;\n\n        if(_decision) {\n            unlockProposals[_projectId][_phase].yesVotes +=1;\n        }\n        else {\n            unlockProposals[_projectId][_phase].noVotes +=1;         \n        }\n        emit Voted(_projectId, _phase, msg.sender);\n    }\n\n    function tallyVotes(uint _projectId, uint _phase) public onlyOwner \n    {\n        require(projectInfoContract.getVoteUnlockStatus(_projectId, _phase) == ProjectInfo.VoteUnlockStatus.VotingSessionClose, \"Voters Registration not open !\");\n\n        UnlockProposal storage proposal = unlockProposals[_projectId][_phase];\n        uint totalVotesWeighted;\n        // Calculate the total weighted votes for this proposal\n        for (uint i = 0; i < projectInfoContract.getNumInvestors(_projectId); i++) \n        {\n            address investor = projectInfoContract.getContributor(_projectId, i);\n            if(investorVoters[_projectId][_phase][investor].hasVoted)\n            {\n                uint256 voteWeight = projectInfoContract.getVoteWeight(_projectId, investor);\n                totalVotesWeighted += investorVoters[_projectId][_phase][investor].decision == true ? voteWeight : 0;\n            }\n        }\n        uint MinYesVotesToValidate = 66; //minimum de 66% des fonds doivent voter ok  \n        if (totalVotesWeighted == 0) {\n            // No votes!\n            proposal.isAccepted = false;\n            emit UnlockRejected( _projectId, _phase);\n        } else if (totalVotesWeighted >= MinYesVotesToValidate) {\n                proposal.isAccepted = true;\n                emit UnlockAccepted( _projectId,  _phase);\n        }\n        else {\n                proposal.isAccepted = false;\n                emit UnlockRejected( _projectId, _phase);\n\n        }\n        projectInfoContract.setPhaseUnlockAccepted(_projectId, _phase, proposal.isAccepted);\n\n    }\n\n    using SafeMath for uint256;\n    function calculateAmountToUnblock(uint256 totalRaised, uint256 amountToUnblockInPer) public pure returns (uint256) \n    {\n        // TODO verify in which unit it is : wei or token unit\n        uint256 amountToUnblock = totalRaised.mul(amountToUnblockInPer).div(100);\n        return amountToUnblock;\n    }\n    function unblockFunds(uint _projectId, uint _phase) external onlyOwner isValidProject(_projectId,  _phase) \n    {\n        require(projectInfoContract.getPhaseUnlockAccepted(_projectId, _phase), \"Unlock Not Accepted !\");\n        require(!projectInfoContract.getPhaseUnlockExecuted(_projectId, _phase), \"Unlock Already Executed !\");\n\n        UnlockProposal storage proposal = unlockProposals[_projectId][_phase];\n\n        uint amountToUnlock = calculateAmountToUnblock(projectInfoContract.getTotalRaised(_projectId), proposal.amountToUnlockPercentage);\n\n        // total to unlock < remainingFunds \n        require(amountToUnlock <= projectInfoContract.getRemainingFunds(_projectId), \"Insufficient remaining funds\");\n\n        projectInfoContract.setPhaseAmoutToUnlock(_projectId, _phase, amountToUnlock);\n        projectInfoContract.decrementRemainingFunds(_projectId, amountToUnlock);\n        projectInfoContract.incrementTotalUnlocked(_projectId, amountToUnlock);\n        proposal.executed = true;\n\n        // TODO: call the escrow contract to unlock the funds\n        bool result = fundraisingProjects.unlockFunds(_projectId, amountToUnlock);\n        require(result, \"Unlock Funds : Transfer to ProjectOwner Failed !\");\n\n        projectInfoContract.incrementProjectCurrentPhase(_projectId); // currentphase is validated & unblocked => move to the next phase\n\n        emit UnlockExecuted(_projectId,  _phase,  amountToUnlock);\n    }\n}\n\n        //FundraisingProjects.Project storage project = fundraisingProjects.projects(_projectId); // TODO may return getProject(_projectId) ?  \n\n\n        // uint256 amountToUnblockInWei = totalRaised.mul(amountToUnblockInPer).div(100);\n        // return amountToUnblockInWei.div(DECIMALS);\n\n        // Calculate the quorum for this proposal\n        ////uint quorumWeighted; quorumWeighted = totalVotesWeighted * 10 / 100; // TODO : retrieve the value from SeedToken smart contract : holdersCount\n        \n\n   // using SafeMath for uint256;\n   // uint256 constant DECIMALS = 10 ** 18;\n\n    // function tallyVotes(uint _projectId, uint _phase) public onlyOwner { // returns (bool, uint)\n\n    //     UnlockProposal storage proposal = unlockProposals[_projectId][_phase]; // TODO Ilham storage \n    //     uint totalVotes = proposal.yesVotes + proposal.noVotes; // TODO pondr poids invest.\n    //     uint quorum = totalVotes * 10 / 100; // quorum is 10% of the total number of votes\n\n    //     if (totalVotes == 0 ) {\n    //         // No votes !\n    //         proposal.accepted = false; // proposal rejected \n    //     }\n\n    //     if (proposal.yesVotes > proposal.noVotes) {\n    //         // the proposal has passed\n    //         if (proposal.yesVotes >= quorum) {\n    //             proposal.accepted = true; // proposal accepted & to be executed \n    //         }\n    //     }\n    // }\n",
  "sourcePath": "/Users/ilham_elbouloumi/Documents/WorkSpace_Blockchain_VSC/CommonSeedDAO/truffle/contracts/VoteUnlockFunds.sol",
  "compiler": {
    "name": "solc",
    "version": "0.8.19+commit.7dd6d404.Emscripten.clang"
  },
  "schemaVersion": "3.4.12",
  "updatedAt": "2023-04-07T22:12:48.617Z",
  "networkType": "ethereum",
  "devdoc": {
    "kind": "dev",
    "methods": {
      "owner()": {
        "details": "Returns the address of the current owner."
      },
      "renounceOwnership()": {
        "details": "Leaves the contract without owner. It will not be possible to call `onlyOwner` functions anymore. Can only be called by the current owner. NOTE: Renouncing ownership will leave the contract without an owner, thereby removing any functionality that is only available to the owner."
      },
      "transferOwnership(address)": {
        "details": "Transfers ownership of the contract to a new account (`newOwner`). Can only be called by the current owner."
      }
    },
    "version": 1
  },
  "userdoc": {
    "events": {
      "UnlockProposalOpen(uint256,uint256)": {
        "notice": "events "
      }
    },
    "kind": "user",
    "methods": {},
    "version": 1
  }
}