{
  "contractName": "VoteProjectValidation",
  "abi": [
    {
      "inputs": [
        {
          "internalType": "address",
          "name": "_seedAddress",
          "type": "address"
        },
        {
          "internalType": "address",
          "name": "_projectInfoContractAddress",
          "type": "address"
        }
      ],
      "stateMutability": "nonpayable",
      "type": "constructor"
    },
    {
      "anonymous": false,
      "inputs": [
        {
          "indexed": true,
          "internalType": "address",
          "name": "previousOwner",
          "type": "address"
        },
        {
          "indexed": true,
          "internalType": "address",
          "name": "newOwner",
          "type": "address"
        }
      ],
      "name": "OwnershipTransferred",
      "type": "event"
    },
    {
      "anonymous": false,
      "inputs": [
        {
          "indexed": false,
          "internalType": "uint256",
          "name": "_projectId",
          "type": "uint256"
        }
      ],
      "name": "ProjectAccepted",
      "type": "event"
    },
    {
      "anonymous": false,
      "inputs": [
        {
          "indexed": false,
          "internalType": "uint256",
          "name": "_projectId",
          "type": "uint256"
        }
      ],
      "name": "ProjectRejected",
      "type": "event"
    },
    {
      "anonymous": false,
      "inputs": [
        {
          "indexed": false,
          "internalType": "uint256",
          "name": "_projectId",
          "type": "uint256"
        },
        {
          "indexed": false,
          "internalType": "address",
          "name": "_addr",
          "type": "address"
        }
      ],
      "name": "RegisterEligibleVoterDone",
      "type": "event"
    },
    {
      "anonymous": false,
      "inputs": [
        {
          "indexed": false,
          "internalType": "uint256",
          "name": "_projectId",
          "type": "uint256"
        }
      ],
      "name": "RegisterVotersClose",
      "type": "event"
    },
    {
      "anonymous": false,
      "inputs": [
        {
          "indexed": false,
          "internalType": "uint256",
          "name": "_projectId",
          "type": "uint256"
        }
      ],
      "name": "RegisterVotersOpen",
      "type": "event"
    },
    {
      "anonymous": false,
      "inputs": [
        {
          "indexed": false,
          "internalType": "uint256",
          "name": "_projectId",
          "type": "uint256"
        },
        {
          "indexed": false,
          "internalType": "address",
          "name": "_addr",
          "type": "address"
        }
      ],
      "name": "Voted",
      "type": "event"
    },
    {
      "anonymous": false,
      "inputs": [
        {
          "indexed": false,
          "internalType": "uint256",
          "name": "_projectId",
          "type": "uint256"
        }
      ],
      "name": "VotingSessionClose",
      "type": "event"
    },
    {
      "anonymous": false,
      "inputs": [
        {
          "indexed": false,
          "internalType": "uint256",
          "name": "_projectId",
          "type": "uint256"
        }
      ],
      "name": "VotingSessionOpen",
      "type": "event"
    },
    {
      "inputs": [],
      "name": "owner",
      "outputs": [
        {
          "internalType": "address",
          "name": "",
          "type": "address"
        }
      ],
      "stateMutability": "view",
      "type": "function",
      "constant": true
    },
    {
      "inputs": [],
      "name": "renounceOwnership",
      "outputs": [],
      "stateMutability": "nonpayable",
      "type": "function"
    },
    {
      "inputs": [
        {
          "internalType": "address",
          "name": "newOwner",
          "type": "address"
        }
      ],
      "name": "transferOwnership",
      "outputs": [],
      "stateMutability": "nonpayable",
      "type": "function"
    },
    {
      "inputs": [
        {
          "internalType": "uint256",
          "name": "_projectId",
          "type": "uint256"
        }
      ],
      "name": "registerVotersOpening",
      "outputs": [],
      "stateMutability": "nonpayable",
      "type": "function"
    },
    {
      "inputs": [
        {
          "internalType": "uint256",
          "name": "_projectId",
          "type": "uint256"
        }
      ],
      "name": "registerVotersClosing",
      "outputs": [],
      "stateMutability": "nonpayable",
      "type": "function"
    },
    {
      "inputs": [
        {
          "internalType": "uint256",
          "name": "_projectId",
          "type": "uint256"
        }
      ],
      "name": "VotingSessionOpening",
      "outputs": [],
      "stateMutability": "nonpayable",
      "type": "function"
    },
    {
      "inputs": [
        {
          "internalType": "uint256",
          "name": "_projectId",
          "type": "uint256"
        }
      ],
      "name": "VotingSessionClosing",
      "outputs": [],
      "stateMutability": "nonpayable",
      "type": "function"
    },
    {
      "inputs": [
        {
          "internalType": "address",
          "name": "_address",
          "type": "address"
        }
      ],
      "name": "isEligibleVoter",
      "outputs": [
        {
          "internalType": "bool",
          "name": "",
          "type": "bool"
        }
      ],
      "stateMutability": "view",
      "type": "function",
      "constant": true
    },
    {
      "inputs": [
        {
          "internalType": "uint256",
          "name": "_projectId",
          "type": "uint256"
        },
        {
          "internalType": "address",
          "name": "_address",
          "type": "address"
        }
      ],
      "name": "isRegisteredVoter",
      "outputs": [
        {
          "internalType": "bool",
          "name": "",
          "type": "bool"
        }
      ],
      "stateMutability": "view",
      "type": "function",
      "constant": true
    },
    {
      "inputs": [
        {
          "internalType": "uint256",
          "name": "_projectId",
          "type": "uint256"
        }
      ],
      "name": "registerEligibleVoters",
      "outputs": [],
      "stateMutability": "nonpayable",
      "type": "function"
    },
    {
      "inputs": [
        {
          "internalType": "uint256",
          "name": "_projectId",
          "type": "uint256"
        },
        {
          "internalType": "bool",
          "name": "_decision",
          "type": "bool"
        }
      ],
      "name": "setVote",
      "outputs": [],
      "stateMutability": "nonpayable",
      "type": "function"
    },
    {
      "inputs": [
        {
          "internalType": "uint256",
          "name": "_projectId",
          "type": "uint256"
        }
      ],
      "name": "tallyVote",
      "outputs": [],
      "stateMutability": "nonpayable",
      "type": "function"
    }
  ],
  "bytecode": "0x608060405234801561001057600080fd5b506040516200149c3803806200149c833981016040819052610031916100d7565b61003a3361006b565b600180546001600160a01b039384166001600160a01b0319918216179091556002805492909316911617905561010a565b600080546001600160a01b038381166001600160a01b0319831681178455604051919092169283917f8be0079c531659141344cd1fd0a4f28419497f9722a3daafe3b4186f6b6457e09190a35050565b80516001600160a01b03811681146100d257600080fd5b919050565b600080604083850312156100ea57600080fd5b6100f3836100bb565b9150610101602084016100bb565b90509250929050565b611382806200011a6000396000f3fe608060405234801561001057600080fd5b50600436106100b45760003560e01c80638da5cb5b116100715780638da5cb5b14610137578063bbffb98214610152578063d3516b7e14610165578063ee9d02a614610178578063f2fde38b1461018b578063f342ab1b1461019e57600080fd5b806304244623146100b95780631fcfc7c2146100ce5780634225e7f4146100f6578063715018a614610109578063751883d81461011157806380ab2f7714610124575b600080fd5b6100cc6100c7366004611168565b6101b1565b005b6100e16100dc366004611196565b6103ff565b60405190151581526020015b60405180910390f35b6100e16101043660046111c6565b61042c565b6100cc6104ac565b6100cc61011f366004611168565b6104c0565b6100cc610132366004611168565b610605565b6000546040516001600160a01b0390911681526020016100ed565b6100cc610160366004611168565b6106d9565b6100cc6101733660046111ea565b610813565b6100cc610186366004611168565b610b4a565b6100cc6101993660046111c6565b610f0d565b6100cc6101ac366004611168565b610f86565b336101f85760405162461bcd60e51b8152602060048201526012602482015271034b73b30b634b21030b2323932b9b99010960751b60448201526064015b60405180910390fd5b6002546040516324895abb60e21b8152600481018390526001600160a01b03909116906392256aec90602401602060405180830381865afa158015610241573d6000803e3d6000fd5b505050506040513d601f19601f820116820180604052508101906102659190611214565b6001600160a01b031633036102d35760405162461bcd60e51b815260206004820152602e60248201527f4552524f52203a2070726f6a656374206f776e65727320617265206e6f74206160448201526d6c6c6f77656420746f20766f746560901b60648201526084016101ef565b6001546040516370a0823160e01b81523360048201526103e89182916001600160a01b03909116906370a0823190602401602060405180830381865afa158015610321573d6000803e3d6000fd5b505050506040513d601f19601f820116820180604052508101906103459190611231565b101561039d5760405162461bcd60e51b815260206004820152602160248201527f4552524f52203a20496e73756666696369656e7420534545442062616c616e636044820152606560f81b60648201526084016101ef565b60008281526004602090815260408083203380855290835292819020805460ff191660011790558051858152918201929092527fec10d1426a4fdf4acb46f7e1cada69d3b1723022b4e8d46200e27310256f2d17910160405180910390a15050565b60008281526004602090815260408083206001600160a01b038516845290915290205460ff165b92915050565b6001546040516370a0823160e01b81526001600160a01b0383811660048301526000926103e8928392909116906370a0823190602401602060405180830381865afa15801561047f573d6000803e3d6000fd5b505050506040513d601f19601f820116820180604052508101906104a39190611231565b10159392505050565b6104b46110be565b6104be6000611118565b565b6104c86110be565b6002546040516392d4c4a560e01b8152600481018390526000916001600160a01b0316906392d4c4a590602401602060405180830381865afa158015610512573d6000803e3d6000fd5b505050506040513d601f19601f820116820180604052508101906105369190611260565b60058111156105475761054761124a565b146105645760405162461bcd60e51b81526004016101ef90611281565b600254604051630e473f3960e21b81526001600160a01b039091169063391cfce4906105979084906001906004016112b8565b600060405180830381600087803b1580156105b157600080fd5b505af11580156105c5573d6000803e3d6000fd5b505050507fa43af3966faea2ee62c8ddc94dae793de17856f1096144e5aea0b63e196b840c816040516105fa91815260200190565b60405180910390a150565b61060d6110be565b6002546040516392d4c4a560e01b8152600481018390526000916001600160a01b0316906392d4c4a590602401602060405180830381865afa158015610657573d6000803e3d6000fd5b505050506040513d601f19601f8201168201806040525081019061067b9190611260565b600581111561068c5761068c61124a565b146106a95760405162461bcd60e51b81526004016101ef90611281565b6040518181527ff5c8b64713129ab0243aed7bc511f082accfbec5395860abec284314f96671b3906020016105fa565b6106e16110be565b600280546040516392d4c4a560e01b8152600481018490526001600160a01b03909116906392d4c4a590602401602060405180830381865afa15801561072b573d6000803e3d6000fd5b505050506040513d601f19601f8201168201806040525081019061074f9190611260565b60058111156107605761076061124a565b1461077d5760405162461bcd60e51b81526004016101ef90611281565b600254604051630e473f3960e21b81526001600160a01b039091169063391cfce4906107b09084906003906004016112b8565b600060405180830381600087803b1580156107ca57600080fd5b505af11580156107de573d6000803e3d6000fd5b505050507ff2b69eaf5fbd7556baa1f1ae9f2fcf93dab8fa7d12e21508cbe7ed3826defa67816040516105fa91815260200190565b600254604080516316ff5b8760e01b8152905184926001600160a01b0316916316ff5b879160048083019260209291908290030181865afa15801561085c573d6000803e3d6000fd5b505050506040513d601f19601f820116820180604052508101906108809190611231565b8111156108cb5760405162461bcd60e51b815260206004820152601960248201527811549493d4880e88125b9d985b1a5908141c9bda9958dd1251603a1b60448201526064016101ef565b6000838152600460209081526040808320338452909152902054839060ff166109365760405162461bcd60e51b815260206004820152601c60248201527f4552524f52203a204e6f7420456c696769626c6520566f74657220210000000060448201526064016101ef565b600280546040516392d4c4a560e01b8152600481018790526001600160a01b03909116906392d4c4a590602401602060405180830381865afa158015610980573d6000803e3d6000fd5b505050506040513d601f19601f820116820180604052508101906109a49190611260565b60058111156109b5576109b561124a565b14610a025760405162461bcd60e51b815260206004820152601960248201527f566f74696e672053657373696f6e206e6f74206f70656e20210000000000000060448201526064016101ef565b6000848152600460209081526040808320338452909152902054610100900460ff1615610a715760405162461bcd60e51b815260206004820152601a60248201527f4552524f52203a2048617320416c726561647920566f7465642100000000000060448201526064016101ef565b60008481526004602090815260408083203384529091529020805461ff00198515801562010000029190911662ffff00199092169190911761010017909155610ade576000848152600360205260408120805460019290610ad3908490611300565b90915550610b0b9050565b6001600360008681526020019081526020016000206001016000828254610b059190611300565b90915550505b604080518581523360208201527f030b0f8dcd86a031eddb071f91882edeac8173663ba775713b677b42b51be44b91015b60405180910390a150505050565b610b526110be565b600254604080516316ff5b8760e01b8152905183926001600160a01b0316916316ff5b879160048083019260209291908290030181865afa158015610b9b573d6000803e3d6000fd5b505050506040513d601f19601f82011682018060405250810190610bbf9190611231565b811115610c0a5760405162461bcd60e51b815260206004820152601960248201527811549493d4880e88125b9d985b1a5908141c9bda9958dd1251603a1b60448201526064016101ef565b6002546040516392d4c4a560e01b8152600481018490526003916001600160a01b0316906392d4c4a590602401602060405180830381865afa158015610c54573d6000803e3d6000fd5b505050506040513d601f19601f82011682018060405250810190610c789190611260565b6005811115610c8957610c8961124a565b14610cd65760405162461bcd60e51b815260206004820152601f60248201527f566f74696e672053657373696f6e206e6f7420436c6f7365642079657420210060448201526064016101ef565b600082815260036020526040812060018101549054610cf59190611300565b905080600003610d9e57600254604051630e473f3960e21b81526001600160a01b039091169063391cfce490610d329086906005906004016112b8565b600060405180830381600087803b158015610d4c57600080fd5b505af1158015610d60573d6000803e3d6000fd5b505050507fcdcfe8bd58f12ac7a585895f7045b6322a1ec7e7179377dc3bfa8434ed22e72483604051610d9591815260200190565b60405180910390a15b6000838152600360205260408120548290610dba906064611313565b610dc4919061132a565b90506042811115610e7157600254604051630e473f3960e21b81526001600160a01b039091169063391cfce490610e0190879060049081016112b8565b600060405180830381600087803b158015610e1b57600080fd5b505af1158015610e2f573d6000803e3d6000fd5b505050507f623be8b40a0155c2c049cc6ad02d5e4a782dde65f74cd34d0abe8b277f6b32ae84604051610e6491815260200190565b60405180910390a1610f07565b600254604051630e473f3960e21b81526001600160a01b039091169063391cfce490610ea49087906005906004016112b8565b600060405180830381600087803b158015610ebe57600080fd5b505af1158015610ed2573d6000803e3d6000fd5b505050507fcdcfe8bd58f12ac7a585895f7045b6322a1ec7e7179377dc3bfa8434ed22e72484604051610b3c91815260200190565b50505050565b610f156110be565b6001600160a01b038116610f7a5760405162461bcd60e51b815260206004820152602660248201527f4f776e61626c653a206e6577206f776e657220697320746865207a65726f206160448201526564647265737360d01b60648201526084016101ef565b610f8381611118565b50565b610f8e6110be565b6002546040516392d4c4a560e01b8152600481018390526001916001600160a01b0316906392d4c4a590602401602060405180830381865afa158015610fd8573d6000803e3d6000fd5b505050506040513d601f19601f82011682018060405250810190610ffc9190611260565b600581111561100d5761100d61124a565b1461102a5760405162461bcd60e51b81526004016101ef90611281565b60028054604051630e473f3960e21b81526001600160a01b039091169163391cfce49161105b9185916004016112b8565b600060405180830381600087803b15801561107557600080fd5b505af1158015611089573d6000803e3d6000fd5b505050507fd2a8fc483ee00a54c6ae92acd2ee38cb1b5611c2063f11f5a5ac511d68719b86816040516105fa91815260200190565b6000546001600160a01b031633146104be5760405162461bcd60e51b815260206004820181905260248201527f4f776e61626c653a2063616c6c6572206973206e6f7420746865206f776e657260448201526064016101ef565b600080546001600160a01b038381166001600160a01b0319831681178455604051919092169283917f8be0079c531659141344cd1fd0a4f28419497f9722a3daafe3b4186f6b6457e09190a35050565b60006020828403121561117a57600080fd5b5035919050565b6001600160a01b0381168114610f8357600080fd5b600080604083850312156111a957600080fd5b8235915060208301356111bb81611181565b809150509250929050565b6000602082840312156111d857600080fd5b81356111e381611181565b9392505050565b600080604083850312156111fd57600080fd5b82359150602083013580151581146111bb57600080fd5b60006020828403121561122657600080fd5b81516111e381611181565b60006020828403121561124357600080fd5b5051919050565b634e487b7160e01b600052602160045260246000fd5b60006020828403121561127257600080fd5b8151600681106111e357600080fd5b6020808252601e908201527f566f7465727320526567697374726174696f6e206e6f74206f70656e20210000604082015260600190565b82815260408101600683106112dd57634e487b7160e01b600052602160045260246000fd5b8260208301529392505050565b634e487b7160e01b600052601160045260246000fd5b80820180821115610426576104266112ea565b8082028115828204841417610426576104266112ea565b60008261134757634e487b7160e01b600052601260045260246000fd5b50049056fea2646970667358221220f34706d1a818dfb0ba77be153e1896fd123c7cc099bf8ce15a85ba40607fadd064736f6c63430008130033",
  "immutableReferences": {},
  "source": "// SPDX-License-Identifier: MIT\n\n/// @title  VoteProjectValidation\n/// @author Ilham EL BOULOUMI\n/// @dev   \tVoteProjectValidation : Smart contract de la gestion de vote par la communaut DAO sur la validit d'un projet\n\npragma solidity 0.8.19;\nimport \"../node_modules/@openzeppelin/contracts/access/Ownable.sol\";\nimport \"../node_modules/@openzeppelin/contracts/token/ERC20/IERC20.sol\";\n\nimport \"./ProjectInfo.sol\";\n\ncontract VoteProjectValidation is Ownable {\n  \n    event RegisterVotersOpen(uint _projectId);\n    event RegisterVotersClose(uint _projectId);\n    event VotingSessionOpen(uint _projectId);\n    event VotingSessionClose(uint _projectId);\n    event ProjectAccepted(uint _projectId);\n    event ProjectRejected(uint _projectId);\n    \n    event RegisterEligibleVoterDone(uint _projectId, address _addr);\n    \n    event Voted(uint _projectId, address _addr);\n \n    struct CountVotes {\n        uint yesVotes;\n        uint noVotes;\n    }\n    struct DaoVoter {\n        bool hasGovernanceToken;\n        bool hasVoted;\n        bool decision;\n    }\n\n    IERC20 seedToken;\n    ProjectInfo projectInfoContract;\n    mapping(uint => CountVotes) projectCountVotes; // projectVoters[projectId][address].hasGovernanceToken / hasVoted/ ..\n    mapping(uint => mapping (address => DaoVoter)) projectVoters; // projectVoters[projectId][address].hasGovernanceToken / hasVoted/ ..\n\n\n    constructor(address _seedAddress, address _projectInfoContractAddress) {\n        seedToken = IERC20(_seedAddress);\n        projectInfoContract = ProjectInfo(_projectInfoContractAddress);\n    }\n\n    modifier isValidProjId(uint _projectId) {\n        require(_projectId <= projectInfoContract.getNumProjects(), \"ERROR : Invalid ProjectID\");\n        _;\n    }\n\n    function registerVotersOpening(uint _projectId) external onlyOwner  { // TODO isValidProjId(projectId)\n        require(projectInfoContract.getVoteValidationStatus(_projectId) == ProjectInfo.VoteValidationStatus.RegisterVotersOpen, \"Voters Registration not open !\");\n        emit RegisterVotersOpen(_projectId);\n    }\n\n    function registerVotersClosing(uint _projectId) external onlyOwner  { // TODO isValidProjId(projectId)\n        require(projectInfoContract.getVoteValidationStatus(_projectId) == ProjectInfo.VoteValidationStatus.RegisterVotersOpen, \"Voters Registration not open !\");\n        projectInfoContract.setVoteValidationStatus(_projectId, ProjectInfo.VoteValidationStatus.RegisterVotersClose);\n        emit RegisterVotersClose(_projectId);\n    }\n\n    function VotingSessionOpening(uint _projectId) external onlyOwner  { // TODO isValidProjId(projectId)\n        require(projectInfoContract.getVoteValidationStatus(_projectId) == ProjectInfo.VoteValidationStatus.RegisterVotersClose, \"Voters Registration not open !\");\n        projectInfoContract.setVoteValidationStatus(_projectId, ProjectInfo.VoteValidationStatus.VotingSessionOpen);\n        emit VotingSessionOpen(_projectId);\n    }\n\n    function VotingSessionClosing(uint _projectId) external onlyOwner  { // TODO isValidProjId(projectId)\n        require(projectInfoContract.getVoteValidationStatus(_projectId) == ProjectInfo.VoteValidationStatus.VotingSessionOpen, \"Voters Registration not open !\");\n        projectInfoContract.setVoteValidationStatus(_projectId, ProjectInfo.VoteValidationStatus.VotingSessionClose);\n        emit VotingSessionClose(_projectId);\n    }\n\n    function isEligibleVoter(address _address) external view returns(bool) {\n\n        uint MinSeedBalance = 1000; //TODO minimum SEED balance required to vote\n        return(seedToken.balanceOf(_address) >= MinSeedBalance);\n    }\n    function isRegisteredVoter(uint _projectId, address _address) external view returns(bool) {\n\n        return(projectVoters[_projectId][_address].hasGovernanceToken);\n    }\n    function registerEligibleVoters(uint _projectId) public // les voters s'enregistrent d'eux meme .. pas Admin qui ajoute\n    {\n        require(msg.sender != address(0), \"invalid address ! \");\n        require(msg.sender != projectInfoContract.getProjectOwner(_projectId), \"ERROR : project owners are not allowed to vote\");\n\n        uint MinSeedBalance = 1000; //TODO minimum SEED balance required to vote\n        require(seedToken.balanceOf(msg.sender) >= MinSeedBalance, \"ERROR : Insufficient SEED balance\");\n        \n        projectVoters[_projectId][msg.sender].hasGovernanceToken = true;\n\n        emit RegisterEligibleVoterDone(_projectId, msg.sender);\n    }\n\n    modifier onlyVoter(uint _projectId){\n        require(projectVoters[_projectId][msg.sender].hasGovernanceToken, \"ERROR : Not Eligible Voter !\");\n        _;\n    }\n\n    function setVote(uint _projectId, bool _decision) public  isValidProjId(_projectId) onlyVoter(_projectId)\n    {\n        require(projectInfoContract.getVoteValidationStatus(_projectId) == ProjectInfo.VoteValidationStatus.VotingSessionOpen, \"Voting Session not open !\");\n        require(!projectVoters[_projectId][msg.sender].hasVoted , \"ERROR : Has Already Voted!\");\n\n        projectVoters[_projectId][msg.sender].decision = _decision;\n        projectVoters[_projectId][msg.sender].hasVoted = true;\n\n        if(_decision) {\n            projectCountVotes[_projectId].yesVotes +=1;\n        }\n        else {\n            projectCountVotes[_projectId].noVotes +=1;\n        }\n        emit Voted(_projectId, msg.sender);\n    }\n\n    function tallyVote(uint _projectId) public onlyOwner isValidProjId(_projectId) \n    {\n        require(projectInfoContract.getVoteValidationStatus(_projectId) == ProjectInfo.VoteValidationStatus.VotingSessionClose, \"Voting Session not Closed yet !\");\n\n        uint totalVotes = projectCountVotes[_projectId].yesVotes + projectCountVotes[_projectId].noVotes; // TODO pondr poids invest.\n        // uint quorum = totalCommunity * 10 / 100; // quorum is 10% of the total number of voters possessing the governance token\n\n        if (totalVotes == 0 ) {\n            // No votes !\n            // projet non valid \n            projectInfoContract.setVoteValidationStatus(_projectId, ProjectInfo.VoteValidationStatus.ProjectRejected);\n            emit ProjectRejected(_projectId);\n        }\n\n        uint yesPercentage = (projectCountVotes[_projectId].yesVotes * 100) / totalVotes;\n        if (yesPercentage > 66) \n        {\n            // if(projectCountVotes[_projectId].yesVotes > quorum ) // TODO \n            // projet valid  ==> passe  l'tapde crowfunding \n            projectInfoContract.setVoteValidationStatus(_projectId, ProjectInfo.VoteValidationStatus.ProjectAccepted);\n            emit ProjectAccepted(_projectId);\n        }\n        else {\n            // projet non valid \n            projectInfoContract.setVoteValidationStatus(_projectId, ProjectInfo.VoteValidationStatus.ProjectRejected);\n            emit ProjectRejected(_projectId);\n        }\n    }\n}",
  "sourcePath": "/Users/ilham_elbouloumi/Documents/WorkSpace_Blockchain_VSC/CommonSeedDAO/truffle/contracts/VoteProjectValidation.sol",
  "compiler": {
    "name": "solc",
    "version": "0.8.19+commit.7dd6d404.Emscripten.clang"
  },
  "schemaVersion": "3.4.12",
  "updatedAt": "2023-04-12T10:07:58.984Z",
  "networkType": "ethereum",
  "devdoc": {
    "kind": "dev",
    "methods": {
      "owner()": {
        "details": "Returns the address of the current owner."
      },
      "renounceOwnership()": {
        "details": "Leaves the contract without owner. It will not be possible to call `onlyOwner` functions anymore. Can only be called by the current owner. NOTE: Renouncing ownership will leave the contract without an owner, thereby removing any functionality that is only available to the owner."
      },
      "transferOwnership(address)": {
        "details": "Transfers ownership of the contract to a new account (`newOwner`). Can only be called by the current owner."
      }
    },
    "version": 1
  },
  "userdoc": {
    "kind": "user",
    "methods": {},
    "version": 1
  }
}